:020000040801F1
:10000000F0230020F1460108090B01080B0B010841
:100010000F0B0108130B0108170B0108000000006B
:100020000000000000000000000000001B0B0108A1
:100030001D0B0108000000001F0B0108210B010827
:100040000B4701080B4701080B4701080B47010844
:100050000B4701080B4701080B4701080B47010834
:10006000350D01086B0D0108A10D01080B470108B2
:100070000B4701080B4701080B4701080B47010814
:100080000B470108312D01080B4701080B470108F8
:100090000B4701080B4701080B470108D70D010862
:1000A0000B470108671601080B4701080B470108B9
:1000B0000B470108B51701080B4701080B4701085A
:1000C0000B4701080B4701080B4701080B470108C4
:1000D0000B470108652D01080B470108E5260108BB
:1000E0000B4701080B4701080B4701080B470108A4
:1000F0009B1801080B4701080B4701080B47010833
:100100000B4701080B470108D91001080B470108EC
:100110000B4701080B4701080B4701081929010883
:100120006F2201080B4701080B4701080B47010824
:100130000B4701080B4701080B4701080B47010853
:100140000B4701080B4701080B4701080B47010843
:100150000B4701080B4701080B4701080B47010833
:100160000B4701080B4701080B4701080B47010823
:100170000B4701080B4701080B4701080B47010813
:100180000B4701080B47010800F002F800F0B6F831
:100190000AA090E8000C82448344AAF10107DA45E2
:1001A00001D100F0ABF8AFF2090EBAE80F0013F07E
:1001B000010F18BFFB1A43F001031847109A000003
:1001C000309A000010F8013B0A4413F0030408BF02
:1001D00010F8014B1D1108BF10F8015B641E05D01B
:1001E00010F8016B641E01F8016BF9D1002D15D0D8
:1001F00010F8014B03F00C030C2BA1EB04040ABF15
:1002000010F8013BA4EB8314A4EB032405F10103D4
:1002100014F8016B5B1E01F8016BF9D5914238BFF0
:1002200010F8013BD1D3704700230024002500269D
:10023000103A28BF78C1FBD8520728BF30C148BF49
:100240000B6070476E2907F01E87702907F00F8535
:10025000662909F04D84652909F04A84672909F067
:1002600047846129AFF3008003681B0A28BF41F06F
:100270008001692907F08284642907F07F84752949
:1002800007F07C846F2908F01F82782907F0DB844F
:10029000E92908F0BB81E42908F0B881F52908F0C4
:1002A000B581EF2908F01C82F82907F0DA84036889
:1002B000DB0928BF41F08001632908F02A817329F6
:1002C00008F02F81E32908F0D182F32908F0D682C3
:1002D000002070471FB509F006FC08F033FA04004F
:1002E0000020002109F01EF8401C60600020002161
:1002F00009F002F8E0601FBD10B510BD08F056FB14
:100300001146FFF7E7FF00F009F808F07DFB03B4A2
:10031000FFF7F2FF03BC02F0A7FC0000FD48FE4916
:1003200008604FF4A06004F003FA00F09EFDA820DE
:1003300002F018FC4FF4964002F0A4FC00F008FE16
:1003400001F018F8292140F69F7001F086F8292164
:1003500040F69F7001F0D8F8532140F69F7001F0ED
:100360002AF902F09EFB4FF47A7002F05DFC01F076
:100370006FFD01F019FE01F0B7FE42F2CF0141F22C
:10038000863000F07AFE0121E44805F0BFFC00F061
:1003900057FE0121880705F0B9FC88E303F0B6FD9C
:1003A000DF480088012806D10220DD4908800120AD
:1003B000DC49086009E0DA480088032805D10220FA
:1003C000D74908800020D7490860D548008805280B
:1003D00010D10220D2490880D34802884FF44871D6
:1003E000012001F081FA4FF4FA624FF416710020F7
:1003F00001F0B8FACA480088072809D10220C84984
:1004000008806422C821002001F0DAFA01F020FD02
:10041000C3480088102807D10220C1490880012064
:10042000C049083108600AE0BD480088112806D19B
:100430000220BB4908800020BA4908310860B8484A
:100440000088083812285AD2DFE800F0090E131885
:100450001D22272C595931363B40454A4F54012023
:10046000B049091F08604BE00020AE49091F086031
:1004700046E00120AB491039086041E00020A9495D
:10048000103908603CE00120A6490C39086037E0CB
:100490000020A4490C39086032E00120A149083944
:1004A00008602DE000209F490839086028E00120FD
:1004B0009C491439086023E000209A4914390860E7
:1004C0001EE0012097492039086019E00020954975
:1004D0002039086014E0012092491C3908600FE0BF
:1004E000002090491C3908600AE001208D49183924
:1004F000086005E000208B491839086000E000BF63
:1005000000BF8A480088012803D18649091D086078
:100510000AE08648008818B184480088032803D17F
:1005200000208049091D08608148007803282ED1E9
:100530008048008880490988884228D120217F4846
:1005400004F04EFA012816D10020794908700220E3
:100550007B4908707BA002F0FAFB4FF496717D484E
:1005600007F0BFFC002073490880734908806420AD
:1005700002F05AFB0BE00420714908700020764914
:100580000870764908707649087006F05AFD684888
:10059000007809281ED16748008867490988884281
:1005A000F8D12021654804F01BFA012813D100205E
:1005B0005F49087002206249087062A002F0C7FB20
:1005C0004FF49671634807F08CFC0020594908806D
:1005D000594908806BE25A48007809287DD10120EA
:1005E0005049083108605F48007808B9012000E0F0
:1005F00000204C49091F08605B48007808B90120B9
:1006000000E000204749103908605848007808B9D0
:10061000012000E0002043490C390860544800786C
:1006200008B9012000E000203E490839086051481F
:10063000007808B9012000E000203A491439086028
:100640004D48007808B9012000E0002035492039E4
:1006500008604A48007808B9012000E000203149CC
:100660001C3908604648007808B9012000E00020E5
:100670002C491839086043480078002848D042487F
:100680000078002844D041480078002840D04048F5
:10069000007800283CD03F480078C8B33E48007836
:1006A000B0B33E48007898B33D48007880B3072146
:1006B0003448007801F061FF0546072102F0AFF9E8
:1006C00005213148007801F058FF0546052102F068
:1006D000A6F903212D48007800E091E001F04DFFDC
:1006E0000546032102F09BF901212948007801F019
:1006F00044FF0546012102F092F9042125480078C3
:1007000001F03BFF0546042102F089F9062149E08A
:100710006FE000000000010808ED00E0000C004060
:10072000FC0B0020A0824142100C0020FE0B002098
:10073000FA0B0020DC0B0020DA0B00200010024036
:10074000000000203A6469616C6F67626F783D3821
:100750000D0A0000C8180020A8020020A9020020ED
:10076000AA020020E60B0020E70B0020E80B002087
:10077000E90B0020EA0B0020EB0B0020EC0B002023
:10078000ED0B0020E50B0020DE0B0020DF0B00202E
:10079000E00B0020E10B0020E20B0020E30B002027
:1007A000E40B0020C248007801F0E7FE0546062170
:1007B00002F035F90021BF48007801F0DEFE054661
:1007C000002102F02CF90221BB48007801F0D5FE8F
:1007D0000546022102F023F90120B849087000BF44
:1007E000B7480088B428FBDB0020B5490880B3492E
:1007F0000870B44802884FF41671012001F074F8B3
:100800000420B1490870B1480088012849D100206E
:10081000AE490880AE48B0F90000002811DAAC48B3
:10082000B0F90050002D01DB284600E068424FF48B
:10083000E15100FB01F24FF41671002001F054F871
:1008400010E0A348B0F90050002D01DB284600E07D
:1008500068424FF4E15100FB01F24FF416710120A0
:1008600001F042F84FF4C8625110002001F07AF80C
:1008700098480088C0EB001082009748018897488C
:10088000008801F045F94FF4C8625110012001F0D1
:1008900069F8934A93A194A002F0CEFB904802F02D
:1008A00056FA8A480088022841D1002087490880EA
:1008B0008748B0F90000002811DA8548B0F90050E7
:1008C000002D01DB284600E068424FF4E15100FBB7
:1008D00001F24FF41671002001F006F810E07C4898
:1008E000B0F90050002D01DB284600E068424FF4CB
:1008F000E15100FB01F24FF41671012000F0F4FF0A
:1009000074490988C1EB0111890001EB4102C2EB76
:10091000C1114FF6FF7202EAC10002F085F9704A78
:1009200070A171A002F088FB6D4802F010FA6748D0
:100930000088032843D10020644908806448B0F946
:100940000000002811DA6248B0F90050002D01DBE8
:10095000284600E068424FF4E15100FB01F24FF4F9
:100960001671002000F0C0FF10E05948B0F90050A7
:10097000002D01DB284600E068424FF4E15100FB06
:1009800001F24FF41671012000F0AEFF4FF4C8627F
:1009900058480188002001F041F8052002F044F990
:1009A0004FF4C86253480188012001F037F84C4ADF
:1009B0004CA14DA002F040FB494802F0C8F9434861
:1009C0000088042845D10020404908804048B0F9FB
:1009D0000000002811DA3E48B0F90050002D01DB7C
:1009E000284600E068424FF4E15100FB01F24FF469
:1009F0001671002000F078FF10E03548B0F9005083
:100A0000002D01DB284600E068424FF4E15100FB75
:100A100001F24FF41671012000F066FF4FF4C86236
:100A200034480188002000F0F9FF4FF4C8625110EB
:100A3000012000F0C5FF4FF4C8625110012000F002
:100A400091FF274A27A128A002F0F6FA244802F0D5
:100A50007EF929480088012829D1002026490880EC
:100A600047F2305401E0601E84B2002CFBDC1C4ACB
:100A700022A11DA002F0E0FA194802F068F9C8208E
:100A800002F0D2F8012080F3138800BF00BFBFF34B
:100A90004F8F1B48006800F4E0601A490843001DAE
:100AA00017490860BFF34F8F00BF00BFFEE775E432
:100AB000E20B0020E30B0020E40B0020C30B00201E
:100AC000C40B0020100C002000000020020C0020AD
:100AD000080C00200C0C0020060C0020040C002048
:100AE000FC0C0020310000006F766572666C616757
:100AF000000000000A0C00200E0C00203200000054
:100B00000CED00E00000FA05704700BFFEE700BFF3
:100B1000FEE700BFFEE700BFFEE770477047704783
:100B2000704700000CB500200190009076480068E6
:100B300040F480307449086000BF7348006800F4D6
:100B4000003000900198401C0190009818B901985D
:100B5000B0F5A04FF1D16C48006800F4003010B13E
:100B60000120009001E0002000900098012846D16B
:100B700065484030006840F080506349403108606B
:100B80006248006840F44040604908605E480830B0
:100B900000685D49083108600846006840F400407C
:100BA00008600846006840F4A05008605848091FD3
:100BB0000860081F006840F08070091F086000BFCF
:100BC0005148006800F000700028F9D040F205702C
:100BD000504908604C480830006820F003004A493A
:100BE000083108600846006840F00200086000BF55
:100BF00045480830006800F00C000828F8D10CBD0A
:100C000010B54548006840F47000434908603E480C
:100C1000006840F001003C49086000203A49083172
:100C20000860394800683D490840374908603C4839
:100C3000091D0860081F006820F48020091F086053
:100C4000002031490C310860FFF76CFF4FF0006065
:100C500031498039086010BD70B5002000220223A0
:100C600000240221284D08352D6805F00C0020B124
:100C7000042806D0082834D107E02A4D2A4E3560D2
:100C800033E02A4D284E35602FE01F4D2D1D2D6875
:100C9000C5F380541C4D2D1D2D6805F03F0154B146
:100CA000224DB5FBF1F5184E361D3668C6F3881691
:100CB00005FB06F209E01B4DB5FBF1F5124E361DA2
:100CC0003668C6F3881605FB06F20F4D2D1D2D68FC
:100CD000C5F301456D1C6B00B2FBF3F5124E356098
:100CE00003E0104D104E356000BF00BF064D0835C3
:100CF0002D68C5F303150E4E705D0B4D2D68C54074
:100D0000094E356070BD00000038024000700040A0
:100D100008544007003C024088ED00E0FFFFF6FE6B
:100D2000103000240024F4000400002000127A0097
:100D30000800002010B50A2001F076FF0421AA481F
:100D400003F04EFE68B10021A84804F0DFFF012047
:100D5000A7490870A74800684FF6FB710840A549ED
:100D60000860042004F093FE10BD10B50A2001F0C5
:100D70005BFF08219C4803F033FE68B100219E48C8
:100D800004F0C4FF01209D4908709A4800684FF69E
:100D9000F771084097490860082004F078FE10BDFC
:100DA00010B50A2001F040FF10218F4803F018FE13
:100DB00068B10021924804F0A9FF01209149087010
:100DC0008C4800684FF6EF7108408A49086010208F
:100DD00004F05DFE10BD10B50A2001F025FF2021B2
:100DE000814803F0FDFD01283BD1874800780128A8
:100DF00002D186A001F0ABFF83480078042830D1EF
:100E000082A001F0A4FF01207F4908707748008884
:100E100000F0010030B10021744804F077FF012098
:100E20007E4908707448008800F0010068B17C4871
:100E30000078012802D17B49087003E000216E4848
:100E400004F064FF0120784908706D48008800F0C4
:100E5000010030B100216A4804F058FF01207349B5
:100E60000870202004F013FE10BD00B585B00121EC
:100E7000102003F0F1FF3C20009000208DF80400CA
:100E800003208DF8050002208DF8070069465648BA
:100E900003F044FD0121880304F038F80221042006
:100EA00004F03FF90321042004F03BF90421084633
:100EB00004F037F90521042004F033F93C200290B6
:100EC00000208DF80C0008208DF80D0001208DF811
:100ED0000E0002A804F06AFD08208DF81000012021
:100EE0008DF8110003208DF8120001208DF81300F9
:100EF00004A803F022FC09208DF8100001208DF8D1
:100F0000110002208DF8120001208DF8130004A8B2
:100F100003F013FC0A208DF8100001208DF8110059
:100F20008DF812008DF8130004A803F006FC1720BA
:100F30008DF8100000208DF8110003208DF81200AC
:100F400001208DF8130004A803F0F7FB05B000BDE5
:100F50001CB50121182003F07FFF40F2FF700090C4
:100F600001208DF8040000208DF8060003208DF884
:100F7000050001208DF8070069462D4803F0CEFCDE
:100F8000012000908DF8040000208DF80600032059
:100F90008DF8050001208DF807006946124803F01E
:100FA000BDFC0120234908602349C1F89002214972
:100FB00008390860091D08601E49103908601D497C
:100FC0001C390860091D0860091D086000201B49C4
:100FD00008601849083108600120091F08600020D6
:100FE0001549C1F8A8021CBD0010024000000140D4
:100FF000AA020020003C014000040040A80200209A
:1010000000040140A9020020000000203A64696148
:101010006C6F67626F783D350D0A0000200000207C
:10102000AE0200202300002021000020220000202A
:10103000000C02409C8241420080414280024242B8
:101040000EB50121084603F050FF684604F009FE82
:101050000020ADF808002920ADF80000C72001905D
:101060000020ADF8020069464FF0804004F0C5FD55
:101070002021480605F01AFB0EBD7FB505460C463B
:101080000121082003F031FF0295ADF80440002053
:10109000ADF80600ADF80C0001A9964804F0ADFDCE
:1010A0000121944805F072FA01221146914805F099
:1010B00045FA01218F4804F029FE32208DF8000006
:1010C00003208DF8010001208DF802008DF8030047
:1010D000684603F032FB7FBD10B52DED028B012178
:1010E000844805F042FA012879D10121814805F0B0
:1010F0004DFA8148008800F0010020B17F48008847
:10110000401C7E4908807E480078401C7C4908705D
:101110007C48007820B17C480088401C7A490880CF
:101120007A48007800285AD075480078092190FB49
:10113000F1F201FB120009281ED2DFE800F0051EC3
:1011400037516A839CB5CE00072001F096F904461A
:10115000072101F031FA6E4880ED070A90ED070A89
:1011600010EE101A084608F04DFC41EC180B53EC39
:10117000182B68A006F090FCB7E0042001F07DF980
:101180000446042101F018FA614880ED040A90ED4C
:10119000040A10EE101A084608F034FC41EC180B53
:1011A00053EC182B5EA006F077FC9EE0052001F0C2
:1011B00064F90446052101F0FFF9554880ED050A60
:1011C00090ED050A10EE101A084608F01BFC41ECE1
:1011D000180B53EC182B55A006F05EFC85E085E05B
:1011E000062001F04AF90446062101F0E5F94848D5
:1011F00080ED060A90ED060A10EE101A084608F077
:1012000001FC41EC180B53EC182B4BA006F044FCEE
:101210006BE0032001F031F90446032101F0CCF921
:101220003B4880ED030A90ED030A10EE101A0846C1
:1012300008F0E8FB41EC180B53EC182B41A006F02A
:101240002BFC52E0002001F018F90446002101F0C7
:10125000B3F92F4880ED000A90ED000A10EE101A45
:10126000084608F0CFFB41EC180B53EC182B38A0C4
:1012700006F012FC39E0012001F0FFF804460121DC
:1012800001F09AF9224880ED010A90ED010A10EE72
:10129000101A084608F0B6FB41EC180B53EC182B5B
:1012A0002EA006F0F9FB20E0022001F0E6F804464B
:1012B000022101F081F9164880ED020A90ED020A40
:1012C00010EE101A084608F09DFB41EC180B53EC89
:1012D000182B25A006F0E0FB07E000200B49087062
:1012E0000121880704F012FD00BF00BFBDEC028B96
:1012F00010BD0000000C004000040040B2020020BD
:10130000BB000020C30B0020C40B0020C20B002038
:10131000640D00203A74306B3D252E31660D0A00B5
:101320003A74316B3D252E31660D0A003A74326BEA
:101330003D252E31660D0A003A74336B3D252E3162
:10134000660D0A003A74346B3D252E31660D0A0095
:101350003A74356B3D252E31660D0A003A74366BB2
:101360003D252E31660D0A003A74376B3D252E312E
:10137000660D0A001CB501210F2003F06DFD01224E
:101380000821FB4803F055FB4FF4807000900220C9
:101390008DF8040003208DF8050000208DF806006C
:1013A00001208DF807006946F14803F0B7FA0322DF
:1013B0000621F04803F03DFB02220721ED4803F02F
:1013C00038FBC020009002208DF8040003208DF827
:1013D000050000208DF8060001208DF80700694601
:1013E000E44803F09BFA4FF4C050009001208DF8C0
:1013F000040003208DF8050000208DF80600012070
:101400008DF807006946DA4803F088FA4FF4407017
:10141000009001208DF8040003208DF805000020C5
:101420008DF8060001208DF807006946D14803F0C9
:1014300075FA4FF44040009001208DF8040003201D
:101440008DF8050000208DF8060001208DF80700BA
:101450006946C94803F062FA1CBD30B589B004463C
:101460000D460121084603F051FDA8B2ADF8140065
:101470000020ADF8160006948DF81E00ADF81C0093
:1014800005A9BE4804F0B9FB0320B4FBF0F00290BC
:101490006020ADF800000120ADF802000220ADF898
:1014A0000C00C001ADF810000020ADF81200694634
:1014B000B24804F037FC0821B04804F0C0FD012117
:1014C000AE4804F005FC0121AC4805F04BF80122C0
:1014D0001146AA4805F032F819208DF820000020A6
:1014E0008DF8210001208DF822008DF8230008A836
:1014F00003F023F90121A14804F0F9FF00219F48DE
:1015000004F004FC09B030BD30B589B004460D4686
:101510000121022003F0E9FCA8B2ADF8140000207C
:10152000ADF8160006948DF81E00ADF81C0005A954
:10153000934804F062FB0320B4FBF0F002906020BB
:10154000ADF800000120ADF802000220ADF80C005B
:10155000C001ADF810000020ADF8120069468848BF
:1015600004F019FC0821864804F072FD012184482A
:1015700004F0AEFB0121824804F0F4FF0122114681
:101580007F4804F0DBFF1D208DF8200000208DF83F
:10159000210001208DF822008DF8230008A803F017
:1015A000CCF80121764804F0A2FF0021744804F031
:1015B000ADFB09B030BD30B589B004460D46012100
:1015C000022003F0A3FCA8B2ADF814000020ADF88F
:1015D000160006948DF81E00ADF81C0005A9694898
:1015E00004F00BFB0320B4FBF0F002906020ADF898
:1015F00000000120ADF802000220ADF80C00C0018F
:10160000ADF810000020ADF8120069465D4804F006
:1016100089FB08215B4804F012FD0121594804F0C0
:1016200057FB0121574804F09DFF01221146554800
:1016300004F084FF2C208DF8200000208DF821007C
:1016400002208DF8220001208DF8230008A803F065
:1016500074F801214B4804F04AFF0021494804F086
:1016600055FB09B030BD10B50121444804F07DFFA1
:1016700018B10121414804F089FF43480068401C2B
:10168000414908604148007805282AD2DFE800F087
:1016900086032A3464003D4880683B4909688842D3
:1016A00002D80220394908703948007838B13948E1
:1016B0003549096830F811003449488006E0364859
:1016C0003149096830F81100304948802F4948886D
:1016D00000EBD0714910294A51632C4840881146CB
:1016E000C86265E02948406827490968884202D8ED
:1016F0000320264908705BE024480069401E224907
:101700000968884202D800202049087020480078E3
:1017100058B11E4800691C490968401A401E1D49FD
:1017200031F81000194948800AE018480069164944
:101730000968401A401E184931F8100013494880C2
:101740001249488800EBD07149100C4A51630F4888
:1017500040881146C8622BE00C480069401E0A49C7
:101760000968884202D800200849087020E000007B
:101770000000024000080240000C0240000001404E
:101780000004004000040140BC000020280D00209F
:1017900099020020C800002068010020002047496D
:1017A0000860474908700021464804F0AFFA00BFBE
:1017B00000BF10BD10B50121434804F0D6FE18B19A
:1017C0000121414804F0E2FE40480068401C3F49C6
:1017D00008603F48007801285ED13E480078012823
:1017E00004D0022829D0032855D130E03A480078A7
:1017F00000EB4000394901EBC0003449096830F87A
:10180000110080103049383108603348007800EB0F
:101810004000324901EBC0002C49096830F8110042
:1018200029492C3108602B4880682849096888427A
:1018300002D80220274908702DE026484068234935
:101840000968884202D803202249087023E0214811
:101850000069401E1D490968884203D800201D49BF
:10186000087017E01C48007800EB40001B4901EBB2
:10187000C00118480069154A1268801A401E31F8E4
:10188000100011492C3108600846006880080E4994
:101890003831086000BF00BF10BD10B501211048ED
:1018A00004F063FE18B101210D4804F06FFE0D48ED
:1018B0000068401C0B49086010BD0000BC000020FF
:1018C000AF0200200000014000040040C0000020E2
:1018D000AE0200203C0D00209802002008020020EB
:1018E00000040140C400002070B505460E461446B1
:1018F000FA4805600020FA49C1F8B0020120F94910
:101900000870002C2DD0C82C0BD94F20F6498860C8
:10191000A4F15100486001200870F4480088488014
:1019200005E00420F0490870F04840894880EE48FE
:10193000457004610146488800EBD0714910EC4ABB
:101940005163E94840881146C8620121104604F0FD
:10195000DDF90120E749087000BFE648007800285B
:10196000FBD170BD70B506460C461546E2480660D0
:101970000020E249C1F8A4020120E1490870E148D1
:1019800090FBF4F0E0490860084600684008DE4932
:101990000C3108600121DC482C3804F0B7F9002034
:1019A000DA49086000BFD9480068A842FBD300208C
:1019B000D64908600021D4482C3804F0A7F970BD3E
:1019C00070B506460C461546D14806600020D14940
:1019D000C1F8B8020120D0490870CA4890FBF4F061
:1019E000CE490860084600684008CC4908310860C4
:1019F0000121CA482C3804F089F90020C849086040
:101A000000BFC7480068A842FBD30020C449086053
:101A10000021C2482C3804F079F970BD2DE9F0415D
:101A200005460C46164602270120B5490870BA49FA
:101A30000870BC490870072C11D2DFE804F01004CC
:101A400006080A0C0E0032240BE03C2409E0462470
:101A500007E0502405E05A2403E0642401E0502408
:101A600000BF00BFA4480560AA48C0F8BC520020CF
:101A7000A149091D0860A649091F0860A34908601B
:101A8000A74908609F4890FBF4F09F49086008460A
:101A9000006840089C490C31086001219A482C38A4
:101AA00004F034F9974890FBF4F09C49086008462C
:101AB00000684008994908310860012197482C388E
:101AC00004F024F91DE0701E90490968884209D28B
:101AD00000208E49086000218B482C3804F016F94C
:101AE000781EC7B2701E8E490968884209D200204C
:101AF0008B490860002189482C3804F007F9781ECA
:101B0000C7B2002FDFD1002086490870BDE8F08100
:101B10002DE9F04705460C4616460027B846B9465B
:101B2000012077490870072D29D2DFE805F0280445
:101B30000A10161C22004FF47A7500207A490870AA
:101B400023E040F2DC550120774908701DE04FF496
:101B5000FA6502207449087017E040F6B835032092
:101B60007149087011E04FF47A6504206E490870DD
:101B70000BE041F2941505206B49087005E040F632
:101B8000B83503206849087000BF00BF072C15D284
:101B9000DFE804F0140406080B0E1100C82410E05E
:101BA000FA240EE04FF496740BE04FF4AF7408E0A3
:101BB0004FF4C87405E04FF4E17402E04FF49674FA
:101BC00000BF00BF01204C490860584908705848C0
:101BD00004610B2056498860A4F10D004860002084
:101BE0004649C1F8A40270005249086000205249D9
:101BF000088067E0002144482C3804F087F800BFD3
:101C00004E4800780128FBD04D4800780128F7D0D5
:101C100001203949086000203C49086042480078AA
:101C200000EB4000474931F83000801036490C3154
:101C300008603D48007800EB4000424931F8300030
:101C40003149086001203A49087001212E482C389A
:101C500004F05CF800BF364800780028FBD1002172
:101C600029482C3804F052F80020234908602749FD
:101C700008602D48007800EB4000324931F8300010
:101C8000801021490C3108602748007800EB4000A3
:101C90002C4931F830001C490860012024490870A3
:101CA000012119482C3804F031F800BF2048007891
:101CB0000028FBD1002114482C3804F027F800201C
:101CC000124908601C4800881A490968884291D363
:101CD000002016490870BDE8F0870000AC024042C1
:101CE0000000404299020020280D0020C80000207A
:101CF00000000140AF020020A0024142000041422A
:101D00009A02002080841E002C040040C0000020A5
:101D1000BC824142008041429B0200202C040140D1
:101D2000C4000020B102002098020020AE02002072
:101D30003C0D0020B4020020B2020020E40C002080
:101D400023000020080200202DE9F04104460F4640
:101D500015460026CB48006840F00400C9490860D9
:101D6000C94804600020C949C1F8B002C8490870D8
:101D7000C84908704F20C8498860A5F151004860E3
:101D800001200870C54800884880084644700561F5
:101D9000488800EBD0714910C14A5163BE48408861
:101DA0001146C8620121104603F0B0FFBDE8F08182
:101DB0002DE9F04104460D4617460026B14800685B
:101DC00040F00800AF490860B64804600020B649FA
:101DD000C1F8A402B5490870B5490870B54890FB30
:101DE000F5F0B5490860084600688008B2490C3132
:101DF00008600121B0482C3803F088FFBDE8F0816D
:101E00002DE9F04104460D46174600269D4800681E
:101E100040F010009B490860A84804600020A849D1
:101E2000C1F8B802A7490870A7490870A14890FBFB
:101E3000F5F0A6490860084600688008A349083103
:101E400008600121A1482C3803F060FFBDE8F08153
:101E500010B508219E4802F0C3FD012821D11021B0
:101E60009B4802F0BDFD01281BD14FF47A724FF45C
:101E700016710020FFF776FD4FF416721146002010
:101E8000FFF79EFD4FF4FA524FF448710120FFF71F
:101E9000B7FF4FF4FA524FF448710120FFF788FF63
:101EA00071E008218A4802F09BFD98B9102188480A
:101EB00002F096FD70B94FF4FA524FF448710120C8
:101EC000FFF79EFF4FF4FA524FF448710120FFF7DD
:101ED0006FFF58E008217E4802F082FD60BB1021B0
:101EE0007B4802F07DFD012826D14FF4FA524FF4D1
:101EF0004871FFF75DFF00BF6D4800780028FBD0F8
:101F00004FF47A724FF416710020FFF72BFD4FF457
:101F1000167211460020FFF753FD4FF4FA524FF4AA
:101F200048710120FFF76CFF4FF4FA524FF44871EB
:101F30000120FFF73DFF26E00821654802F050FD33
:101F4000012820D11021624802F04AFDD8B94FF48F
:101F50007A724FF416710020FFF704FD4FF4C87237
:101F60004FF416710020FFF72BFD4FF4FA524FF497
:101F700048710120FFF744FF4FF4FA524FF44871C3
:101F80000120FFF715FF01205249087010BD10B560
:101F90000120514908604FF47A7000F045FE00209E
:101FA0004E49C1F8800210BD10B500BF404800780E
:101FB0000028FBD0444800780028F7D0042144488A
:101FC00002F00EFD012805D14FF4C8524FF41671EE
:101FD000FFF78AFC48F6A0424FF416710020FFF785
:101FE000B3FE00BF2B4800780028FBD000203C49FE
:101FF0000860012027490870FFF7C9FF022039490E
:10200000087010BD10B5002410E0012032490860AE
:102010004FF4C87000F008FE00203049C1F880027B
:102020004FF4C87000F000FE601CC4B2042CECDB5E
:1020300010BD10B5012028490860642000F0F4FDAF
:1020400000202649C1F88002642000F0EDFD012047
:1020500021490860642000F0E7FD00201F49C1F815
:102060008002642000F0E0FD01201B49086064202C
:1020700000F0DAFD00201949C1F88002642000F068
:10208000D3FD10BD003C0140AC0240420000404284
:1020900099020020AA020020280D002068010020DB
:1020A00000000140A0024142000041429A0200208B
:1020B000A802002080841E002C040040BC82414203
:1020C000008041429B020020A90200202C04014014
:1020D00000100240AC020020800242420000424256
:1020E000BC0000200000002000B59DB00121FD488B
:1020F00002F0B2FE0121080202F008FFFF20029068
:1021000003208DF80C0000208DF80F0002A9F6487E
:1021100002F004FC00200490F4480590F448069076
:10212000002007904FF440700890002009904FF471
:1021300080600A9040000B9080000C9040110D9040
:1021400040020E9000200F9001201090002011906E
:10215000129004A9E74803F0E9FA38208DF804004A
:1021600003208DF8050002208DF8060001208DF86F
:10217000070001A802F0E1FA01221021DD4803F076
:102180009CFB002013904FF4803014900020159099
:102190004FF4A060169013A804F04EFD0020179095
:1021A00001208DF8600000208DF861004FF0805014
:1021B00019904FF0C0601A9000201B9008208DF8F5
:1021C000700017A9C9484C3804F007FD0121C74821
:1021D0004C3804F028FE01231A460021C3484C382D
:1021E00004F081FD012302221946C0484C3804F056
:1021F0007AFD012303220221BC484C3804F073FD10
:10220000012304220321B9484C3804F06CFD01235A
:1022100005220421B5484C3804F065FD012306224F
:102220000521B2484C3804F05EFD01230722062147
:10223000AE484C3804F057FD012308220721AB4873
:102240004C3804F050FD0121A8484C3804F0F6FD4C
:102250000121A84803F0A4FA0121A4484C3804F055
:1022600002FDA2484C3804F09AFD1DB000BD10B527
:10227000A149A04803F03EFB38B100214FF0804057
:1022800003F044FD01209D4908709B49994803F0E3
:102290005BFB10BD00B58DB00121084602F0DCFDEE
:1022A0000121080202F032FE0F200B9003208DF86E
:1022B000300000208DF833000BA98B4802F02EFB74
:1022C0000121080202F077FE00214FF4807002F035
:1022D00072FE002007904FF4A0600A900020099041
:1022E0004FF48030089007A804F0A6FC002001906D
:1022F00001208DF8080000208DF809004FF0C06023
:1023000003900020059008208DF8180001A9774857
:102310004C3804F062FC012174484C3804F0A3FCF2
:102320000DB000BD10B504460523012221466F48BB
:102330004C3804F0D8FC6D484C3804F030FD00BF38
:1023400002216A484C3804F04BFE0028F8D0674858
:102350004C3804F060FD10BD2DE9F04107460C46F5
:102360000025002608E03846FFF7DCFF054405207D
:1023700000F05AFC701CC6B2A642F4DBB5FBF4F0C8
:1023800080B2BDE8F08170472DE9F04100250021C1
:102390006FE000221F2355E0D0B224E0544F07EB3A
:1023A000001737F811C0DFF84881471C08EB071702
:1023B00037F81170BC4514DD474607EB001737F8B6
:1023C0001160C446471C0CEB071737F811700CEB73
:1023D000001C2CF81170C446471C0CEB071727F89B
:1023E0001160471CF8B29842D8DB5F1EBBB2D8B26E
:1023F00024E03F4F07EB001737F811C0471EDFF806
:10240000F08008EB071737F81170BC4514DA47461F
:1024100007EB001737F81160471EC4460CEB07178F
:1024200037F811700CEB001C2CF81170471EC446D5
:102430000CEB071727F81160471EF8B29042D8DC62
:10244000571CBAB29A42A7DB082407E0284F07EBD3
:10245000041737F811703D44671CFCB2182CF5DBEB
:10246000C5F30F17DFF898C02CF8117000254F1C2A
:10247000B9B208298DDBBDE8F0812DE9F0410246B3
:10248000002600245F2566E0E1B224E0184800EB56
:10249000011030F812C0DFF85880481C08EB00101B
:1024A00030F81200844514DD404600EB011030F88E
:1024B0001270C446481C0CEB001030F812000CEBF4
:1024C000011C2CF81200C446481C0CEB001020F82C
:1024D0001270481CC1B2A942D8DB681E85B2E9B2AD
:1024E00035E0000001004000000002404C200140A7
:1024F000A41100201064024020800010C20B0020B4
:10250000B4170020734800EB011030F812C0481EC9
:10251000DFF8C08108EB001030F81200844514DAAF
:10252000404600EB011030F81270481EC4460CEB18
:10253000001030F812000CEB011C2CF81200481EA1
:10254000C4460CEB001020F81270481EC1B2A14224
:10255000D8DC601C84B2AC4296DB102307E05D48F7
:1025600000EB031030F812000644581CC3B2502B85
:10257000F5DBC6F38F10BDE8F08130B503460024CB
:10258000A3F11D00C2B2002A03DA40F6C4142046AB
:1025900030BD472A08DD472201EBC1004E4D05EB57
:1025A0000010B0F88E00F3E701EBC1004A4D05EBD7
:1025B000001030F81200EBE7F0B502460024472582
:1025C000242001EBC106454F07EB0616B6F88E60D6
:1025D000964202DD9FED420AF0BD01EBC1063F4F7E
:1025E00007EB06163688964202DAB3EE0C0AF3E7DA
:1025F00000236BE0661906EBD677C7F34F0001EBBB
:10260000C106364F07EB061636F81060964206D123
:1026100000F11D0600EE106AB8EEC00ADCE701EB1F
:10262000C1062E4F07EB061636F81060964234DAD4
:1026300001EBC10607EB0617461E37F816609642F7
:102640002BDD01EBC106254F07EB0617461E37F8B9
:10265000166001EBC107DFF884C00CEB071737F8F1
:102660001070F61B00EE106AB8EEC01A01EBC1063E
:10267000674607EB061636F81060961B00EE106AE8
:10268000B8EEC00AC0EE010A00F11D0600EE106AA5
:10269000B8EEC00A30EE600A9EE701EBC1060F4FAC
:1026A00007EB061636F81060964202DA461EB5B2FF
:1026B0000AE001EBC106094F07EB061636F8106079
:1026C000964201DD461CB4B25E1CB3B2072B91DB0F
:1026D00000BF81E7A41100203A070020BA020020C1
:1026E0000000D24210B540F22551964802F032FF68
:1026F000F8B1944802F06CFEC4B29348008800F42C
:102700000040B0B990480088802813DA00218F4833
:1027100003F0BCFA8C48008818B901218B4803F0FB
:10272000F5FA894801880088401C874A108088484B
:10273000445405E08448008840F400408249088001
:1027400010BD704710B588B004460121042002F086
:1027500083FB0121880402F0C8FB7A4802F01AFDCD
:1027600007220B217B4802F064F907220A217948ED
:1027700002F05FF94FF44060059002208DF81800D8
:102780008DF8190000208DF81A0001208DF81B002B
:1027900005A9704802F0C2F801940020ADF80800C5
:1027A000ADF80A00ADF80C00ADF810000C20ADF843
:1027B0000E0001A9634802F054FD0121614802F0B6
:1027C000D8FD012240F225515E4802F088FE272004
:1027D0008DF81C0002208DF81D008DF81E000120D0
:1027E0008DF81F0007A801F0A8FF42F2CF0140F2C8
:1027F000E730FFF7A6FF0020534908800021534827
:1028000003F084FA08B010BD0FB438B505A80090E5
:102810005148009A049905F02DF9002000904E4887
:1028200005F034FB85B200240DE000BF402145488F
:1028300002F07AFE0028F9D04748015D414802F0D5
:10284000C3FD601C84B2AC42EFDB38BC5DF814FB06
:1028500010B504463C48008800F4004070B10020E8
:1028600039490988C1F30E01394A505411463BA039
:1028700005F012F914B100203349088010BD70B57D
:10288000044600253048008800F4004058B100207C
:102890002D490988C1F30E012D4A50542146104696
:1028A00005F0BEFA0546284670BD2DE9F041044604
:1028B0000E4615460027002023490880FF2C0AD821
:1028C00000BF2048008800F040000028F9D01D49D2
:1028D000091D0C8003E0214620A0FFF795FFC6B13B
:1028E000BDB10FE00A2000F09FF91748008800F4FE
:1028F000004038B13046FFF7C2FF00B106E00020CB
:1029000011490880681E80B20500EBD100BF05B9EF
:1029100001273846BDE8F08110B501210B4803F0CE
:1029200024FE68B10848008840F400400649088049
:102930000121064803F02AFE0021044803F0E6F9CD
:1029400010BD000000480040C60B002000140040ED
:102950004818002000080240C81700202573000016
:1029600000B587B00121022002F076FA01210803A8
:1029700002F0CCFA3820059002208DF818000020D3
:102980008DF81A0003208DF8190001208DF81B0026
:1029900005A9704801F0C2FF052203216D4802F02D
:1029A00048F8052204216B4802F043F8052211463D
:1029B000684802F03EF80121080302F0FCFA002109
:1029C0004FF4805002F0F7FA4FF44040ADF80000A9
:1029D0004FF48270ADF802004FF40060ADF80400CF
:1029E0000220ADF806000120ADF808004002ADF865
:1029F0000A003820ADF80C000020ADF80E000720CA
:102A0000ADF810006946544803F0E8FE0121524831
:102A100003F0DEFF01205149086007B000BD2DE939
:102A2000F04104460D461027002604EB053086B21F
:102A300001204A490860022000F0AEF80020484911
:102A4000C1F89C021DE0012044491039086006F4D9
:102A5000004020B1012041490839086003E000200E
:102A60003E4908390860022000F096F800203B49F2
:102A7000103908604FF6FF7000EA4606022000F0A9
:102A80008BF83800A7F10107DDD101203349103957
:102A900008603349C1F89C02142000F07DF8BDE8BD
:102AA000F0811CB50121022002F0D6F9A820009087
:102AB00001208DF8040000208DF8060003208DF819
:102AC000050001208DF807006946224801F026FF25
:102AD0008021204801F09EFF20211E4801F09AFF2E
:102AE00008211C4801F098FF092140F6FF70FFF70C
:102AF00096FF0C2140F6FF70FFF791FF1CBD70B5EB
:102B000004460D460020154908602146124803F08E
:102B1000E0FF00BF0221104804F024F80028F9D09B
:102B200001200E49086070BD10B500200B490860F7
:102B30004AF2FF01084803F0CCFF00BF022106481B
:102B400004F010F80028F9D001200449086010BDF5
:102B50007047000000040240003001409C82404267
:102B60000080404210B504466FF0040001F032FED0
:102B7000E11704EB5171C1F3C701394A11701046D6
:102B8000007800EB4001C1EBC0104FF6FF7101EA85
:102B9000C0003449088010BD0146314A12784A43CA
:102BA0004FF0E0235A6100229A611A46126942F0FE
:102BB00001021A6100BF4FF0E022106900F001022B
:102BC0001AB100F48032002AF5D04FF0E0221269E9
:102BD00022F001024FF0E0231A6100229A6170474F
:102BE0000146204A12884A434FF0E0235A610022EE
:102BF0009A611A46126942F001021A6100BF4FF051
:102C0000E022106900F001021AB100F48032002ABB
:102C1000F5D04FF0E022126922F001024FF0E023DC
:102C20001A6100229A61704770B504464FF407702C
:102C300094FBF0F0C6B24FF4077094FBF0F100FB88
:102C4000114085B205E04FF40770FFF7C9FF701E11
:102C5000C6B2002EF7D115B12846FFF7C1FF70BDEF
:102C6000C80B0020CA0B0020014600BF704700BF00
:102C7000FE4A128802F04002002AF9D0C2B2FB4B91
:102C80009A80704710B588B004460121084602F0CA
:102C9000E3F80121102002F039F907220921F44854
:102CA00001F0C7FE07220A21F14801F0C2FE4FF4ED
:102CB000C060069002208DF81C008DF81D000020D9
:102CC0008DF81E0001208DF81F0006A9E84801F0CC
:102CD00025FE02940020ADF80C00ADF80E00ADF812
:102CE0001000ADF814000C20ADF8120002A9DF4866
:102CF00002F0B7FA0121DD4802F03BFB4021DB483E
:102D000002F01FFC012240F22551D84802F0E7FBF7
:102D100025208DF8040002208DF8050001208DF893
:102D200006008DF8070001A801F007FD08B010BDEE
:102D3000704710B504462146CC4802F045FB00BF61
:102D40004021CA4802F0F0FB0028F9D010BD10B5B0
:102D5000044603E02078FFF7ECFF641C207800288D
:102D6000F8D110BD70B50024002540F22551BF48B0
:102D700002F0F0FB00286ED0BC4802F029FBBD49F0
:102D8000BD4A128888540846BB490988405C3A28E5
:102D900006D10120B9490870B7480088B8490880B1
:102DA000B648007800287DD0B248B3490988405C15
:102DB0000A2877D1B0480088401EAE49085C0D282B
:102DC000F7D1AF480088C01CB0F5967F0ADBAC484D
:102DD0000088A0F2291084B2A9480088A0F2271028
:102DE00085B207E0A6480088C01C84B2A4480088C9
:102DF000401D85B29F48005D73281AD19D48405DF3
:102E0000332816D19F480078022805D103209E4917
:102E100008709C4908700CE09CA0FFF798FF4FF4E5
:102E20009671944805F05DF800209C49088092490D
:102E300008809048005D73281BD18E48405D39287A
:102E400017D190480078022806D109208E490870D1
:102E50008C4908700DE0D5E08CA0FFF778FF4FF4A7
:102E60009671844805F03DF800208C49088082491D
:102E700008808048005D73282AD17E48405D35284F
:102E800026D10520804908704FF49671794805F0E5
:102E900028F800208149088077490880C820FFF77A
:102EA000C3FE00E0A2E0012080F3138800BF00BF52
:102EB000BFF34F8F7A48006800F4E0607949084317
:102EC000001D77490860BFF34F8F00BF00BFFEE7CA
:102ED0006848005D732831D16648405D31282DD1A6
:102EE0000120684908707048008800F0010030B186
:102EF00000216D4802F00AFF01206C4908706C48FF
:102F0000008800F0010068B16A480078012802D109
:102F10006949087003E00021654802F0F7FE0120CE
:102F2000664908706648008800F0010030B1002151
:102F3000634802F0EBFE0120624908704D48005DD5
:102F4000732850D14B48405D30284CD120215E4839
:102F500001F046FD012803D15CA0FFF7F8FE42E036
:102F60005DA0FFF7F4FE0420464908704F48007842
:102F7000012803D05B480078012808D101214A4884
:102F800002F0C4FE002049490870564908704B48B9
:102F90000078012803D054480078012812D1454810
:102FA0000078012805D10020434908704F49087076
:102FB00003E001213E4802F0A9FE00203F490870CD
:102FC000494908703F480078012803D048480078F4
:102FD000012808D101213A4802F098FE0020394921
:102FE000087043490870002024490870224800886E
:102FF000401C2149088008460088B0F5967F01DB17
:103000000020088070BD10B504462146394802F002
:10301000DBF900BF4021374802F086FA0028F9D0DA
:1030200010BD10B5044603E02078FFF7ECFF641CE8
:1030300020780028F8D110BD2DE9F04105460F4653
:10304000144600263A223146761C62540020A055D0
:103050002946204604F039FF27A1204604F035FF19
:103060003946204604F031FF0BA147E00010014033
:1030700000000240C8180020DA0B0020D40B00200A
:10308000D60B002000000020FA0B00203A64696192
:103090006C6F67626F783D370D0A0000DC0B002013
:1030A0000CED00E00000FA0500000140E50C0020F6
:1030B00000040040AE020020E40C0020E60C0020DA
:1030C00000040140E70C0020001002403A646F6FDA
:1030D000723D310D0A0000003A646F6F723D300D91
:1030E0000A00000020000020210000202300002012
:1030F00022000020004C00403D000000204604F06B
:10310000E4FEBDE8F081F8B5002000900024002521
:10311000FB48B0F85220FBA1684604F0C9FCFA4A0B
:103120006946FAA0FFF788FFF748FFF710FEF4485A
:10313000B0F85420F3A1684604F0BAFCF24A69469C
:10314000F3A0FFF779FFF048FFF701FEEC48B0F875
:1031500056003C2190FBF1F6304606F0C4F884B2EC
:10316000E748B0F856003C2190FBF1F201FB120059
:1031700085B22246E3A1684604F09AFCE24A694619
:10318000E4A0FFF759FFE048FFF7E1FD2A46DDA183
:10319000684604F08DFCDC4A6946DFA0FFF74CFF6F
:1031A000D948FFF7D4FDF8BDF8B500200090002401
:1031B0000025D348B0F84620D2A1684604F078FC38
:1031C000D14A6946D5A0FFF737FFCF48FFF7BFFDCB
:1031D000CB48B0F84820CBA1684604F069FCCA4A45
:1031E0006946CFA0FFF728FFC748FFF7B0FDC448E6
:1031F000B0F84A003C2190FBF1F6304606F073F837
:1032000084B2BF48B0F84A003C2190FBF1F201FBC8
:10321000120085B22246BBA1684604F049FCBA4AB6
:103220006946C0A0FFF708FFB748FFF790FD2A46A0
:10323000B4A1684604F03CFCB34A6946BAA0FFF763
:10324000FBFEB148FFF783FDAD48B0F84C003C21D0
:1032500090FBF1F6304606F046F884B2A848B0F884
:103260004C003C2190FBF1F201FB120085B222469A
:10327000A4A1684604F01CFCA34A6946ABA0FFF772
:10328000DBFEA148FFF763FD2A469EA1684604F0D5
:103290000FFC9D4A6946A7A0FFF7CEFE9A48FFF7AC
:1032A00056FD9748B0F84E003C2190FBF1F63046B1
:1032B00006F019F884B29248B0F84E003C2190FB19
:1032C000F1F201FB120085B222468EA1684604F09D
:1032D000EFFB8D4A694699A0FFF7AEFE8A48FFF7DB
:1032E00036FD2A4687A1684604F0E2FB864A694615
:1032F00093A0FFF7A1FE8448FFF729FD8048B0F8AE
:1033000050003C2190FBF1F6304605F0ECFF84B212
:103310007B48B0F850003C2190FBF1F201FB120019
:1033200085B2224677A1684604F0C2FB764A694618
:1033300084A0FFF781FE7448FFF709FD2A4671A1BA
:10334000684604F0B5FB704A694680A0FFF774FE3A
:103350006D48FFF7FCFCF8BDF8B500200090002494
:1033600000256748428F67A1684604F0A1FB664AC2
:10337000694678A0FFF760FE6348FFF7E8FC604805
:10338000828F60A1684604F093FB5F4A694672A091
:10339000FFF752FE5C48FFF7DAFC5948C08F3C212A
:1033A00090FBF1F6304605F09EFF84B25448C08F82
:1033B0003C2190FBF1F201FB120085B2224651A1A3
:1033C000684604F075FB504A694664A0FFF734FE76
:1033D0004D48FFF7BCFC2A464AA1684604F068FB4A
:1033E000494A69465FA0FFF727FE4748FFF7AFFC51
:1033F0004348B0F840003C2190FBF1F6304605F020
:1034000072FF84B23E48B0F840003C2190FBF1F2DC
:1034100001FB120085B222463AA1684604F048FB3F
:10342000394A694651A0FFF707FE3748FFF78FFC7E
:103430002A4634A1684604F03BFB334A69464DA056
:10344000FFF7FAFD3048FFF782FC2D48B0F8420044
:103450003C2190FBF1F6304605F045FF84B2284848
:10346000B0F842003C2190FBF1F201FB120085B262
:10347000224624A1684604F01BFB234A69463FA06C
:10348000FFF7DAFD2048FFF762FC2A461DA16846D7
:1034900004F00EFB1C4A69463AA0FFF7CDFD1A481E
:1034A000FFF755FC1648B0F844003C2190FBF1F6BC
:1034B000304605F018FF84B21148B0F844003C21B2
:1034C00090FBF1F201FB120085B222460DA1684685
:1034D00004F0EEFA0C4A69462CA0FFF7ADFD0A484D
:1034E000FFF735FC2A4607A1684604F0E1FA064AD0
:1034F000694628A0FFF7A0FD0348FFF728FCF8BDA8
:10350000F419002025640000681A00206673590031
:1035100061735A00737A6D00737A73006674530096
:1035200061745400747A6D00747A73007464316D40
:1035300000000000746431730000000074786D00B6
:10354000747873007464326D000000007464327328
:103550000000000066334D0061334E0077337A6D12
:103560000000000077337A73000000007733643185
:103570006D00000077336431730000007733786D9D
:103580000000000077337873000000007733643266
:103590006D0000007733643273000000F8B500203E
:1035A000009000240025FE48C28DAFF2A8016846B5
:1035B00004F07EFAFB4A6946FBA0FFF73DFDF9489F
:1035C000FFF7C5FBF648028EAFF2C801684604F06B
:1035D0006FFAF44A6946F5A0FFF72EFDF148FFF7B0
:1035E000B6FBEF48408E3C2190FBF1F6304605F0EB
:1035F0007AFE84B2EA48408E3C2190FBF1F201FB56
:10360000120085B22246AFF20411684604F050FA67
:10361000E44A6946E6A0FFF70FFDE248FFF797FB93
:103620002A46AFF22011684604F042FADD4A6946A4
:10363000E1A0FFF701FDDB48FFF789FBD848808E4A
:103640003C2190FBF1F6304605F04DFE84B2D448A3
:10365000808E3C2190FBF1F201FB120085B22246E4
:10366000AFF26011684604F023FACE4A6946D4A04E
:10367000FFF7E2FCCB48FFF76AFB2A46AFF27C116A
:10368000684604F015FAC74A6946CFA0FFF7D4FC94
:10369000C448FFF75CFBC248C08E3C2190FBF1F6AA
:1036A000304605F020FE84B2BD48C08E3C2190FB20
:1036B000F1F201FB120085B22246AFF2B811684662
:1036C00004F0F6F9B74A6946C1A0FFF7B5FCB54862
:1036D000FFF73DFB2A46AFF2D411684604F0E8F943
:1036E000B04A6946BCA0FFF7A7FCAE48FFF72FFB26
:1036F000AB48008F3C2190FBF1F6304605F0F3FD1E
:1037000084B2A748008F3C2190FBF1F201FB12002C
:1037100085B22246AFF21421684604F0C9F9A14AE5
:103720006946AFA0FFF788FC9E48FFF710FB2A46CA
:10373000AFF23021684604F0BBF99A4A6946AAA064
:10374000FFF77AFC9748FFF702FBF8BDF8B50020B9
:103750000090002400259248428CAFF25821684620
:1037600004F0A6F98F4A6946A1A0FFF765FC8D48D1
:10377000FFF7EDFA8A48828CAFF27821684604F0B0
:1037800097F9884A69469BA0FFF756FC8548FFF7E2
:10379000DEFA8348C08C3C2190FBF1F6304605F000
:1037A000A2FD84B27E48C08C3C2190FBF1F201FB6B
:1037B000120085B22246AFF2B421684604F078F9CF
:1037C000784A69468CA0FFF737FC7648FFF7BFFAC6
:1037D0002A46AFF2D021684604F06AF9714A694678
:1037E00087A0FFF729FC6F48FFF7B1FA6C48008DFE
:1037F0003C2190FBF1F6304605F075FD84B2684837
:10380000008D3C2190FBF1F201FB120085B22246B3
:10381000AFF21031684604F04BF9624A69467AA06B
:10382000FFF70AFC5F48FFF792FA2A46AFF22C3105
:10383000684604F03DF95B4A694675A0FFF7FCFB5A
:103840005848FFF784FA5648408D3C2190FBF1F62A
:10385000304605F048FD84B25148408D3C2190FB34
:10386000F1F201FB120085B22246AFF268316846E0
:1038700004F01EF94B4A694667A0FFF7DDFB494893
:10388000FFF765FA2A46AFF28431684604F010F972
:10389000444A694662A0FFF7CFFB4248FFF757FA58
:1038A0003F48808D3C2190FBF1F6304605F01BFD32
:1038B00084B23B48808D3C2190FBF1F201FB120069
:1038C00085B22246AFF2C431684604F0F1F8354AB9
:1038D000694655A0FFF7B0FB3248FFF738FA2A4691
:1038E000AFF2E031684604F0E3F82E4A694650A092
:1038F000FFF7A2FB2B48FFF72AFAF8BDF8B5002026
:103900000090002400252648C28AAFF2084168468C
:1039100004F0CEF8234A694647A0FFF78DFB214803
:10392000FFF715FA1E48028BAFF22841684604F0F3
:10393000BFF81C4A694641A0FFF77EFB1948FFF714
:1039400006FA1748408B3C2190FBF1F6304605F013
:10395000CAFC84B21248408B3C2190FBF1F201FB7F
:10396000120085B22246AFF26441684604F0A0F826
:103970000C4A694632A0FFF75FFB0A48FFF7E7F9F8
:103980002A46AFF28041684604F092F8054A69463B
:103990002CA0FFF751FB0348FFF7D9F9004853E08B
:1039A000F4190020681A002066324700613248008E
:1039B00077327A6D0000000077327A7300000000E1
:1039C000773264316D00000077326431730000009B
:1039D0007732786D000000007732787300000000C5
:1039E000773264326D000000773264327300000079
:1039F000663141006131420077317A6D000000008C
:103A000077317A7300000000773164316D00000077
:103A100077316431730000007731786D0000000069
:103A20007731787300000000773164326D00000058
:103A30007731643273000000666A6D00616A6E005F
:103A40006A7A6D006A7A7300808B3C2190FBF1F6F4
:103A5000304605F048FC84B2FD48808B3C2190FB49
:103A6000F1F201FB120085B22246AFF268516846BE
:103A700004F01EF8F74A6946F7A0FFF7DDFAF548AB
:103A8000FFF765F92A46AFF28451684604F010F852
:103A9000F04A6946F2A0FFF7CFFAEE48FFF757F970
:103AA000EB48C08B3C2190FBF1F6304605F01BFC47
:103AB00084B2E748C08B3C2190FBF1F201FB12007D
:103AC00085B22246AFF2C451684603F0F1FFE14AE5
:103AD0006946E5A0FFF7B0FADE48FFF738F92A4655
:103AE000AFF2E051684603F0E3FFDA4A6946DFA02F
:103AF000FFF7A2FAD748FFF72AF9D548008C3C21F6
:103B000090FBF1F6304605F0EEFB84B2D048008C15
:103B10003C2190FBF1F201FB120085B22246AFF28C
:103B20001C61684603F0C4FFCA4A6946D0A0FFF78B
:103B300083FAC848FFF70BF92A46AFF238616846A6
:103B400003F0B6FFC34A6946CBA0FFF775FAC14838
:103B5000FFF7FDF8F8BDF8B500200090002400251F
:103B6000BB480289AFF26461684603F0A1FFB94A1D
:103B70006946C3A0FFF760FAB648FFF7E8F8B44813
:103B80004289AFF28061684603F092FFB14A69460C
:103B9000BCA0FFF751FAAF48FFF7D9F8AC488089CD
:103BA0003C2190FBF1F6304605F09DFB84B2A8481D
:103BB00080893C2190FBF1F201FB120085B2224684
:103BC000AFF2C061684603F073FFA24A6946AEA037
:103BD000FFF732FA9F48FFF7BAF82A46AFF2DC61E6
:103BE000684603F065FF9B4A6946A8A0FFF724FAE0
:103BF0009848FFF7ACF89648C0893C2190FBF1F655
:103C0000304605F070FB84B29148C0893C2190FB9E
:103C1000F1F201FB120085B22246AFF2187168463C
:103C200003F046FF8B4A694699A0FFF705FA8948D9
:103C3000FFF78DF82A46AFF23471684603F038FF7B
:103C4000844A694694A0FFF7F7F98248FFF77FF8A6
:103C50007F48008A3C2190FBF1F6304605F043FB9B
:103C600084B27B48008A3C2190FBF1F201FB1200F8
:103C700085B22246AFF27471684603F019FF754AA7
:103C8000694687A0FFF7D8F97248FFF760F82A461F
:103C9000AFF29071684603F00BFF6E4A694681A04F
:103CA000FFF7CAF96B48FFF752F86948408A3C2190
:103CB00090FBF1F6304605F016FB84B26448408A6A
:103CC0003C2190FBF1F201FB120085B22246AFF2DB
:103CD000CC71684603F0ECFE5E4A694672A0FFF7BD
:103CE000ABF95C48FFF733F82A46AFF2E871684653
:103CF00003F0DEFE574A69466DA0FFF79DF955486F
:103D0000FFF725F85248828AAFF60801684603F0AB
:103D1000CFFE504A694668A0FFF78EF94D48FFF77D
:103D200016F8F8BDF8B5002000900024002548489A
:103D30000288AFF63001684603F0BAFE454A69468C
:103D40005EA0FFF779F94348FFF701F84048428841
:103D5000AFF65001684603F0ABFE3E4A694658A0F4
:103D6000FFF76AF93B48FEF7F2FF394880883C21AB
:103D700090FBF1F6304605F0B6FA84B234488088FC
:103D80003C2190FBF1F201FB120085B22246AFF616
:103D90008C01684603F08CFE2E4A694649A0FFF765
:103DA0004BF92C48FEF7D3FF2A46AFF6A801684628
:103DB00003F07EFE274A694643A0FFF73DF92548F8
:103DC000FEF7C5FF2248C0883C2190FBF1F6304643
:103DD00005F089FA84B21E48C0883C2190FBF1F2BC
:103DE00001FB120085B22246AFF6E801684603F0F7
:103DF0005FFE184A694635A0FFF71EF91548FEF721
:103E0000A6FF2A46AFF60411684603F051FE114A98
:103E100069462FA0FFF710F90E48FEF798FFF8BD8E
:103E200030B5014600230022002466E07AB9087804
:103E3000302802DB0878392802DD08782D2849D19E
:103E4000012208782D284ED10124491C4BE041E085
:103E5000F4190020681A00206A64316D0000000027
:103E60006A643173000000006A786D006A7873003C
:103E70006A64326D000000006A6432730000000062
:103E80006668650061686600687A6D00687A73002C
:103E90006864316D00000000686431730000000048
:103EA00068786D00687873006864326D0000000007
:103EB0006864327300000000766A7600666C610008
:103EC000616C62006C7A6D006C7A73006C646D00DA
:103ED0006C647300012A06D10878302802DB087868
:103EE000392800DD0CE0012A06D10878303803EBD0
:103EF000830500EB450083B2491C0878002895D162
:103F000000BF0CB1584230BD1846FCE72DE9F04720
:103F100015E3F94801880088401CF74A1080F748EB
:103F2000405CF749087010460088B0F5967F02DBC8
:103F3000002011460880F348007800BBF248007862
:103F4000E8B1EF480078F149F14A128888540846F0
:103F5000EF490988405C0A280CD1ED480088401ED2
:103F6000EA49085C0D2805D10120E64908700020C7
:103F7000E5490870E6480088401CE5490880E248A9
:103F8000007848B9DE4800783A2805D10120DE499A
:103F900008700020DE490880DA4800780028B7D091
:103FA0004FF00008C14600250020D6490870D748C8
:103FB00003F06CFF00F0FF09D44F3C4608E0641C9E
:103FC000681CC5B2042D03DBD2A0FEF7C0FE02E0E0
:103FD00020783D28F3D100BF00202070661C00E04F
:103FE000641C20780A28FBD1002004F8010C394613
:103FF000C94803F027FF3146C84803F023FF1E21BC
:10400000C24803F06EFFC548FFF70AFFC4490880A5
:10401000C148807841383A2871D2DFE800F0F0EFEB
:10402000EEEDECEBEAE9E8E7E6E5E4E3E2E1E0DF28
:10403000DEDDDCDBDAD9D8D770707070D67031363F
:104040003B40474E71767B80871DC1C6CBF1D4D3F0
:1040500070D222BC27D12CD0B1480088B149088049
:104060006BE2AF480088B049088066E2AC4800883F
:10407000AE49088061E2AA480088AD4908805CE248
:10408000A7480088AB49088057E2A5480088A9499D
:10409000488052E2A2480088A64988804DE2A048A4
:1040A0000088A449C880FFF73DFE46E29C4800888E
:1040B000A0490881FFF736FE3FE297484078312853
:1040C0000CD032280FD0332812D0682815D194484C
:1040D000008898494881FFF725FE0EE09048008847
:1040E0009549088009E08E4800889449088004E0DA
:1040F0008B4800889249088000BF00BF1DE21BE288
:10410000874800888B49888117E28548008889495B
:10411000C88112E282480088864908820DE2804800
:10412000008884494882FFF716FD06E27A48407805
:10413000303808282DD2DFE800F004090E13181DCE
:104140002227774800787F49087022E07448007879
:104150007D4908701DE0724800787C49087018E0BD
:104160006F4800787A49087013E06D480078794903
:1041700008700EE06A4800787749087009E06848DE
:1041800000787649087004E0654800787449087042
:1041900000BF00BFD1E16248008866498882CCE157
:1041A0005F4800886349C882C7E15D48008861496B
:1041B0000883C2E15A4800885E494883BDE178E13E
:1041C00088E082E04CE046E01AE07AE16BE164E1ED
:1041D0005BE154E14DE146E13FE138E12FE128E1C7
:1041E00021E11BE115E10FE107E101E1FBE0F5E071
:1041F000EFE0E9E0E1E0DBE0D5E0CFE076E070E0A1
:10420000454840783038062823D2DFE800F003081C
:104210000D12181D424800885249088019E0404894
:1042200000885149088014E03D4800884F490880C3
:104230000FE03B48008800B24D49088009E038484B
:1042400000884C49088004E0354800884A490880C5
:1042500000BF00BF71E132480088364988836CE1B5
:104260002D484078303808282DD2DFE800F00409C6
:104270000E13181D22272A4800784049087022E0B2
:10428000274800783E4908701DE0254800783D49E0
:10429000087018E0224800783B49087013E0204875
:1042A00000783A4908700EE01D48007838490870D7
:1042B00009E01B4800783749087004E01848007886
:1042C0003549087000BF00BF37E11548008819491B
:1042D000C88332E11248008816490884FFF70EFBB4
:1042E0002BE10F4800881349488426E10C480088D8
:1042F0001049888421E10000DC0B0020C818002050
:10430000D90B0020D30B0020D80B0020581A002016
:10431000F80B002045727200160C00201B0C0020C8
:10432000200C0020FC0B0020FE0B0020000C0020C5
:104330000E0C0020F4190020120C0020140C002098
:10434000100C0020E50B0020DE0B0020DF0B00200E
:10435000E00B0020E10B0020E20B0020E30B00202B
:10436000E40B0020020C0020040C0020060C0020AE
:10437000080C00200A0C00200C0C0020E60B00208A
:10438000E70B0020E80B0020E90B0020EA0B0020DF
:10439000EB0B0020EC0B0020ED0B0020C148008847
:1043A000C149C884C9E0BF480088BF490885C4E046
:1043B000BC480088BC494885BFE0BA480088BA4973
:1043C0008885FFF7C3F9B8E0B6480088B649C885C4
:1043D000B3E0B4480088B4490886AEE0B14800882C
:1043E000B1494886A9E0AF480088AF498886A4E073
:1043F000AC480088AC49C8869FE0AA480088AA4912
:104400000887FFF7CBF898E0A6480088A6494887B8
:1044100093E0A4480088A44988878EE0A1480088DA
:10442000A149C88789E09F4800889F49A1F84000BA
:1044300083E09C4800889C49A1F842007DE09948AF
:1044400000889949A1F84400FEF786FF75E0954879
:1044500000889549A1F846006FE09248008892498B
:10446000A1F8480069E08F4800888F49A1F84A0008
:1044700063E08C4800888C49A1F84C005DE08948D5
:1044800000888949A1F84E0057E08648008886498F
:10449000A1F85000FEF788FE4FE08248008882496C
:1044A000A1F8520049E07F4800887F49A1F85400F4
:1044B00043E07C4800887C49A1F85600FEF723FEC3
:1044C0003BE07A4840783038092833D2DFE800F002
:1044D000050A0F14191E23282D007248007874490C
:1044E000087027E06F4800787249087022E06D4834
:1044F0000078714908701DE06A4800786F490870BB
:1045000018E0684800786E49087013E06548007844
:104510006C4908700EE0634800786B49087009E048
:10452000604800786949087004E05E48007868498E
:10453000087000BF00BF00E000BF00BF00BF6548BB
:1045400000886549098888427FF4E3ACBDE8F087BC
:1045500070B505460E4600240CE000BF40215F48C0
:1045600000F0E2FF0028F9D0295D5C4800F02CFF44
:10457000601CC4B2B442F0DB00BF4021574800F0D9
:10458000D3FF0028F9D070BD2DE9F34F83B00F465B
:1045900000250026AB46A846002002900190504816
:1045A000007800286AD000204D49087000BF4D48AF
:1045B00003F06CFC00F0FF0B00BF04E04948805D95
:1045C0000544701CC6B2ABF10400B042F6DCFF201B
:1045D00095FBF0F100FB1155E843451CEDB22A466E
:1045E00041A102A803F064FA3E4830440088ADF8C7
:1045F000040001A902A803F097FC002838D1DFF8D5
:10460000E4903D21484603F001FC20B10A214846D0
:1046100003F0FCFB18B9022005B0BDE8F08F314C67
:1046200004E0641C08F1010000F0FF0820783D2838
:10463000F7D1B8F1140F01DB0220EDE70020207064
:1046400004F1010A00E0641C20780A28FBD1002054
:1046500004F8030C4946039803F0F4FB514638462E
:1046600003F0F0FB1E211F4803F03BFC0020D3E7C2
:104670001E211C4803F035FC0220CDE70120CBE7CA
:1046800010B5FFF74FFBFFF766FAFFF737F9FFF7B3
:104690005DF8FEF783FFFEF75FFEFEF785FDFEF790
:1046A00032FD10BD200C0020F4190020160C002053
:1046B000EE0B0020EF0B0020F00B0020F10B002090
:1046C000F20B0020F30B0020F40B0020F50B002070
:1046D000F60B0020DC0B0020DA0B0020001001405C
:1046E000D30B0020581A002025303278000000003B
:1046F0000948804709480047FEE7FEE7FEE7FEE776
:10470000FEE7FEE7FEE7FEE7FEE7FEE704480549B1
:10471000054A064B70470000010C01088901010899
:10472000F01D0020F0230020F01F0020F01F0020CB
:1047300032490143324A1160704770B500210023AD
:104740000F22C4781CB32E4C246804F4E064C4F532
:10475000E064C4F30721C1F10404E3B20A414478E0
:104760009C40E1B28478144021430C07210E254C73
:1047700005786155047804F01F050124AC400578E4
:104780006D11AD0005F1E025C5F8004109E00478A0
:1047900004F01F050124AC401B4D0678761145F846
:1047A000264070BD194A0A400243154B1B1F1A6070
:1047B000704739B1124A121D12680243104B1B1D7B
:1047C0001A6006E00E4A121D126882430C4B1B1D34
:1047D0001A607047042808D14FF0E021096941F0C0
:1047E00004014FF0E022116107E04FF0E021096978
:1047F00021F004014FF0E022116170470000FA053A
:104800000CED00E000E400E080E100E080FFFF1F2D
:1048100010B504469848844208D10121084600F0AA
:1048200086FB0021012000F082FB76E09348844261
:1048300008D10121022000F07AFB0021022000F0C3
:1048400076FB6AE08E48844208D10121042000F002
:104850006EFB0021042000F06AFB5EE08948844280
:1048600008D10121082000F062FB0021082000F09F
:104870005EFB52E08448844208D10121102000F000
:1048800056FB0021102000F052FB46E07F48844296
:1048900008D10121202000F04AFB0021202000F057
:1048A00046FB3AE07A48844208D10121402000F0DA
:1048B0003EFB0021402000F03AFB2EE07548844288
:1048C00008D10121802000F032FB0021802000F07F
:1048D0002EFB22E07048844208D10121801500F0AF
:1048E00026FB0021A01500F022FB16E06B48844255
:1048F00008D10121401500F01AFB0021601500F0DD
:1049000016FB0AE06648844207D10121001500F039
:104910000EFB0021201500F00AFB10BDF0B50A4681
:1049200000210023002400BF3DE0012505FA01F32A
:10493000156805EA03049C4234D105684F0003263C
:10494000BE40B543056015794E00B5400668354355
:1049500005601579012D02D01579022D16D18568D3
:104960004F000326BE40B543856055794E00B540E3
:10497000866835438560456801268E40B5434560AD
:10498000456896798E40B6B235434560C5684F009C
:104990000326BE40B543C560D5794E00B540C66814
:1049A0003543C560491C1029BFD3F0BD4FF6FF71D8
:1049B00001600021017141718171C171704708B5B9
:1049C0004FF480320092009A0A430092009AC2612A
:1049D000C161009AC261C2690092C269009208BDB9
:1049E0000246002013690B400BB1012000E00020BB
:1049F00070470146086980B270470246002053693B
:104A00000B400BB1012000E00020704701464869CF
:104A100080B2704701837047418370470AB10183B8
:104A200000E0418370474161704742694A404261FA
:104A30007047F0B5002300244D07ED0E02FA05F390
:104A4000CE1000F1200555F826504E07F70E0F2620
:104A5000BE40B543CF1000F1200646F82750CE10D7
:104A600000F1200555F8265045EA0304CE1000F168
:104A7000200545F82640F0BD000002400004024039
:104A800000080240000C02400010024000140240E6
:104A900000180240001C0240002002400024024096
:104AA00000280240F948006840F00100F74908601A
:104AB0000020F64908310860F4480068F4490840CD
:104AC000F2490860F348091D0860F348EF49843152
:104AD0000860F0481038091D0860EC48006820F4B0
:104AE0008020EA4908600020E8490C310860E74965
:104AF0008C31086070470021E44A921C1170114605
:104B00000870704710B501460022002300204A11AA
:104B1000012A02D1DD4C236808E0022A03D1DB4CD4
:104B20007034236802E0D94C7434236801F01F020A
:104B3000012494401C400CB1012000E0002010BD75
:104B400038B5002000900024002500BF3120FFF779
:104B5000D9FF05460098401C00900098B0F5A04F82
:104B600001D0002DF2D03120FFF7CCFF08B1012495
:104B700000E00024204638BD01460020C34A1068EA
:104B800020F0F80040EAC10010607047C349086097
:104B900070470021BD4A703211701170012802D097
:104BA00004280AD104E00121B84A7032117005E0EE
:104BB0000521B64A7032117000E000BF00BF704797
:104BC000B7490860704770B5049C41EA8215012618
:104BD000C6EB530645EA0645054345EA0465AB4E78
:104BE000361D356070BDAD4908667047820142EAE6
:104BF0000172A64B84331A607047A84988667047D3
:104C000010B5830143EA016343EA02739F4C883481
:104C1000236010BDA14908677047A049C864704768
:104C200002460020994B0833186820F0EC6042EAF5
:104C300001031843954B0833186070470246002063
:104C4000924B0833186820F0784042EA0103184379
:104C50008E4B083318607047014600208B4A08329B
:104C6000106820F003000843106070478748083040
:104C7000006800F00C00704701460020834A0832AB
:104C8000106820F0F00008431060704701460020D3
:104C90007E4A0832106820F4E050084310607047E4
:104CA00001460020794A0832106820F4604040EA4A
:104CB000C10010607047F0B50021002200240225D9
:104CC00000260223714F08373F6807F00C0121B11D
:104CD000042905D0082937D105E0724F076036E076
:104CE000714F076033E0694F3F1D3F68C7F380563F
:104CF000664F3F1D3F6807F03F036EB16A4FB7FB39
:104D0000F3F7DFF888C10CF1040CDCF800C0CCF339
:104D1000881C07FB0CF40CE0624FB7FBF3F7DFF8DD
:104D20006CC10CF1040CDCF800C0CCF3881C07FB50
:104D30000CF4564F3F1D3F68C7F301477F1C7D00B1
:104D4000B4FBF5F7076002E0564F076000BF00BFF5
:104D50004E4F08373F6807F0F0010909534F7A5C5E
:104D60000768D7404760494F08373F6807F4E0516C
:104D7000890A4E4F7A5C4768D7408760434F0837AF
:104D80003F6807F46041490B484F7A5C4768D74059
:104D9000C760F0BD002100F44072B2F5407F0AD137
:104DA0003A4A0832116821F4F811414A024011438D
:104DB000364A08321160354A70321268C0F30B036C
:104DC0001A43324B70331A607047354944390860D2
:104DD000704733494039086070473649086070476A
:104DE00001460020294A8C32106820F01F004A1E1C
:104DF0001043264A8C321060704701460020234A37
:104E00008C32106820F4F8504A1E40EA02201F4AF3
:104E10008C3210607047014600201C4A8C321068AA
:104E200020F4401008431060704701460020174AE4
:104E30008C32106820F4400008431060704701462F
:104E40000020124A8C32106820F440300843106071
:104E5000704719490860704739B10C4A30321268FE
:104E600002430A4B30331A6006E0084A30321268B7
:104E70008243064B30331A607047F9B1034A34322B
:104E800012680243014B34331A601CE000380240C0
:104E9000FFFFF6EA103000240030002000004742F7
:104EA000800E47420024F40000127A00E80C002033
:104EB000FFFCFF0F5C014742E01147428F4A126836
:104EC00082438E4B1A60704739B18C4A121D1268AA
:104ED00002438A4B1B1D1A6006E0884A121D1268A5
:104EE0008243864B1B1D1A60704739B1834A0C32CE
:104EF00012680243814B0C331A6006E07F4A0C3281
:104F0000126882437D4B0C331A60704739B17B4A7B
:104F1000103212680243794B10331A6006E0774A68
:104F2000103212688243754B10331A60704739B1E2
:104F3000724A243A12680243704B243B1A6006E01E
:104F40006E4A243A126882436C4B243B1A607047C5
:104F500039B16A4A203A12680243684B203B1A6012
:104F600006E0664A203A12688243644B203B1A608E
:104F7000704739B1614A1C3A126802435F4B1C3BCF
:104F80001A6006E05D4A1C3A126882435B4B1C3B88
:104F90001A60704739B1594A143A12680243574BA4
:104FA000143B1A6006E0554A143A12688243534B88
:104FB000143B1A60704739B1504A103A12680243E4
:104FC0004E4B103B1A6006E04C4A103A126882437E
:104FD0004A4B103B1A60704739B1484A1C3212687C
:104FE0000243464B1C331A6006E0444A1C321268E6
:104FF0008243424B1C331A60704739B13F4A20321A
:10500000126802433D4B20331A6006E03B4A2032CF
:1050100012688243394B20331A60704739B1374ADE
:10502000243212680243354B24331A6006E0334AB7
:10503000243212688243314B24331A60704739B1ED
:105040002E4A2C32126802432C4B2C331A6006E095
:105050002A4A2C3212688243284B2C331A6070473C
:1050600039B1264A303212680243244B30331A6079
:1050700006E0224A303212688243204B30331A60F5
:105080007047012808D11D493C31096841F00801E9
:105090001A4A3C32116007E018493C31096821F096
:1050A0000801164A3C321160704739B1134A273A59
:1050B00012780243114B273B1A7006E00F4A273A39
:1050C000127882430D4B273B1A7070470B484030D3
:1050D000006840F08070094940310860704701461F
:1050E0000020064A283A12680A400AB1012000E06E
:1050F0000020704701492639087070473438024053
:1051000010B501218803FFF756FF00214FF48040BE
:10511000FFF751FF10BD1C49086070471B4908622A
:10512000704730B500228B071C0F0F2303FA04F2DF
:10513000154B08338C1053F824309343124C083429
:105140008D1044F8253023468C1053F824308C07FA
:10515000240F00FA04F423430B4C08348D1044F858
:10516000253030BD0949DC310860704708490860C6
:105170007047002004492031096801F4807109B1A9
:10518000012000E000207047003801400000274265
:105190000004274210B50446FA48844208D1012190
:1051A0001020FFF708FF00211020FFF704FF57E051
:1051B000F548844209D101214804FFF7EBFE0021A4
:1051C0004FF40030FFF7E6FE4AE0F048844209D190
:1051D00001218804FFF7DEFE00214FF48020FFF755
:1051E000D9FE3DE0EA48844209D10121C804FFF715
:1051F000D1FE00214FF40020FFF7CCFE30E0E5485F
:10520000844209D101210805FFF7C4FE00214FF4B3
:105210008010FFF7BFFE23E0DF48844208D1012160
:105220002020FFF7C8FE00212020FFF7C4FE17E072
:10523000DA48844209D101218807FFF7ABFE00213B
:105240004FF08040FFF7A6FE0AE0D548844207D120
:1052500001214005FFF79EFE00216005FFF79AFE41
:1052600010BD2DE9FF4705460E460024A14600BFAC
:10527000A046B08900B100BF2C8A24F44054F088C5
:1052800004432C82AC8941F20C608443B08831899C
:105290000843718908430443AC81AC8A24F4407408
:1052A000B0890443AC826846FFF705FDB5488542E6
:1052B00002D0B948854202D1DDF80C9001E0DDF85A
:1052C0000890A88900F4004040B109EBC90000EB48
:1052D000091031684900B0FBF1F707E009EBC9009C
:1052E00000EB091031688900B0FBF1F76420B7FBCF
:1052F000F0F004012009642101FB1078A88900F472
:10530000004040B1322000EBC800B0FBF1F000F0EB
:105310000700044308E0322000EB08106421B0FBD2
:10532000F1F000F00F0004432C81BDE8FF874FF43B
:105330001651016000218180C18001810C214181D1
:1053400000218181704710B502460020108A20F4A8
:1053500070600B884C8823438C882343CC8823437C
:105360001843108210BD0021018041808180C180DE
:10537000704721B1828942F40052828104E082891F
:105380004DF6FF731A4082817047028B02F47F4210
:105390000283028B0A430283704721B1828942F45F
:1053A0000042828103E08289C2F30E02828170474B
:1053B00021B1828A42F40062828204E0828A4FF242
:1053C000FF731A4082827047C1F3080282807047DF
:1053D00001468888C0F308007047028A4FF6F073D0
:1053E0001A400282028A0A430282704721B18289EE
:1053F00042F00202828104E082894FF6FD731A4076
:105400008281704782894FF2FF731A4082818289BC
:105410000A4382817047028A4FF6DF731A40028284
:10542000028A0A430282704721B1028A42F4804212
:10543000028204E0028A4BF6FF731A400282704730
:10544000818941F001018181704721B1828A42F056
:105450000802828204E0828A4FF6F7731A40828241
:105460007047028BD2B20283028B42EA012202838E
:10547000704721B1828A42F02002828204E0828A4F
:105480004FF6DF731A408282704721B1828A42F060
:105490001002828204E0828A4FF6EF731A40828201
:1054A0007047828A4FF6FB731A408282828A0A43CF
:1054B0008282704721B1828A42F00202828204E035
:1054C000828A4FF6FD731A40828270471AB1838A2E
:1054D0000B43838202E0838A8B4383827047F0B55B
:1054E0000346002400260025002040F66A17B94232
:1054F00000D100BF1846C1F3421401F01F06012776
:1055000007FA06F5012C01D10C3004E0022C01D180
:10551000103000E014301AB107682F43076002E032
:105520000768AF430760F0BD02460020B1F5007F79
:1055300000D100BF13880B400BB1012000E0002018
:10554000704701F40072B2F5007F00D100BFCA437A
:105550000280704770B50246002400230025002019
:1055600040F66A16B14200D100BFC1F3421501F006
:105570001F03012606FA03F3012D13D19689334048
:1055800017E00000001001400044004000480040C7
:10559000004C0040005000400014014000780040E2
:1055A000007C0040022D02D1168A334001E0968A29
:1055B00033400C12012606FA04F41688344013B165
:1055C0000CB1012000E0002070BD10B500220023C6
:1055D00040F66A14A14200D100BF0A12012494408F
:1055E000A3B2DC43048010BD016821F00101016019
:1055F0000021016041608160C16001612121416140
:10560000DB49884204D13D21D94A103A91608CE0AF
:10561000D7491831884205D14FF47461D44A103A01
:10562000916082E0D2493031884205D14FF4741143
:10563000CF4A103A916078E0CD494831884205D18F
:105640004FF07461CA4A103A91606EE0C849603107
:10565000884204D1C749C64A103AD16065E0C449BE
:105660007831884204D1C449C14A103AD1605CE023
:10567000BF499031884204D1C049BD4A103AD16037
:1056800053E0BB49A831884205D14FF03D51B84A9B
:10569000103AD16049E0BA49884204D13D21B84A64
:1056A000083A116041E0B6491831884205D14FF4FB
:1056B0007461B34A083A116037E0B1493031884229
:1056C00005D14FF47411AE4A083A11602DE0AC498F
:1056D0004831884205D14FF07461A94A083A1160F7
:1056E00023E0A7496031884204D1A249A44A121F8D
:1056F00011601AE0A2497831884204D19E49A04A3B
:10570000121F116011E09E499031884204D19B49DB
:105710009B4A121F116008E09949A831884204D1C0
:105720004FF03D51964A121F1160704710B500228C
:105730000268944B1A40CC680B6823434C6923439E
:105740008C692343CC6923430C6A23434C6A23436B
:105750008C6A23434C6B23438C6B23431A430260B4
:10576000426922F00702D1E90B3423431A43426114
:105770000B6943604B6883608B68C36010BD002178
:10578000016041608160C160016141618161C1610D
:10579000016241628162C16201634163816370475A
:1057A00021B1026842F00102026003E0026822F0C7
:1057B00001020260704721B1026842F400420260B7
:1057C00003E0026822F400420260704721B10268DF
:1057D00042F02002026003E0026822F02002026030
:1057E0007047416070470146486880B2704722B1F7
:1057F000036843F40023036003E0036823F40023F9
:1058000003600161704721B1026842F480220260A6
:1058100003E0026822F48022026070470AB101614D
:1058200000E0C1607047014600200A6802F40022CF
:105830000AB1012000E000207047014600200A68FC
:1058400002F001020AB1012000E000207047014689
:1058500000204A6902F03800704730B503460A4616
:1058600000200024464DAB4202D24149103901E0EC
:105870004349103902F000550DB14C6800E00C6846
:10588000414D2C4004EA02050DB1012000E000204A
:1058900030BD02463A4B9A4202D23548103801E0F8
:1058A0003748103801F000531BB1374B0B40C36031
:1058B00002E0354B0B408360704710B501F0800368
:1058C0004BB122B1436943F08003436103E0436974
:1058D00023F08003436180290BD02AB1036801F0D3
:1058E0001E042343036004E0036801F01E04A34385
:1058F000036010BD70B50246002000240025204E34
:10590000B24202D21A4B103B01E01D4B103B1F4E1E
:105910000E4036B11E2606EAD124166806EA0405B2
:1059200002E0566906F0800501F000560EB15C6891
:1059300000E01C68144E344004EA010616B10DB1B3
:10594000012000E0002070BD02460D4B9A4202D2B9
:105950000748103801E00A48103801F000531BB125
:10596000094B0B40C36002E0074B0B40836070475C
:10597000106002403D000020400F002000003D204C
:10598000106402403F801CF07D0F7D0F3C0F3C0FE8
:10599000002041490860091D0860091D0860091DB3
:1059A00008603E483C4914310860704700213A497C
:1059B0008279002A3AD00A46126803689A430B4655
:1059C0001A600A1D126803689A430B1D1A60027957
:1059D00011440A6803681A430A602F4A08321268A1
:1059E00003689A432C4B08331A601A1D1268036827
:1059F0009A43294B0C331A604279102A0ED11A1F90
:105A0000126803681A43244B08331A601A1D12687F
:105A100003681A43204B0C331A600DE01E4942798B
:105A200011440A6803681A430A6005E002791144C8
:105A30000A6803689A430A60704700210160017197
:105A40000C2141710021817170471349103109689F
:105A50000143114A103211607047014600200E4A7E
:105A6000143212680A400AB1012000E00020704799
:105A7000094914310860704701460020064A143273
:105A800012680A400AB1012000E000207047024974
:105A90001431086070470000003C0140FFFF7F00A8
:105AA00010B50446FE48844208D101210846FFF79C
:105AB00082FA00210120FFF77EFA9DE0B4F1804FC9
:105AC00008D101210846FFF765FA00210120FFF700
:105AD00061FA91E0F348844208D101210220FFF7E6
