:020000040800F2
:10000000F0230020F54D0008BD0D0008BF0D0008CD
:10001000C30D0008C70D0008CB0D0008000000004C
:10002000000000000000000000000000CF0D0008EC
:10003000D10D000800000000D30D0008D50D000808
:100040000F4E00080F4E00080F4E00080F4E00081C
:100050000F4E00080F4E00080F4E00080F4E00080C
:10006000E90F00081F100008551000080F4E000887
:100070000F4E00080F4E00080F4E00080F4E0008EC
:100080000F4E0008E53200080F4E00080F4E000822
:100090000F4E00080F4E00080F4E00088B1000088E
:1000A0000F4E0008431B00080F4E00080F4E0008BB
:1000B0000F4E0008911C00080F4E00080F4E00085C
:1000C0000F4E00080F4E00080F4E00080F4E00089C
:1000D0000F4E0008F73300080F4E0008092C0008E7
:1000E0000F4E00080F4E00080F4E00080F4E00087C
:1000F000771D00080F4E00080F4E00080F4E000835
:100100000F4E00080F4E0008A51300080F4E000800
:100110000F4E00080F4E00080F4E00083D2E00083D
:10012000932700080F4E00080F4E00080F4E0008DE
:100130000F4E00080F4E00080F4E00080F4E00082B
:100140000F4E00080F4E00080F4E00080F4E00081B
:100150000F4E00080F4E00080F4E00080F4E00080B
:100160000F4E00080F4E00080F4E00080F4E0008FB
:100170000F4E00080F4E00080F4E00080F4E0008EB
:100180000F4E00080F4E000800F002F800F0B6F81D
:100190000AA090E8000C82448344AAF10107DA45E2
:1001A00001D100F0ABF8AFF2090EBAE80F0013F07E
:1001B000010F18BFFB1A43F001031847F8A2000013
:1001C00018A3000010F8013B0A4413F0030408BF11
:1001D00010F8014B1D1108BF10F8015B641E05D01B
:1001E00010F8016B641E01F8016BF9D1002D15D0D8
:1001F00010F8014B03F00C030C2BA1EB04040ABF15
:1002000010F8013BA4EB8314A4EB032405F10103D4
:1002100014F8016B5B1E01F8016BF9D5914238BFF0
:1002200010F8013BD1D3704700230024002500269D
:10023000103A28BF78C1FBD8520728BF30C148BF49
:100240000B6070476E2908F0BC83702908F0758137
:1002500066290AF0C18065290AF0BE8067290AF084
:10026000BB806129AFF3008003681B0A28BF41F0FF
:100270008001692908F0E880642908F0E580752983
:1002800008F0E2806F2908F0BD86782908F04181E6
:10029000E92908F05986E42908F05686F52908F07E
:1002A0005386EF2908F0BA86F82908F040810368E0
:1002B000DB0928BF41F08001632908F0C885732954
:1002C00008F0CD85E32908F04787F32908F04C872B
:1002D000002070471FB50AF07AF808F0A9FE040064
:1002E0000020002109F092FC401C606000200021E9
:1002F00009F076FCE0601FBD10B510BD08F0CCFF22
:100300001146FFF7E7FF00F009F808F0F3FF03B428
:10031000FFF7F2FF03BC02F039FF00002DED048B64
:100320004FF4A06004F086FD00F003FFA82002F067
:10033000ABFE4FF4165002F042FF00F06DFF01F0EB
:1003400087FA292140F69F7001F0F5FA292140F63D
:100350009F7001F047FB532140F69F7001F099FB1D
:100360004FF4FA6002F0F2FE4FF4FA7002F0EEFE83
:100370000020FE490860FE49C1F8B802FD49086046
:100380004FF4FA7002F0E2FE0120FB490860F749E1
:100390000860FA49C1F8A4024FF4FA7002F0D6FEE0
:1003A00001F0E0FF02F08AF802F00DFE02F02EF9F3
:1003B00042F2CF0141F2863000F0C5FF0121F04842
:1003C00006F026F800F0A2FF0121880706F020F8C9
:1003D00027E103F0FFF9EB480088012807D102204C
:1003E000E84908800120E449183908600AE0E54836
:1003F0000088032806D10220E24908800020DE4957
:1004000018390860DF480088052810D10220DD492E
:100410000880DD4802884FF44871012001F0D2FCC9
:100420004FF4FA624FF41671002001F00EFDD5482A
:100430000088072809D10220D24908806422C821F7
:10044000002001F035FD01F08DFFCE480088102816
:1004500007D10220CB4908800120C7491039086024
:100460000AE0C8480088112806D10220C549088042
:100470000020C14910390860C24800880838122895
:100480005AD2DFE800F0090E13181D22272C595903
:1004900031363B40454A4F540120B7491C3908606A
:1004A0004BE00020B4491C39086046E00120B24905
:1004B0002839086041E00020AF49283908603CE055
:1004C0000120AD492439086037E00020AA492439C9
:1004D000086032E00120A849203908602DE00020A2
:1004E000A5492039086028E00120A3492C3908607B
:1004F00023E00020A0492C3908601EE001209E491D
:100500003839086019E000209B493839086014E048
:1005100001209949343908600FE0002096493439A8
:1005200008600AE0012094493039086005E00020A5
:1005300091493039086000E000BF00BF934800884F
:10054000012803D18C49143908600AE08F480088DB
:1005500018B18E480088032803D100208649143939
:1005600008608B480078032833D18A4800888A497C
:10057000098888422DD12021884804F0B3FD012844
:100580001BD1002082490870022085490870854AE5
:1005900085A186A002F0FDFE824802F0EAFE4FF43B
:1005A0009671854808F015F900207A4908807A4943
:1005B0000880642002F0CAFD0BE00420784908702E
:1005C00000207E4908707E4908707E49087007F057
:1005D000BAF86F480078092823D16E4800886E4920
:1005E00009888842F8D120216C4804F07BFD01285D
:1005F00018D1002066490870022069490870694ACC
:1006000069A16AA002F0C5FE664802F0B2FE4FF48E
:100610009671694808F0DDF800205E4908805E495F
:100620000880B3E35E48007809287CD10120524954
:10063000103908606448007808B9012000E0002003
:100640004D491C3908606148007808B9012000E074
:1006500000204949283908605D48007808B9012020
:1006600000E000204449243908605A48007808B95D
:10067000012000E0002040492039086056480078F9
:1006800008B9012000E000203B492C39086053489C
:10069000007808B9012000E00020374938390860A7
:1006A0004F48007808B9012000E000203249343971
:1006B00008604C48007808B9012000E000202E496D
:1006C000303908604848007800284DD04748007805
:1006D0000028FAD0464800780028F6D0454800782F
:1006E0000028F2D0444800780028EED04348007833
:1006F0000028EAD0424800780028E6D04148007837
:100700000028E2D007213848007802F0C8F90546F1
:10071000072102F016FC05213448007802F0BFF9E9
:100720000546052100E059E102F00BFC03213048A9
:10073000007802F0B4F90546032102F002FC012121
:100740002C48007802F0ABF90546012102F0F9FBD4
:1007500004212948007802F0A2F90546042102F09C
:10076000F0FB062125484FE023E10000B0024042A3
:1007700000804142A4024142B8824142000041420D
:10078000000C0040FC0B0020100C0020FE0B002091
:10079000FA0B0020DC0B0020DA0B002000100240D6
:1007A00000000020FC0C0020380000006469616C2F
:1007B0006F67626F78000000C8180020A802002050
:1007C000A9020020AA020020E70B0020E80B00206D
:1007D000E90B0020EA0B0020EB0B0020EC0B0020C3
:1007E000ED0B0020EE0B0020E60B0020DF0B0020BD
:1007F000E00B0020E10B0020E20B0020E30B0020C7
:10080000E40B0020E50B0020007802F048F90546D3
:10081000062102F096FB0021FB48007802F03FF928
:100820000546002102F08DFB0221F848007802F015
:1008300036F90546022102F084FB4FF47A7002F08B
:1008400085FCF3480078012812D100BFF14890EDF3
:10085000070AF0EE000A70EE200AEF48007800EE7A
:10086000100AB8EE400AF4EEC00AF1EE10FAEDD329
:10087000EA480078012812D100BFE64890ED040A4A
:10088000F0EE000A70EE200AE548007800EE100A4B
:10089000B8EE400AF4EEC00AF1EE10FAEDD3E148EA
:1008A0000078012812D100BFDA4890ED050AF0EE79
:1008B000000A70EE200ADC48007800EE100AB8EE5C
:1008C000400AF4EEC00AF1EE10FAEDD3D7480078F2
:1008D000012812D100BFCF4890ED060AF0EE000AC1
:1008E00070EE200AD248007800EE100AB8EE400AF6
:1008F000F4EEC00AF1EE10FAEDD3CE4800780128EC
:1009000012D100BFC34890ED030AF0EE000A70EE6A
:10091000200AC948007800EE100AB8EE400AF4EE4A
:10092000C00AF1EE10FAEDD3C4480078012812D1C4
:1009300000BFB84890ED000AF0EE000A70EE200A01
:10094000B148007800EE100AB8EE400AF4EEC00A92
:10095000F1EE10FAEDD3BA480078012812D100BFA9
:10096000AC4890ED010AF0EE000A70EE200AB5489E
:10097000007800EE100AB8EE400AF4EEC00AF1EE7C
:1009800010FAEDD3B0480078012812D100BFA14879
:1009900090ED020AF0EE000A70EE200A9B48007803
:1009A00000EE100AB8EE400AF4EEC00AF1EE10FABA
:1009B000EDD3A64802884FF41671012001F002FA27
:1009C000A34802884FF44871002001F03EFAA14884
:1009D00002884FF44871002001F06AFA04209E4911
:1009E00008709E480088012861D100209B4908803A
:1009F0009B48B0F90000002811DA9948B0F900507E
:100A0000002D01DB284600E068424FF4E15100FB75
:100A100001F24FF41671002001F0D4F910E0904873
:100A2000B0F90050002D01DB284600E068424FF489
:100A3000E15100FB01F24FF41671012001F0C2F9FF
:100A40004FF4C8625110002001F0FFF9854800788A
:100A500009F0D3F99FED840B53EC102B09F01CFA2D
:100A600009F09EF984B200207E49087022464FF4B6
:100A70004871012001F0E9F97D480088C0EB0010C1
:100A800082007C4801887C48008801F0C8FAC4F5DF
:100A9000C86082B24FF44871012001F0D6F9774A5C
:100AA00077A178A002F075FC744802F062FC6B48F4
:100AB0000088022841D10020684908806848B0F9C0
:100AC0000000002811DA6648B0F90050002D01DB63
:100AD000284600E068424FF4E15100FB01F24FF478
:100AE0001671002001F06EF910E05D48B0F9005079
:100AF000002D01DB284600E068424FF4E15100FB85
:100B000001F24FF41671012001F05CF9584909888F
:100B1000C1EB0111890001EB4102C2EBC1114FF69B
:100B2000FF7202EAC10002F011FB544A54A155A021
:100B300002F02FFC514802F01CFC484800880328B2
:100B400043D10020454908804548B0F900000028FD
:100B500011DA4348B0F90050002D01DB284600E0CF
:100B600068424FF4E15100FB01F24FF4167100208E
:100B700001F028F910E03A48B0F90050002D01DBEF
:100B8000284600E068424FF4E15100FB01F24FF4C7
:100B90001671012001F016F94FF4C8623C48018833
:100BA000002001F0B8F9052002F0D0FA4FF4C86235
:100BB00037480188012001F0AEF9304A30A131A058
:100BC00002F0E7FB2D4802F0D4FB244800880428FB
:100BD00019D10020214908802148B0F900000028DF
:100BE00058DA1F48B0F90050002D01DB284600E01C
:100BF00068424FF4E15100FB01F24FF416710020FE
:100C000001F0E0F857E075E0E40B0020E50B002070
:100C1000E70B0020640D0020E60B0020E80B00200D
:100C2000E20B0020E90B0020DF0B0020EA0B002084
:100C3000E30B0020EB0B0020E00B0020EC0B00206E
:100C4000ED0B0020E10B0020EE0B0020100C00202B
:100C5000120C0020140C002000000020020C0020C8
:100C6000080C0020EF0B00206666666666A643400F
:100C70000C0C0020060C0020040C0020FC0C0020B2
:100C8000310000006F766572666C616700000000DD
:100C90000A0C00203E48B0F90050002D01DB284628
:100CA00000E068424FF4E15100FB01F24FF416718D
:100CB000012001F087F840F24652364801880020B2
:100CC00001F029F940F246524FF44871012001F039
:100CD000EFF840F246524FF44871012001F0B5F8A8
:100CE0002D4AAFF26401AFF2640002F052FB2A48D1
:100CF00002F03FFB29480088012847D100202749FE
:100D000008800120264908602649C1F8900224493C
:100D100008390860091D0860214910390860204918
:100D20001C390860091D08601E49C1F888021A4A6A
:100D30001DA1AFF2B00002F02CFB174802F019FB26
:100D400000201A49088000BF184800886428FBDB8F
:100D5000002013490C31086001F0DEFB002014492B
:100D60000870012080F3138800BF00BFBFF34F8FCE
:100D70001048006800F4E0600F490843001D0D4969
:100D80000860BFF34F8F00BF00BFFEE7FFF721BB36
:100D9000080C00200A0C0020FC0C00200E0C002087
:100DA0009C8241420080414232000000020000204B
:100DB000000000200CED00E00000FA05704700BFC5
:100DC000FEE700BFFEE700BFFEE700BFFEE770479B
:100DD00070477047704700000CB5002001900090EC
:100DE0007648006840F480307449086000BF73485A
:100DF000006800F4003000900198401C01900098B9
:100E000018B90198B0F5A04FF1D16C48006800F412
:100E1000003010B10120009001E000200090009807
:100E2000012846D165484030006840F08050634951
:100E3000403108606248006840F440406049086002
:100E40005E48083000685D4908310860084600685F
:100E500040F4004008600846006840F4A050086074
:100E60005848091F0860081F006840F08070091F7B
:100E7000086000BF5148006800F000700028F9D0F9
:100E800040F20570504908604C480830006820F076
:100E900003004A49083108600846006840F0020033
:100EA000086000BF45480830006800F00C000828C2
:100EB000F8D10CBD10B54548006840F470004349B6
:100EC00008603E48006840F001003C49086000208E
:100ED0003A4908310860394800683D4908403749B7
:100EE00008603C48091D0860081F006820F4802045
:100EF000091F0860002031490C310860FFF76CFFC2
:100F00004FF0006031498039086010BD70B5002095
:100F10000022022300240221284D08352D6805F007
:100F20000C0020B1042806D0082834D107E02A4D4F
:100F30002A4E356033E02A4D284E35602FE01F4D94
:100F40002D1D2D68C5F380541C4D2D1D2D6805F0F9
:100F50003F0154B1224DB5FBF1F5184E361D3668F0
:100F6000C6F3881605FB06F209E01B4DB5FBF1F54B
:100F7000124E361D3668C6F3881605FB06F20F4D75
:100F80002D1D2D68C5F301456D1C6B00B2FBF3F5FB
:100F9000124E356003E0104D104E356000BF00BFAB
:100FA000064D08352D68C5F303150E4E705D0B4DCB
:100FB0002D68C540094E356070BD00000038024004
:100FC0000070004008544007003C024088ED00E0FB
:100FD000FFFFF6FE103000240024F400040000207F
:100FE00000127A000800002010B50A2002F0AEF8C6
:100FF0000421AF4804F076F868B10021AD4805F04F
:1010000007FA0120AC490870AC4800684FF6FB7144
:101010000840AA490860042005F0BBF810BD10B5CF
:101020000A2002F093F80821A14804F05BF868B1A7
:101030000021A34805F0ECF90120A24908709F485F
:1010400000684FF6F77108409C490860082005F0D9
:10105000A0F810BD10B50A2002F078F810219448CD
:1010600004F040F868B10021974805F0D1F901205B
:1010700096490870914800684FF6EF7108408F4913
:101080000860102005F085F810BD10B50A2002F0A8
:101090005DF82021864804F025F8012845D18C48C8
:1010A0000078012807D18B4A8BA18CA002F071F93E
:1010B000884802F05EF986480078042835D1854AD0
:1010C00085A186A002F065F9824802F052F901205C
:1010D0007F4908707748008800F0010030B1002196
:1010E000744805F095F901207F490870744800881C
:1010F00000F0010068B17D480078012802D17C49E8
:10110000087003E000216E4805F082F9012079495A
:1011100008706D48008800F0010030B100216A4875
:1011200005F076F9012074490870202005F031F8A7
:1011300010BD00B585B00121102004F00FFA3C204D
:10114000009000208DF8040003208DF80500022097
:101150008DF807006946564803F062FF01218803B5
:1011600004F056FA0221042004F05DFB0321042060
:1011700004F059FB0421084604F055FB0521042026
:1011800004F051FB3C20029000208DF80C00082058
:101190008DF80D0001208DF80E0002A804F088FFE4
:1011A00008208DF8100001208DF8110003208DF823
:1011B000120001208DF8130004A803F040FE09205E
:1011C0008DF8100001208DF8110002208DF812001A
:1011D00001208DF8130004A803F031FE0A208DF8D9
:1011E000100001208DF811008DF812008DF8130009
:1011F00004A803F024FE17208DF8100000208DF8BD
:10120000110003208DF8120001208DF8130004A8AE
:1012100003F015FE05B000BD1CB50121182004F037
:101220009DF940F2FF70009001208DF8040000202D
:101230008DF8060003208DF8050001208DF80700C9
:1012400069462E4803F0ECFE012000908DF8040062
:1012500000208DF8060003208DF8050001208DF890
:1012600007006946124803F0DBFE012024490860AC
:101270002449C1F89002224908390860091D086014
:101280001F49103908601E491C390860091D086093
:10129000091D086000201C490860194908310860D0
:1012A0000120091F086000201649C1F8A8021CBDD2
:1012B0000010024000000140AA020020003C014052
:1012C00000040040A802002000040140A902002000
:1012D00000000020FC0C0020350000006469616CF7
:1012E0006F67626F7800000020000020AE020020CF
:1012F000230000202100002022000020000C0240DA
:101300009C82414200804142800242420EB501214E
:10131000084604F06CF9684605F025F80020ADF8A1
:1013200008002920ADF80000C72001900020ADF88A
:10133000020069464FF0804004F0E1FF202148069A
:1013400005F036FD0EBD7FB505460C46012108208F
:1013500004F04DF90295ADF804400020ADF8060008
:10136000ADF80C0001A9FE4804F0C9FF0121FC48BA
:1013700005F08EFC01221146F94805F061FC0121BF
:10138000F74805F045F832208DF8000003208DF86D
:10139000010001208DF802008DF80300684603F07B
:1013A0004EFD7FBD10B52DED028B82B00020009068
:1013B00001900121EA4805F05AFC012871D1012170
:1013C000E74805F065FCE748008800F0010020B11F
:1013D000E5480088401CE4490880E4480078401C47
:1013E000E2490870E2480078042804D1E148008806
:1013F000401CE0490880E048007820B1DF480088C0
:10140000401CDE490880DE480078002849D0DD48CD
:1014100000780028D2D1D5480078092190FBF1F25C
:1014200001FB1200092819D2DFE800F0053C72A880
:10143000DEF5F4F3F200D448007880B99FEDD30BC9
:1014400053EC102BD3A1684606F098FFD34A6946A7
:10145000D3A001F09EFFD14801F08BFFECE1072003
:1014600001F09DFA0446072101F038FBCD4880EDDC
:10147000070A90ED070A10EE101A084608F036FF2A
:1014800041EC180B53EC182BC2A1684606F076FF0E
:10149000C24A6946C2A001F07CFFC04801F069FF62
:1014A000CAE1CAE1C048007880B99FEDB80B53EC9F
:1014B000102BB8A1684606F061FFB84A6946BBA088
:1014C00001F067FFB54801F054FFB5E1042001F0D9
:1014D00066FA0446042101F001FBB24880ED040ADB
:1014E00090ED040A10EE101A084608F0FFFE41ECD9
:1014F000180B53EC182BA7A1684606F03FFFA74A2C
:101500006946AAA001F045FFA44801F032FF93E12B
:10151000A748007880B99FED9D0B53EC102B9DA13F
:10152000684606F02BFF9D4A6946A2A001F031FFF4
:101530009A4801F01EFF7FE1052001F030FA0446D1
:10154000052101F0CBFA974880ED050A90ED050AD8
:1015500010EE101A084608F0C9FE41EC180B53ECC7
:10156000182B8CA1684606F009FF8C4A694691A0A9
:1015700001F00FFF894801F0FCFE5DE18E48007824
:1015800080B99FED820B53EC102B82A1684606F0C8
:10159000F5FE824A694689A001F0FBFE7F4801F012
:1015A000E8FE49E1062001F0FAF90446062101F0BF
:1015B00095FA7C4880ED060A90ED060A10EE101AA6
:1015C000084608F093FE41EC180B53EC182B71A160
:1015D000684606F0D3FE714A694678A001F0D9FE4C
:1015E0006E4801F0C6FE27E175480078A0B99FED6E
:1015F000670B53EC102B67A1684606F0BFFE674AE5
:10160000694670A001F0C5FE644801F0B2FE13E126
:101610000AE18FE058E021E0032001F0C0F9044620
:10162000032101F05BFA5F4880ED030A90ED030AA5
:1016300010EE101A084608F059FE41EC180B53EC56
:10164000182B54A1684606F099FE544A69465DA0DD
:1016500001F09FFE514801F08CFEEDE05A48007801
:1016600080B99FED4A0B53EC102B4AA1684606F057
:1016700085FE4A4A694655A001F08BFE474801F0B5
:1016800078FED9E0002001F08AF90446002101F03B
:1016900025FA444880ED000A90ED000A10EE101A79
:1016A000084608F023FE41EC180B53EC182B39A127
:1016B000684606F063FE394A694644A001F069FEB7
:1016C000364801F056FEB7E04148007880B99FEDFA
:1016D0002F0B53EC102B2FA1684606F04FFE2F4A1C
:1016E00069463CA001F055FE2C4801F042FEA3E003
:1016F000012001F054F90446012101F0EFF92948D5
:1017000080ED010A90ED010A10EE101A084608F06B
:10171000EDFD41EC180B53EC182B1EA1684606F0AA
:101720002DFE1E4A69462BA001F033FE1B4801F036
:1017300020FE81E02848007880B99FED140B53EC1F
:10174000102B14A1684606F019FE144A694623A01E
:1017500001F01FFE114801F00CFE6DE040E00000BA
:10176000000C004000040040B2020020BB0000203A
:101770000000002002000020C30B0020C40B00204A
:10178000C20B0020DE0B0020E70B00200000000051
:1017900000003C40252E316600000000FC0C0020BB
:1017A00074306B00640D0020E80B002074316B0076
:1017B000E90B002074326B00EA0B002074336B00DD
:1017C000EB0B002074346B00EC0B002074356B00C5
:1017D000ED0B002074366B00EE0B002074376B00AD
:1017E000022001F0DCF80446022101F077F91548E7
:1017F00080ED020A90ED020A10EE101A084608F079
:1018000075FD41EC180B53EC182BAFF278016846CC
:1018100006F0B4FD0C4A6946AFF2400001F0B9FD94
:10182000094801F0A6FD07E00020084908700121E1
:10183000880704F0EDFD00BF00BF02B0BDEC028BD5
:1018400010BD0000640D0020FC0C0020C20B002025
:101850001CB501210F2003F081FE01220821FB4865
:1018600003F069FC4FF48070009002208DF80400B2
:1018700003208DF8050000208DF8060001208DF86A
:1018800007006946F14803F0CBFB03220621F0482C
:1018900003F051FC02220721ED4803F04CFCC0206C
:1018A000009002208DF8040003208DF80500002030
:1018B0008DF8060001208DF807006946E44803F022
:1018C000AFFB4FF4C050009001208DF804000320BE
:1018D0008DF8050000208DF8060001208DF8070026
:1018E0006946DA4803F09CFB4FF4407000900120F9
:1018F0008DF8040003208DF8050000208DF8060007
:1019000001208DF807006946D14803F089FB4FF4A8
:101910004040009001208DF8040003208DF8050060
:1019200000208DF8060001208DF807006946C9489F
:1019300003F076FB1CBD30B589B004460D4601218D
:10194000084603F065FEA8B2ADF814000020ADF81B
:10195000160006948DF81E00ADF81C0005A9BE48BF
:1019600004F0CDFC0320B4FBF0F002906020ADF851
:1019700000000120ADF802000220ADF80C00C0010B
:10198000ADF810000020ADF812006946B24804F02E
:101990004BFD0821B04804F0D4FE0121AE4804F00C
:1019A00019FD0121AC4805F05FF901221146AA4852
:1019B00005F046F919208DF8200000208DF821004F
:1019C00001208DF822008DF8230008A803F037FAD3
:1019D0000121A14805F00DF900219F4804F018FDF0
:1019E00009B030BD30B589B004460D460121022052
:1019F00003F0FDFDA8B2ADF814000020ADF816000C
:101A000006948DF81E00ADF81C0005A9934804F05B
:101A100076FC0320B4FBF0F002906020ADF80000EB
:101A20000120ADF802000220ADF80C00C001ADF8B5
:101A300010000020ADF812006946884804F02DFD22
:101A40000821864804F086FE0121844804F0C2FC87
:101A50000121824805F008F9012211467F4805F06E
:101A6000EFF81D208DF8200000208DF821000120C6
:101A70008DF822008DF8230008A803F0E0F9012179
:101A8000764805F0B6F80021744804F0C1FC09B0AE
:101A900030BD30B589B004460D460121022003F067
:101AA000B7FDA8B2ADF814000020ADF816000694FA
:101AB0008DF81E00ADF81C0005A9694804F01FFC54
:101AC0000320B4FBF0F002906020ADF8000001208C
:101AD000ADF802000220ADF80C00C001ADF8100016
:101AE0000020ADF8120069465D4804F09DFC082115
:101AF0005B4804F026FE0121594804F06BFC0121EB
:101B0000574805F0B1F801221146554805F098F8FC
:101B10002C208DF8200000208DF8210002208DF867
:101B2000220001208DF8230008A803F088F9012184
:101B30004B4805F05EF80021494804F069FC09B003
:101B400030BD10B50121444805F091F818B10121CC
:101B5000414805F09DF843480068401C4149086031
:101B60004148007805282AD2DFE800F086032A34AD
:101B700064003D4880683B490968884202D80220D9
:101B8000394908703948007838B139483549096809
:101B900030F811003449488006E036483149096878
:101BA00030F81100304948802F49488800EBD07147
:101BB0004910294A51632C4840881146C86265E0A3
:101BC0002948406827490968884202D803202649E5
:101BD00008705BE024480069401E22490968884279
:101BE00002D80020204908702048007858B11E48CB
:101BF00000691C490968401A401E1D4931F810004F
:101C0000194948800AE01848006916490968401ACD
:101C1000401E184931F8100013494880124948887D
:101C200000EBD07149100C4A51630F4840881146AF
:101C3000C8622BE00C480069401E0A4909688842C6
:101C400002D800200849087020E00000000002408F
:101C500000080240000C0240000001400004004067
:101C600000040140BC000020280D00209902002043
:101C7000C80000206801002000204749086047494B
:101C800008700021464804F0C3FB00BF00BF10BD30
:101C900010B50121434804F0EAFF18B10121414881
:101CA00004F0F6FF40480068401C3F4908603F4888
:101CB000007801285ED13E480078012804D002282F
:101CC00029D0032855D130E03A48007800EB400095
:101CD000394901EBC0003449096830F8110080101F
:101CE0003049383108603348007800EB4000324911
:101CF00001EBC0002C49096830F8110029492C314A
:101D000008602B48806828490968884202D8022068
:101D1000274908702DE02648406823490968884211
:101D200002D803202249087023E021480069401EA0
:101D30001D490968884203D800201D49087017E032
:101D40001C48007800EB40001B4901EBC00118481B
:101D50000069154A1268801A401E31F810001149B6
:101D60002C3108600846006880080E493831086048
:101D700000BF00BF10BD10B50121104804F077FF6F
:101D800018B101210D4804F083FF0D480068401C84
:101D90000B49086010BD0000BC000020AF0200200D
:101DA0000000014000040040C0000020AE020020FE
:101DB0003C0D002098020020080200200004014091
:101DC000C400002070B505460E461446FE48056066
:101DD0000020FE49C1F8B0020120FD490870002C26
:101DE00032D0C82C0BD94F20FA498860A4F1510099
:101DF000486001200870F8480088488005E0042009
:101E0000F4490870F44840894880F24845700461FC
:101E10000146488800EBD0714910F04A5163ED4803
:101E200040881146C86200BFED4800780128FBD009
:101E30000121EA4804F0ECFA0120EA49087000BFE9
:101E4000E84800780028FBD170BD70B506460C4606
:101E50001546E54806600020E449C1F8A4020120C7
:101E6000E3490870E34890FBF4F0E3490860084652
:101E700000684008E0490C31086000BFD84800788D
:101E80000128FBD00121DC482C3804F0C1FA0020E5
:101E9000DA49086000BFD9480068A842FBD3002097
:101EA000D64908600021D4482C3804F0B1FA70BD3E
:101EB00070B506460C461546D14806600020D1494B
:101EC000C1F8B8020120D0490870CA4890FBF4F06C
:101ED000CE490860084600684008CC4908310860CF
:101EE00000BFBF4800780128FBD00121C7482C382B
:101EF00004F08EFA0020C649086000BFC44800689C
:101F0000A842FBD30020C24908600021BF482C38FA
:101F100004F07EFA70BD2DE9F04105460C461646E8
:101F200002270120B2490870B7490870B949087002
:101F3000072C11D2DFE804F0100406080A0C0E008A
:101F400032240BE03C2409E0462407E0502405E05D
:101F50005A2403E0642401E0502400BF00BFA248DB
:101F60000560A848C0F8BC5200209F49091D0860C0
:101F7000A349091F0860A1490860A54908609D4858
:101F800090FBF4F09C4908600846006840089A49B4
:101F90000C31086000BF924800780128FBD0012175
:101FA00095482C3804F034FA924890FBF4F09749A5
:101FB000086008460068400894490831086000BF7E
:101FC000874800780128FBD0012190482C3804F084
:101FD0001FFA1DE0701E89490968884209D2002055
:101FE00086490860002184482C3804F011FA781ED4
:101FF000C7B2701E86490968884209D20020844908
:102000000860002181482C3804F002FA781EC7B21B
:10201000002FDFD100207F490870BDE8F0812DE955
:10202000F04705460C4616460027B846B94601203B
:102030006F490870072D29D2DFE805F028040A103F
:10204000161C22004FF47A7500207349087023E0B3
:1020500040F2DC550120704908701DE04FF4FA652C
:1020600002206D49087017E040F6B83503206A4930
:10207000087011E04FF47A650420674908700BE09E
:1020800041F2941505206449087005E040F6B83522
:1020900003206149087000BF00BF072C15D2DFE89C
:1020A00004F0140406080B0E1100C82410E0FA24F2
:1020B0000EE04FF496740BE04FF4AF7408E04FF469
:1020C000C87405E04FF4E17402E04FF4967400BF69
:1020D00000BF01204449086050490870504804611D
:1020E0000B204F498860A4F10D00486000203F4953
:1020F000C1F8A40270004B49086000204A490880DA
:10210000A0E000213C482C3804F082F900BF474889
:1021100000780128FBD0464800780128F7D001203C
:10212000314908600020354908603B48007800EBE1
:102130004000404931F8300080102F490C310860D0
:102140003548007800EB40003A4931F830002A4920
:102150000860012032490870012127482C3804F01A
:1021600057F900BF2E4800780028FBD100212248F3
:102170002C3804F04DF900201B4908601F49086005
:102180002548007800EB40002A4931F830008010E3
:1021900019490C3108602048007800EB40002549BF
:1021A00031F830001449086001201D4908700121F0
:1021B00011482C3804F02CF900BF19480078002889
:1021C000FBD100210C4837E0AC0240420000404205
:1021D00099020020280D0020C800002000000140C6
:1021E00000000020AF020020A00241420000414256
:1021F0009A02002080841E002C040040C0000020B1
:10220000BC824142008041429B0200202C040140DC
:10221000C4000020B102002098020020AE0200207D
:102220003C0D0020B4020020B2020020E40C00208B
:1022300023000020080200202C3804F0E9F80020D8
:10224000D5490860D5480088D54909688842FFF417
:1022500058AF0020D3490870BDE8F0872DE9F04160
:1022600004460F4615460026CF48006840F004009B
:10227000CD490860CD4804600020CD49C1F8B002C6
:10228000CC490870CC4908704F20CC498860A5F132
:102290005100486001200870C948008848800846FD
:1022A00044700561488800EBD0714910C54A5163FC
:1022B000C24840881146C8620121104604F0A8F8BF
:1022C000BDE8F0812DE9F04104460D461746002691
:1022D000B548006840F00800B3490860BA48046097
:1022E0000020BA49C1F8A402B9490870B949087078
:1022F000B94890FBF5F0B9490860084600688008C5
:10230000B6490C3108600121B4482C3804F080F83B
:10231000BDE8F0812DE9F04104460D461746002640
:10232000A148006840F010009F490860AC48046074
:102330000020AC49C1F8B802AB490870AB4908703D
:10234000A54890FBF5F0AA49086008460068800897
:10235000A749083108600121A5482C3804F058F835
:10236000BDE8F08110B50821A24802F0BBFE0128AB
:1023700021D110219F4802F0B5FE01281BD14FF456
:102380007A724FF416710020FFF75FFD4FF416725A
:1023900011460020FFF78CFD4FF4FA524FF44871BC
:1023A0000120FFF7B7FF4FF4FA524FF448710120B4
:1023B000FFF788FF71E008218E4802F093FE98B97C
:1023C00010218C4802F08EFE70B94FF4FA524FF48F
:1023D00048710120FFF79EFF4FF4FA524FF4487105
:1023E0000120FFF76FFF58E00821824802F07AFED3
:1023F00060BB10217F4802F075FE012826D14FF402
:10240000FA524FF44871FFF75DFF00BF7148007842
:102410000028FBD04FF47A724FF416710020FFF7BA
:1024200014FD4FF4167211460020FFF741FD4FF4E2
:10243000FA524FF448710120FFF76CFF4FF4FA5243
:102440004FF448710120FFF73DFF26E0082169485D
:1024500002F048FE012820D11021664802F042FE19
:10246000D8B94FF47A724FF416710020FFF7EDFCE3
:102470004FF4C8724FF416710020FFF719FD4FF4A6
:10248000FA524FF448710120FFF744FF4FF4FA521B
:102490004FF448710120FFF715FF012056490870DD
:1024A00010BD10B50120554908604FF47A7000F056
:1024B0004DFE00205249C1F8800210BD10B500BF8A
:1024C000444800780028FBD0484800780028F7D01E
:1024D0000421484802F006FE012805D14FF4C852F5
:1024E0004FF41671FFF76EFC48F6A0424FF41671D8
:1024F0000020FFF7B3FE00BF2F4800780028FBD074
:1025000000204049086001202B490870FFF7C9FFEF
:1025100002203D49087010BD10B5002410E00120D4
:10252000364908604FF4C87000F010FE00203449AE
:10253000C1F880024FF4C87000F008FE601CC4B2FD
:10254000042CECDB10BD10B501202C490860642080
:1025500000F0FCFD00202A49C1F88002642000F050
:10256000F5FD012025490860642000F0EFFD002002
:102570002349C1F88002642000F0E8FD01201F49D2
:102580000860642000F0E2FD00201D49C1F88002CF
:10259000642000F0DBFD10BDC0000020B20200206E
:1025A000B4020020AE020020003C0140AC024042D8
:1025B0000000404299020020AA020020280D0020BD
:1025C0006801002000000140A00241420000414299
:1025D0009A020020A802002080841E002C040040E3
:1025E000BC824142008041429B020020A90200209F
:1025F0002C04014000100240AC0200208002424244
:1026000000004242BC0000200000002000B59DB048
:102610000121FD4802F0A2FF0121080202F0F8FFAB
:10262000FF20029003208DF80C0000208DF80F0091
:1026300002A9F64802F0F4FC00200490F44805904A
:10264000F4480690002007904FF440700890002056
:1026500009904FF480600A9040000B9080000C902D
:1026600040110D9040020E9000200F90012010901C
:1026700000201190129004A9E74803F0D9FB3820FC
:102680008DF8040003208DF8050002208DF8060067
:1026900001208DF8070001A802F0D1FB01221021D2
:1026A000DD4803F08CFC002013904FF48030149030
:1026B000002015904FF4A060169013A804F03EFE81
:1026C0000020179001208DF8600000208DF8610037
:1026D0004FF0805019904FF0C0601A9000201B906E
:1026E00008208DF8700017A9C9484C3804F0F7FD90
:1026F0000121C7484C3804F018FF01231A46002175
:10270000C3484C3804F071FE012302221946C04828
:102710004C3804F06AFE012303220221BC484C38E5
:1027200004F063FE012304220321B9484C3804F06D
:102730005CFE012305220421B5484C3804F055FE07
:10274000012306220521B2484C3804F04EFE012335
:1027500007220621AE484C3804F047FE0123082228
:102760000721AB484C3804F040FE0121A8484C3802
:1027700004F0E6FE0121A84803F094FB0121A448DF
:102780004C3804F0F2FDA2484C3804F08AFE1DB02B
:1027900000BD10B5A149A04803F02EFC38B10021BE
:1027A0004FF0804003F034FE01209D4908709B49A2
:1027B000994803F04BFC10BD00B58DB001210846CF
:1027C00002F0CCFE0121080202F022FF0F200B9044
:1027D00003208DF8300000208DF833000BA98B48C2
:1027E00002F01EFC0121080202F067FF00214FF4F5
:1027F000807002F062FF002007904FF4A0600A9002
:10280000002009904FF48030089007A804F096FD4E
:102810000020019001208DF8080000208DF80900AB
:102820004FF0C06003900020059008208DF818003C
:1028300001A977484C3804F052FD012174484C3806
:1028400004F093FD0DB000BD10B504460523012230
:1028500021466F484C3804F0C8FD6D484C3804F0F0
:1028600020FE00BF02216A484C3804F03BFF0028DC
:10287000F8D067484C3804F050FE10BD2DE9F04107
:1028800007460C460025002608E03846FFF7DCFF27
:102890000544052000F05AFC701CC6B2A642F4DBC9
:1028A000B5FBF4F080B2BDE8F08170472DE9F0414E
:1028B000002500216FE000221F2355E0D0B224E064
:1028C000544F07EB001737F811C0DFF84881471C59
:1028D00008EB071737F81170BC4514DD474607EBC6
:1028E000001737F81160C446471C0CEB071737F880
:1028F00011700CEB001C2CF81170C446471C0CEB3B
:10290000071727F81160471CF8B29842D8DB5F1E02
:10291000BBB2D8B224E03F4F07EB001737F811C025
:10292000471EDFF8F08008EB071737F81170BC4539
:1029300014DA474607EB001737F81160471EC44604
:102940000CEB071737F811700CEB001C2CF811700A
:10295000471EC4460CEB071727F81160471EF8B254
:102960009042D8DC571CBAB29A42A7DB082407E091
:10297000284F07EB041737F811703D44671CFCB271
:10298000182CF5DBC5F30F17DFF898C02CF8117081
:1029900000254F1CB9B208298DDBBDE8F0812DE977
:1029A000F0410246002600245F2566E0E1B224E003
:1029B000184800EB011030F812C0DFF85880481CAE
:1029C00008EB001030F81200844514DD404600EB9F
:1029D000011030F81270C446481C0CEB001030F89F
:1029E00012000CEB011C2CF81200C446481C0CEB26
:1029F000001020F81270481CC1B2A942D8DB681E32
:102A000085B2E9B235E0000001004000000002405C
:102A10004C200140A41100201064024020800010CE
:102A2000C20B0020B4170020734800EB011030F8EF
:102A300012C0481EDFF8C08108EB001030F8120009
:102A4000844514DA404600EB011030F81270481E3D
:102A5000C4460CEB001030F812000CEB011C2CF8F3
:102A60001200481EC4460CEB001020F81270481EDD
:102A7000C1B2A142D8DC601C84B2AC4296DB2023F8
:102A800007E05D4800EB031030F812000644581CC4
:102A9000C3B2402BF5DBC6F34F10BDE8F08130B573
:102AA00003460024A3F11D00C2B2002A03DA40F657
:102AB000C414204630BD472A08DD472201EBC1007F
:102AC0004E4D05EB0010B0F88E00F3E701EBC100AE
:102AD0004A4D05EB001030F81200EBE7F0B5024666
:102AE00000244725242001EBC106454F07EB0616BD
:102AF000B6F88E60964202DD9FED420AF0BD01EB12
:102B0000C1063F4F07EB06163688964202DAB3EE4F
:102B10000C0AF3E700236BE0661906EBD677C7F3E0
:102B20004F0001EBC106364F07EB061636F8106072
:102B3000964206D100F11D0600EE106AB8EEC00AFA
:102B4000DCE701EBC1062E4F07EB061636F81060E6
:102B5000964234DA01EBC10607EB0617461E37F83A
:102B6000166096422BDD01EBC106254F07EB0617D9
:102B7000461E37F8166001EBC107DFF884C00CEB86
:102B8000071737F81070F61B00EE106AB8EEC01A7F
:102B900001EBC106674607EB061636F81060961B78
:102BA00000EE106AB8EEC00AC0EE010A00F11D0680
:102BB00000EE106AB8EEC00A30EE600A9EE701EB44
:102BC000C1060F4F07EB061636F81060964202DA80
:102BD000461EB5B20AE001EBC106094F07EB061627
:102BE00036F81060964201DD461CB4B25E1CB3B2EA
:102BF000072B91DB00BF81E7A41100203A070020DA
:102C0000BA0200200000D24210B540F22551964889
:102C100003F022F8F8B1944802F05CFFC4B2934884
:102C2000008800F40040B0B990480088802813DA8A
:102C300000218F4803F0ACFB8C48008818B90121B3
:102C40008B4803F0E5FB894801880088401C874ACF
:102C500010808848445405E08448008840F40040CF
:102C60008249088010BD704710B588B00446012124
:102C7000042002F073FC0121880402F0B8FC7A48B9
:102C800002F00AFE07220B217B4802F054FA0722C9
:102C90000A21794802F04FFA4FF440600590022073
:102CA0008DF818008DF8190000208DF81A00012009
:102CB0008DF81B0005A9704802F0B2F901940020BC
:102CC000ADF80800ADF80A00ADF80C00ADF8100042
:102CD0000C20ADF80E0001A9634802F044FE01216A
:102CE000614802F0C8FE012240F225515E4802F020
:102CF00078FF27208DF81C0002208DF81D008DF82C
:102D00001E0001208DF81F0007A802F098F842F27B
:102D1000CF0140F2E730FFF7A6FF002053490880BB
:102D20000021534803F074FB08B010BD0FB438B550
:102D300005A800905148009A049905F001FB002075
:102D400000904E4805F01AFD85B200240DE000BF4A
:102D50004021454802F06AFF0028F9D04748015D4C
:102D6000414802F0B3FE601C84B2AC42EFDB38BCD9
:102D70005DF814FB10B504463C48008800F40040A0
:102D800070B1002039490988C1F30E01394A505405
:102D900011463BA005F0E6FA14B100203349088043
:102DA00010BD70B5044600253048008800F400408E
:102DB00058B100202D490988C1F30E012D4A505405
:102DC0002146104605F0A4FC0546284670BD2DE9B5
:102DD000F04104460E46154600270020234908808E
:102DE000FF2C0AD800BF2048008800F040000028CF
:102DF000F9D01D49091D0C8003E0214620A0FFF7F2
:102E000095FFC6B1BDB10FE00A2000F09FF9174849
:102E1000008800F4004038B13046FFF7C2FF00B12F
:102E200006E0002011490880681E80B20500EBD141
:102E300000BF05B901273846BDE8F08110B5012172
:102E40000B4803F014FF68B10848008840F40040C4
:102E5000064908800121064803F01AFF00210448B2
:102E600003F0D6FA10BD000000480040C60B002059
:102E7000001400404818002000080240C817002035
:102E80002573000000B587B00121022002F066FB27
:102E90000121080302F0BCFB3820059002208DF8C8
:102EA000180000208DF81A0003208DF81900012069
:102EB0008DF81B0005A9704802F0B2F80522032125
:102EC0006D4802F038F9052204216B4802F033F90D
:102ED00005221146684802F02EF90121080302F08C
:102EE000ECFB00214FF4805002F0E7FB4FF4404030
:102EF000ADF800004FF48270ADF802004FF40060AE
:102F0000ADF804000220ADF806000120ADF808007D
:102F10004002ADF80A003820ADF80C000020ADF8F2
:102F20000E000720ADF810006946544803F0D8FFA2
:102F30000121524804F0CEF801205149086007B041
:102F400000BD2DE9F04104460D461027002604EB94
:102F5000053086B201204A490860022000F0AEF830
:102F600000204849C1F89C021DE001204449103965
:102F7000086006F4004020B101204149083908608A
:102F800003E000203E4908390860022000F096F86E
:102F900000203B49103908604FF6FF7000EA4606F2
:102FA000022000F08BF83800A7F10107DDD10120E5
:102FB0003349103908603349C1F89C02142000F0ED
:102FC0007DF8BDE8F0811CB50121022002F0C6FAAF
:102FD000A820009001208DF8040000208DF8060044
:102FE00003208DF8050001208DF80700694622486E
:102FF00002F016F88021204802F08EF820211E48A9
:1030000002F08AF808211C4802F088F8092140F6ED
:10301000FF70FFF796FF0C2140F6FF70FFF791FF5E
:103020001CBD70B504460D460020154908602146B8
:10303000124804F0D0F800BF0221104804F014F93F
:103040000028F9D001200E49086070BD10B500209D
:103050000B4908604AF2FF01084804F0BCF800BFC1
:103060000221064804F000F90028F9D001200449A3
:10307000086010BD704700000004024000300140AD
:103080009C8240420080404210B504466FF004002C
:1030900001F022FFE11704EB5171C1F3C701394A76
:1030A00011701046007800EB4001C1EBC0104FF6E4
:1030B000FF7101EAC0003449088010BD0146314A61
:1030C00012784A434FF0E0235A6100229A611A466F
:1030D000126942F001021A6100BF4FF0E02210694C
:1030E00000F001021AB100F48032002AF5D04FF04E
:1030F000E022126922F001024FF0E0231A6100225F
:103100009A6170470146204A12884A434FF0E023F3
:103110005A6100229A611A46126942F001021A614C
:1031200000BF4FF0E022106900F001021AB100F474
:103130008032002AF5D04FF0E022126922F001021D
:103140004FF0E0231A6100229A61704770B504467F
:103150004FF4077094FBF0F0C6B24FF4077094FB85
:10316000F0F100FB114085B205E04FF40770FFF766
:10317000C9FF701EC6B2002EF7D115B12846FFF761
:10318000C1FF70BDC80B0020CA0B0020014600BF64
:10319000704700BFFE4A128802F04002002AF9D0B0
:1031A000C2B2FB4B9A8000BFFA4A128802F040027A
:1031B000002AF9D0C2B2F74B1B1D1A80704710B518
:1031C00088B004460121084602F0C8F90121102008
:1031D00002F01EFA07220921EF4801F0ACFF072296
:1031E0000A21ED4801F0A7FF4FF4C06006900220CD
:1031F0008DF81C008DF81D0000208DF81E000120A8
:103200008DF81F0006A9E44801F00AFF029400208F
:10321000ADF80C00ADF80E00ADF81000ADF81400DC
:103220000C20ADF8120002A9D94802F09CFB012144
:10323000D74802F020FC4021D54802F004FD0122CD
:1032400040F22551D24802F0CCFC25208DF8040034
:1032500002208DF8050001208DF806008DF807008A
:1032600001A801F0ECFD0121042002F077F9012111
:10327000C80402F0BCF908220A21C84801F05BFF2B
:1032800008220B21C54801F056FF4FF4406006901C
:1032900002208DF81C008DF81D0000208DF81E0006
:1032A00001208DF81F0006A9BC4801F0B9FE029468
:1032B0000020ADF80C00ADF80E00ADF81000ADF830
:1032C00014000820ADF8120002A9B24802F04BFB2E
:1032D0000121B04802F0CFFB4021AE4802F0B3FC20
:1032E00008B010BD704730B5034617E013F8015B16
:1032F00082EA052200240DE002F4004028B141F2E8
:10330000210080EA420082B203E04FF6FF7000EA3B
:103310004202641C082CEFDB92B2491E0029E5DC56
:10332000104630BD10B5044600BF4021984802F059
:103330007DFC0028F9D02146954802F0C7FB00BF6C
:103340004021934802F072FC0028F9D000BF4021D0
:10335000904802F06BFC0028F9D021468D4802F01D
:10336000B5FB00BF40218B4802F060FC0028F9D07B
:1033700010BD10B5044601208949087003E020788B
:10338000FFF7D0FF641C20780028F8D1844908702A
:1033900010BD2DE9F047054688461446002600205A
:1033A00020603A223146761C6254A05529462046B8
:1033B00005F003FA7BA1204605F0FFF941462046BF
:1033C00005F0FBF9204605F0D9F981464FF6FF726A
:1033D00049462046FFF787FF0746390A204605F091
:1033E000ECF9F9B2204605F0E8F96FA1204605F0A6
:1033F000E4F9BDE8F08770B50024002540F22551BE
:10340000634802F029FC00287ED0614802F062FB8C
:103410006649674A12888854084665490988405CAD
:103420003A2806D101206349087061480088624942
:10343000088060480078002867D05D48008810B98F
:1034400040F22B1603E05A480088401E86B25748C7
:1034500057490988405C0A2857D15448805D0D2897
:10346000FAD155480088C01CB0F5967F05DB52485C
:103470000088A0F2291084B203E04F480088C01CE5
:1034800084B24D480088401DB0F5967F05DB4A4860
:103490000088A0F2271085B203E047480088401D4D
:1034A00085B24248005D732822D14048405D3328F0
:1034B0001ED142480078022805D1032040490870F7
:1034C0003E49087014E03D48007888B93D4A3EA165
:1034D0003EA0FFF75EFF3B48FFF74BFF4FF49671AE
:1034E000324805F076F900203B49088030490880D1
:1034F0002E48005D732825D12C48405D392821D104
:103500002E480078022801E017E10AE105D10920E0
:103510002B4908702949087014E02848007888B9B8
:10352000284A29A129A0FFF734FF2648FFF721FFE9
:103530004FF496711D4805F04CF90020264908808B
:103540001B4908801948005D732850D11748405D19
:1035500035284CD105201A4908704FF4967113484C
:1035600005F037F900201C49088011490880012026
:1035700080F3138800BF00BFBFF34F8F1748006868
:1035800000F4E06016490843001D1449086029E072
:1035900000100140004C00400000024000080240C2
:1035A000DE0B00203D000000210D0A00C81800209D
:1035B000DA0B0020D40B0020D60B002000000020E6
:1035C000FA0B0020FC0C0020370000006469616CDD
:1035D0006F67626F78000000DC0B00200CED00E0EC
:1035E0000000FA05BFF34F8F00BF00BFFEE7FE48A3
:1035F000005D732832D1FC48405D31282ED1012076
:10360000FA490870FA48008800F0010030B1002142
:10361000F74802F0FDFE0120F6490870F6480088E0
:1036200000F0010068B1F5480078012802D1F449A2
:10363000087003E00021F04802F0EAFE0120F149A1
:103640000870F148008800F0010030B10021EE4818
:1036500002F0DEFE0120ED49087000BFE248005D87
:1036600073285BD1E048405D302857D12021E848DD
:1036700001F038FD012808D1E64AE7A1E7A0FFF7ED
:1036800088FEE448FFF775FE47E0E24AE5A1E3A0C3
:10369000FFF77FFEDF48FFF76CFE0420D349087078
:1036A000D4480078012803D0DF480078012808D1E9
:1036B0000121CF4802F0ACFE0020CE490870DA4963
:1036C0000870D0480078012803D0D8480078012835
:1036D00012D1CA480078012805D10020C8490870D5
:1036E000D349087003E00121C34802F091FE002095
:1036F000C4490870CD490870C4480078012803D037
:10370000CC480078012808D10121BF4802F080FE92
:103710000020BE490870C749087000BF0020C64994
:103720000870C6480088401CC449088008460088C4
:10373000B0F5967F01DB0020088070BD10B504460F
:103740002146BF4802F0C2F900BF4021BC4802F048
:103750006DFA0028F9D010BD10B5044603E02078BA
:10376000FFF7ECFF641C20780028F8D110BD30B5BD
:10377000014600230022002423E07AB9087830288B
:1037800002DB0878392802DD08782D2806D10122CD
:1037900008782D280BD10124491C08E0012A06D104
:1037A0000878302802DB0878392800DD0CE0012A8F
:1037B00006D10878303803EB830500EB450083B26F
:1037C000491C08780028D8D100BF0CB1584230BD40
:1037D0001846FCE72DE9F04F89B025E399480188A8
:1037E0000088401C974A10807F48405C96490870CA
:1037F00010460088B0F5967F02DB00201146088055
:103800009248007800BB92480078E8B18E48007872
:103810009049914A1288885408468F490988405C2B
:103820000A280CD18C480088401E8A49085C0D2863
:1038300005D1012085490870002085490870864817
:103840000088401C844908808148007848B97E4837
:1038500000783A2805D101207D49087000207E4972
:1038600008807A4800780028B7D04FF0000AD34685
:103870000025202101A804F0CEFF00207349087024
:103880003A208DF80400734804F078FFA0F1030992
:103890004A46704901A804F029FF01A804F06EFF10
:1038A00081464FF6FF72494601A8FFF71CFD00F064
:1038B000FF08202101A804F0AEFF664804F05EFF77
:1038C00000F0FF0B634F3C4608E0641C681CC5B267
:1038D000042D03DB61A0FFF74CFD02E020783D28BA
:1038E000F3D100BF00202070661C00E0641C20782B
:1038F0000A28FBD1002004F8040C3946584804F08B
:1039000019FF3146574804F015FF1021514804F0C3
:1039100060FF5448FFF72BFF53490880B8F1000FB0
:103920005FD14F48807841383A285BD2DFE800F019
:10393000F2F1F0EFEEEDECEBEAE9E8E7E6E5E4E3DF
:10394000E2E1E0DFDEDDDCDBDAD95A5A5A5AD85A36
:1039500031363B40454AB9BEC3C8F31DD6D5D4D392
:10396000D2D15AD022CF27CE2CCD3F4800883F4914
:10397000088057E23C4800883D49088052E23A48B6
:1039800000883C4908804DE2374800883A49088061
:1039900048E2354800883949088043E232480088C7
:1039A000364948803EE2304800883449888039E210
:1039B0002D4800883149C88034E22B4800882F49BF
:1039C00008812FE226484078312859D032285CD02F
:1039D00033285FD0682862D123480088274948816E
:1039E0005DE020E21DE20000C81800200000002079
:1039F00000000140E50C002000040040AE02002061
:103A0000E40C0020E60C002000040140E70C00203C
:103A100000100240FC0C002031000000646F6F7247
:103A200000000000300000002000002021000020E5
:103A30002300002022000020D40B0020DA0B0020FD
:103A4000004C0040DC0B0020D90B0020D30B0020E1
:103A5000D80B0020581A0020F80B00204572720085
:103A6000160C00201B0C0020200C0020FC0B00205A
:103A7000FE0B0020000C00200E0C0020F41900208A
:103A8000FC480088FC49088009E0FA480088FB49A6
:103A9000088004E0F7480088F949088000BF00BFAB
:103AA000C0E1F4480088F7498881BBE1F14800880B
:103AB000F449C881B6E1EF480088F2490882B1E1D3
:103AC000EC480088EF494882ACE169E1D6E057E074
:103AD000CFE099E093E067E061E05BE055E01AE059
:103AE00064E157E150E149E142E13BE134E12DE19C
:103AF00026E11FE118E111E10BE105E1FFE0F9E04A
:103B0000F3E0EDE0E7E0E1E0DBE0D5E0CFE0C9E0C5
:103B1000C3E0BDE0B7E0DC484078303808282DD25B
:103B2000DFE800F004090E13181D2227D1480078A1
:103B3000D649087022E0CF480078D54908701DE0CA
:103B4000CC480078D349087018E0CA480078D249B8
:103B5000087013E0C7480078D04908700EE0C548E7
:103B60000078CF49087009E0C2480078CD49087054
:103B700004E0C0480078CC49087000BF00BF51E1A4
:103B8000BC480088BF4988824CE1BA480088BD49DA
:103B9000C88247E1B7480088BA49088342E1B5487E
:103BA0000088B84948833DE1B74840783038062856
:103BB00023D2DFE800F003080D12181DAD4800887D
:103BC000BA49088019E0AB480088B949088014E078
:103BD000A8480088B74908800FE0A648008800B2CE
:103BE000B549088009E0A3480088B449088004E08A
:103BF000A0480088B249088000BF00BF12E19D487C
:103C00000088A04988830DE19F4840783038082813
:103C10002DD2DFE800F004090E13181D2227954865
:103C20000078A849087022E092480078A6490870F8
:103C30001DE090480078A549087018E08D4800788C
:103C4000A349087013E08B480078A24908700EE081
:103C500088480078A049087009E0864800789F49A4
:103C6000087004E0834800789D49087000BF00BFD9
:103C7000D8E0804800888349C883D3E07D48008825
:103C800080490884CEE07B4800887E494884C9E0AA
:103C9000784800887B498884C4E076480088794960
:103CA000C884BFE07348008876490885BAE0714847
:103CB000008874494885B5E06E4800887149888558
:103CC000B0E06C4800886F49C885ABE0694800885F
:103CD0006C490886A6E0674800886A494886A1E0E2
:103CE00064480088674988869CE062480088654986
:103CF000C88697E05F4800886249088792E05D487F
:103D00000088604948878DE05A4800885D49888767
:103D100088E0584800885B49C88783E05548008898
:103D20005849A1F840007DE0524800885549A1F863
:103D3000420077E04F4800885249A1F8440071E002
:103D40004C4800884F49A1F846006BE0494800887C
:103D50004C49A1F8480065E0464800884949A1F867
:103D60004A005FE0434800884649A1F84C0059E00A
:103D7000404800884349A1F84E0053E03D48008880
:103D80004049A1F850004DE03A4800883D49A1F86B
:103D9000520047E0374800883A49A1F8540041E012
:103DA000344800883749A1F856003BE0364840784F
:103DB0003038092833D2DFE800F0050A0F14191E45
:103DC00023282D002B4800784649087027E0294811
:103DD00000784549087022E0264800784349087079
:103DE0001DE0244800784249087018E02148007816
:103DF0004049087013E01F4800783F4908700EE002
:103E00001C4800783D49087009E01A4800783C4990
:103E1000087004E0174800783A49087000BF00BFF6
:103E200000E000BF00BF00BF37480088374909885D
:103E300088427FF4D3AC09B0BDE8F08F70B5054679
:103E40000E4600240CE000BF4021314801F0EEFE98
:103E50000028F9D0295D2E4801F038FE601CC4B25C
:103E6000B442F0DB00BF4021294801F0DFFE00280A
:103E7000F9D070BD200C0020120C0020140C002082
:103E8000100C0020F4190020160C0020E60B002076
:103E9000DF0B0020E00B0020E10B0020E20B0020F4
:103EA000E30B0020E40B0020E50B0020020C0020B7
:103EB000040C0020060C0020080C00200A0C002036
:103EC0000C0C0020E70B0020E80B0020E90B002081
:103ED000EA0B0020EB0B0020EC0B0020ED0B002088
:103EE000EE0B0020EF0B0020F00B0020F10B002068
:103EF000F20B0020F30B0020F40B0020F50B002048
:103F0000F60B0020F70B0020DC0B0020DA0B002062
:103F1000001001402DE9F34F83B00F460025002625
:103F2000AB46A846002002900190FE480078002889
:103F30006AD00020FB49087000BFFB4804F01EFC5B
:103F400000F0FF0B00BF04E0F748805D0544701CE3
:103F5000C6B2ABF10400B042F6DCFF2095FBF0F1F5
:103F600000FB1155E843451CEDB22A46EFA102A81B
:103F700004F004FAEC4830440088ADF8040001A9CC
:103F800002A804F06FFC002838D1DFF89C933D2193
:103F9000484604F0A1FB20B10A21484604F09CFBEE
:103FA00018B9022005B0BDE8F08FDF4C04E0641CB6
:103FB00008F1010000F0FF0820783D28F7D1B8F1A2
:103FC000140F01DB0220EDE70020207004F1010A4C
:103FD00000E0641C20780A28FBD1002004F8030CC0
:103FE0004946039804F0A6FB5146384604F0A2FB6C
:103FF0001E21CD4804F0EDFB0020D3E71E21CA4866
:1040000004F0E7FB0220CDE70120CBE7F8B5002064
:10401000009000240025C7480288C7A1684604F024
:10402000ADF9C64A6946C6A0FFF7B3F9C348FFF722
:10403000A0F9C0484288C0A1684604F09FF9BF4A71
:104040006946C0A0FFF7A5F9BC48FFF792F9B94847
:1040500080883C2190FBF1F6304605F0B8FD84B233
:10406000B44880883C2190FBF1F201FB120085B23C
:104070002246B1A1684604F081F9B04A6946B2A06F
:10408000FFF787F9AD48FFF774F92A46AAA16846F9
:1040900004F074F9A94A6946ACA0FFF77AF9A74879
:1040A000FFF767F9A348C0883C2190FBF1F6304642
:1040B00005F08DFD84B29F48C0883C2190FBF1F251
:1040C00001FB120085B222469BA1684604F056F916
:1040D0009A4A69469EA0FFF75CF99848FFF749F9AC
:1040E0002A4695A1684604F049F9944A694699A080
:1040F000FFF74FF99148FFF73CF9F8BDF8B50020FC
:104100000090002400258B4802898BA1684604F0AA
:1041100035F98A4A694690A0FFF73BF98748FFF7CF
:1041200028F98448428984A1684604F027F9834A23
:1041300069468AA0FFF72DF98048FFF71AF97D48F4
:1041400080893C2190FBF1F6304605F040FD84B2B9
:10415000784880893C2190FBF1F201FB120085B286
:10416000224675A1684604F009F9744A69467CA0A4
:10417000FFF70FF97148FFF7FCF82A466EA1684671
:1041800004F0FCF86D4A694676A0FFF702F96B4827
:10419000FFF7EFF86748C0893C2190FBF1F6304605
:1041A00005F015FD84B26348C0893C2190FBF1F213
:1041B00001FB120085B222465FA1684604F0DEF8DA
:1041C0005E4A694668A0FFF7E4F85C48FFF7D1F85B
:1041D0002A4659A1684604F0D1F8584A694664A0B5
:1041E000FFF7D7F85548FFF7C4F85248008A3C213A
:1041F00090FBF1F6304605F0EAFC84B24D48008AA7
:104200003C2190FBF1F201FB120085B222464AA14B
:10421000684604F0B3F8494A694657A0FFF7B9F871
:104220004648FFF7A6F82A4643A1684604F0A6F8D8
:10423000424A694651A0FFF7ACF84048FFF799F8A9
:104240003C48408A3C2190FBF1F6304605F0BFFC2B
:1042500084B23848408A3C2190FBF1F201FB120005
:1042600085B2224634A1684604F088F8334A69468C
:1042700043A0FFF78EF83148FFF77BF82A462EA1BE
:10428000684604F07BF82D4A69463FA0FFF781F8A5
:104290002A48FFF76EF82748828A27A1684604F06B
:1042A0006DF8264A69463AA0FFF773F82348FFF7EE
:1042B00060F8F8BDF8B500200090002400251D48E6
:1042C000C28A1DA1684604F059F81C4A694631A00B
:1042D000FFF75FF81948FFF74CF81648028B16A154
:1042E000684604F04BF8154A69462BA0FFF751F8D1
:1042F0001248FFF73EF80F48408B3C2190FBF1F647
:10430000304605F064FC84B20A48408B3C2190FBA7
:10431000F1F201FB120085B2224607A1684604F0C3
:104320002DF83BE0D30B0020581A002025303278BE
:1043300000000000F419002025640000681A002025
:10434000666C6100616C62006C7A6D006C7A73005F
:104350006C646D006C64730066686500616866007B
:10436000687A6D00687A73006864316D000000003F
:10437000686431730000000068786D00687873002D
:104380006864326D00000000686432730000000051
:10439000766A7600666A6D00616A6E00FE4A69465A
:1043A000FEA0FEF7F6FFFC48FEF7E3FF2A46AFF259
:1043B0007801684603F0E2FFF74A6946F8A0FEF785
:1043C000E8FFF548FEF7D5FFF648808B3C2190FBCF
:1043D000F1F6304605F0FBFB84B2F248808B3C21BD
:1043E00090FBF1F201FB120085B22246AFF2B80158
:1043F000684603F0C3FFE84A6946EBA0FEF7C9FF31
:10440000E548FEF7B6FF2A46AFF2D401684603F04E
:10441000B5FFE14A6946E6A0FEF7BBFFDE48FEF7BE
:10442000A8FFE048C08B3C2190FBF1F6304605F038
:10443000CEFB84B2DB48C08B3C2190FBF1F201FB48
:10444000120085B22246AFF21011684603F096FFC3
:10445000D14A6946D8A0FEF79CFFCF48FEF789FFF6
:104460002A46AFF22C11684603F088FFCA4A694613
:10447000D2A0FEF78EFFC848FEF77BFFC948008C2C
:104480003C2190FBF1F6304605F0A1FB84B2C54813
:10449000008C3C2190FBF1F201FB120085B2224618
:1044A000AFF26C11684603F069FFBB4A6946C4A0CD
:1044B000FEF76FFFB848FEF75CFF2A46AFF288119F
:1044C000684603F05BFFB44A6946BFA0FEF761FF90
:1044D000B148FEF74EFFF8BDF8B50020009000246B
:1044E0000025B048428CAFF2B011684603F046FF99
:1044F000A94A6946B6A0FEF74CFFA748FEF739FF68
:10450000A848828CAFF2D011684603F037FFA24A68
:104510006946B0A0FEF73DFF9F48FEF72AFFA1487D
:10452000C08C3C2190FBF1F6304605F050FB84B284
:104530009C48C08C3C2190FBF1F201FB120085B23B
:104540002246AFF20C21684603F018FF924A6946F2
:10455000A1A0FEF71EFF9048FEF70BFF2A46AFF220
:104560002821684603F00AFF8B4A69469CA0FEF7A3
:1045700010FF8948FEF7FDFE8A48008D3C2190FB24
:10458000F1F6304605F023FB84B28648008D3C21CD
:1045900090FBF1F201FB120085B22246AFF26821D6
:1045A000684603F0EBFE7C4A69468FA0FEF7F1FEF9
:1045B0007948FEF7DEFE2A46AFF28421684603F012
:1045C000DDFE754A69468AA0FEF7E3FE7248FEF7F3
:1045D000D0FE7448408D3C2190FBF1F6304605F04A
:1045E000F6FA84B26F48408D3C2190FBF1F201FB5A
:1045F000120085B22246AFF2C021684603F0BEFE2B
:10460000654A69467CA0FEF7C4FE6348FEF7B1FE2A
:104610002A46AFF2DC21684603F0B0FE5E4A6946E6
:1046200077A0FEF7B6FE5C48FEF7A3FE5D48808DDE
:104630003C2190FBF1F6304605F0C9FA84B25948A6
:10464000808D3C2190FBF1F201FB120085B22246E5
:10465000AFF21C31684603F091FE4F4A69466AA0EA
:10466000FEF797FE4C48FEF784FE2A46AFF238313B
:10467000684603F083FE484A694665A0FEF789FE56
:104680004548FEF776FEF8BDF8B5002000900024FE
:1046900000254448C28DAFF26031684603F06EFEDB
:1046A0003D4A69465CA0FEF774FE3B48FEF761FE9A
:1046B0003C48028EAFF28031684603F05FFE364A16
:1046C000694656A0FEF765FE3348FEF752FE3548B0
:1046D000408E3C2190FBF1F6304605F078FA84B22A
:1046E0003048408E3C2190FBF1F201FB120085B274
:1046F0002246AFF2BC31684603F040FE264A6946C6
:1047000047A0FEF746FE2448FEF733FE2A46AFF2E6
:10471000D831684603F032FE1F4A694642A0FEF7D0
:1047200038FE1D48FEF725FE1E48808E3C2190FB7A
:10473000F1F6304605F04BFA84B21A48808E3C21DF
:1047400090FBF1F201FB120085B22246AFF2184154
:10475000684603F013FE104A694635A0FEF719FEBD
:104760000D48FEF706FE2A46AFF23441684603F0D4
:1047700005FE094A694630A0FEF70BFE0648FEF723
:10478000F8FD0848C08E3C2190FBF1F6304605F05C
:104790001EFA84B2034853E0681A00206A7A6D005A
:1047A0006A7A7300F41900206A64316D0000000019
:1047B0006A643173000000006A786D006A787300E3
:1047C0006A64326D000000006A6432730000000009
:1047D000663141006131420077317A6D000000009E
:1047E00077317A7300000000773164316D0000008A
:1047F00077316431730000007731786D000000007C
:104800007731787300000000773164326D0000006A
:10481000773164327300000066324700613248002D
:1048200077327A6D0000000077327A730000000062
:10483000773264316D00000077326431730000001C
:10484000C08E3C2190FBF1F201FB120085B22246A2
:10485000AFF21C51684603F091FDFE4A6946FEA086
:10486000FEF797FDFB48FEF784FD2A46AFF238516C
:10487000684603F083FDF74A6946F9A0FEF789FD13
:10488000F448FEF776FDF848008F3C2190FBF1F6E6
:10489000304605F09CF984B2F348008F3C2190FB30
:1048A000F1F201FB120085B22246AFF27451684664
:1048B00003F064FDE74A6946ECA0FEF76AFDE548AF
:1048C000FEF757FD2A46AFF29051684603F056FDB9
:1048D000E04A6946E7A0FEF75CFDDE48FEF749FDC9
:1048E000F8BDF8B50020009000240025DE48428F76
:1048F000AFF2BC51684603F041FDD64A6946DFA0DD
:10490000FEF747FDD348FEF734FDD748828FAFF25C
:10491000D851684603F032FDCE4A6946D8A0FEF76A
:1049200038FDCC48FEF725FDCF48C08F3C2190FBD9
:10493000F1F6304605F04BF984B2CB48C08F3C21EC
:1049400090FBF1F201FB120085B22246AFF2186132
:10495000684603F013FDBF4A6946CAA0FEF719FD79
:10496000BC48FEF706FD2A46AFF23461684603F004
:1049700005FDB84A6946C5A0FEF70BFDB548FEF730
:10498000F8FCB948B0F840003C2190FBF1F6304605
:1049900005F01DF984B2B448B0F840003C2190FB0A
:1049A000F1F201FB120085B22246AFF27461684653
:1049B00003F0E4FCA74A6946B6A0FEF7EAFCA54866
:1049C000FEF7D7FC2A46AFF29061684603F0D6FCAA
:1049D000A04A6946B1A0FEF7DCFC9E48FEF7C9FC80
:1049E000A148B0F842003C2190FBF1F6304605F0BA
:1049F000EEF884B29C48B0F842003C2190FBF1F202
:104A000001FB120085B22246AFF2D461684603F082
:104A1000B5FC904A6946A3A0FEF7BBFC8D48FEF7A3
:104A2000A8FC2A46AFF2F061684603F0A7FC894A69
:104A300069469EA0FEF7ADFC8648FEF79AFC8A48C0
:104A4000B0F844003C2190FBF1F6304605F0BFF889
:104A500084B28548B0F844003C2190FBF1F201FBA0
:104A6000120085B22246AFF23071684603F086FC30
:104A7000784A69468FA0FEF78CFC7648FEF779FCF1
:104A80002A46AFF24C71684603F078FC714A6946D9
:104A90008AA0FEF77EFC6F48FEF76BFCF8BDF8B508
:104AA00000200090002400256F48B0F84620AFF2A7
:104AB0007871684603F062FC664A694681A0FEF799
:104AC00068FC6448FEF755FC6748B0F84820AFF230
:104AD0009871684603F052FC5E4A69467AA0FEF778
:104AE00058FC5C48FEF745FC5F48B0F84A003C21A2
:104AF00090FBF1F6304605F06AF884B25A48B0F8F7
:104B00004A003C2190FBF1F201FB120085B22246E3
:104B1000AFF2DC71684603F031FC4E4A69466BA087
:104B2000FEF737FC4B48FEF724FC2A46AFF2F8713B
:104B3000684603F023FC474A694665A0FEF729FC56
:104B40004448FEF716FC4848B0F84C003C2190FB66
:104B5000F1F6304605F03BF884B24348B0F84C001B
:104B60003C2190FBF1F201FB120085B22246AFF628
:104B70003801684603F002FC364A694655A0FEF744
:104B800008FC3448FEF7F5FB2A46AFF654016846A8
:104B900003F0F4FB2F4A694650A0FEF7FAFB2D48BC
:104BA000FEF7E7FB3048B0F84E003C2190FBF1F6F1
:104BB000304605F00CF884B22B48B0F84E003C218A
:104BC00090FBF1F201FB120085B22246AFF698018C
:104BD000684603F0D3FB1F4A694642A0FEF7D9FBA3
:104BE0001C48FEF7C6FB2A46AFF6B401684603F040
:104BF000C5FB184A69463CA0FEF7CBFB1548FEF7FB
:104C0000B8FB1948B0F850003C2190FBF1F6304653
:104C100004F0DDFF84B21448B0F850003C2190FB52
:104C2000F1F201FB120085B22246AFF6F4016846AC
:104C300003F0A4FB074A69462CA0FEF7AAFB05482F
:104C4000FEF797FB2A46AFF61011684603F096FB75
:104C5000004A4FE0681A00207732786D00000000AB
:104C60007732787300000000F41900207732643244
:104C70006D000000773264327300000066334D002F
:104C800061334E0077337A6D0000000077337A731A
:104C900000000000773364316D0000007733643129
:104CA000730000007733786D00000000773378736D
:104CB00000000000773364326D0000007733643207
:104CC000730000006674530061745400747A6D00C0
:104CD000747A73007464316D000000007464317381
:104CE0000000000074786D00747873007464326D95
:104CF00000000000694637A0FEF74BFB3748FEF77F
:104D000038FBF8BDF8B50020009000240025344899
:104D1000B0F85220AFF6E011684603F02FFB2F4A9F
:104D2000694630A0FEF735FB2C48FEF722FB2C48E5
:104D3000B0F85420AFF60021684603F01FFB274A65
:104D4000694629A0FEF725FB2448FEF712FB2448FC
:104D5000B0F856003C2190FBF1F6304604F037FFE6
:104D600084B21F48B0F856003C2190FBF1F201FBE1
:104D7000120085B22246AFF64021684603F0FEFAE3
:104D8000164A694619A0FEF704FB1448FEF7F1FA2B
:104D90002A46AFF65C21684603F0F0FA0F4A6946EE
:104DA00013A0FEF7F6FA0D48FEF7E3FAF8BD10B5CA
:104DB000FFF72CF9FFF7A2F9FFF77CFAFFF78CFB5E
:104DC000FFF762FCFFF78DFDFFF769FEFFF79AFF23
:104DD00010BD00007464327300000000681A0020E7
:104DE000F41900206673590061735A00737A6D00DC
:104DF000737A73000948804709480047FEE7FEE7D9
:104E0000FEE7FEE7FEE7FEE7FEE7FEE7FEE7FEE77A
:104E100004480549054A064B70470000B50E0008D6
:104E200089010008F01D0020F0230020F01F002061
:104E3000F01F002032490143324A1160704770B5BB
:104E4000002100230F22C4781CB32E4C246804F4E4
:104E5000E064C4F5E064C4F30721C1F10404E3B2E3
:104E60000A4144789C40E1B28478144021430C0705
:104E7000210E254C05786155047804F01F050124A6
:104E8000AC4005786D11AD0005F1E025C5F8004195
:104E900009E0047804F01F050124AC401B4D06789E
:104EA000761145F8264070BD194A0A400243154B59
:104EB0001B1F1A60704739B1124A121D1268024353
:104EC000104B1B1D1A6006E00E4A121D1268824329
:104ED0000C4B1B1D1A607047042808D14FF0E021CD
:104EE000096941F004014FF0E022116107E04FF041
:104EF000E021096921F004014FF0E02211617047BF
:104F00000000FA050CED00E000E400E080E100E0C4
:104F100080FFFF1F10B504469848844208D1012144
:104F2000084600F086FB0021012000F082FB76E0BD
:104F30009348844208D10121022000F07AFB00212D
:104F4000022000F076FB6AE08E48844208D10121FD
:104F5000042000F06EFB0021042000F06AFB5EE0FC
:104F60008948844208D10121082000F062FB002119
:104F7000082000F05EFB52E08448844208D1012101
:104F8000102000F056FB0021102000F052FB46E0FC
:104F90007F48844208D10121202000F04AFB0021F3
:104FA000202000F046FB3AE07A48844208D10121F3
:104FB000402000F03EFB0021402000F03AFB2EE0B4
:104FC0007548844208D10121802000F032FB002185
:104FD000802000F02EFB22E07048844208D101219D
:104FE000801500F026FB0021A01500F022FB16E042
:104FF0006B48844208D10121401500F01AFB0021C2
:10500000601500F016FB0AE06648844207D10121D2
:10501000001500F00EFB0021201500F00AFB10BD6A
:10502000F0B50A4600210023002400BF3DE0012521
:1050300005FA01F3156805EA03049C4234D10568BA
:105040004F000326BE40B543056015794E00B540BC
:105050000668354305601579012D02D01579022DBA
:1050600016D185684F000326BE40B543856055794B
:105070004E00B540866835438560456801268E4000
:10508000B5434560456896798E40B6B23543456074
:10509000C5684F000326BE40B543C560D5794E00B4
:1050A000B540C6683543C560491C1029BFD3F0BD63
:1050B0004FF6FF7101600021017141718171C17171
:1050C000704708B54FF480320092009A0A4300926C
:1050D000009AC261C161009AC261C2690092C2694C
:1050E000009208BD0246002013690B400BB101205D
:1050F00000E0002070470146086980B27047024610
:10510000002053690B400BB1012000E000207047E4
:105110000146486980B270470183704741837047F8
:105120000AB1018300E041837047416170474269E1
:105130004A4042617047F0B5002300244D07ED0E50
:1051400002FA05F3CE1000F1200555F826504E075F
:10515000F70E0F26BE40B543CF1000F1200646F8EB
:105160002750CE1000F1200555F8265045EA0304DB
:10517000CE1000F1200545F82640F0BD00000240A9
:105180000004024000080240000C024000100240EF
:105190000014024000180240001C0240002002409F
:1051A0000024024000280240F948006840F0010055
:1051B000F74908600020F64908310860F4480068A3
:1051C000F4490840F2490860F348091D0860F348B3
:1051D000EF4984310860F0481038091D0860EC4838
:1051E000006820F48020EA4908600020E8490C317A
:1051F0000860E7498C31086070470021E44A921C3E
:10520000117011460870704710B501460022002346
:1052100000204A11012A02D1DD4C236808E0022A4D
:1052200003D1DB4C7034236802E0D94C743423681A
:1052300001F01F02012494401C400CB1012000E049
:10524000002010BD38B5002000900024002500BFCC
:105250003120FFF7D9FF05460098401C00900098C8
:10526000B0F5A04F01D0002DF2D03120FFF7CCFFD8
:1052700008B1012400E00024204638BD014600208A
:10528000C34A106820F0F80040EAC100106070477F
:10529000C349086070470021BD4A70321170117017
:1052A000012802D004280AD104E00121B84A703252
:1052B000117005E00521B64A7032117000E000BFA0
:1052C00000BF7047B7490860704770B5049C41EA59
:1052D00082150126C6EB530645EA0645054345EA15
:1052E0000465AB4E361D356070BDAD49086670472C
:1052F000820142EA0172A64B84331A607047A849C2
:105300008866704710B5830143EA016343EA02737C
:105310009F4C8834236010BDA14908677047A0499D
:10532000C864704702460020994B0833186820F083
:10533000EC6042EA01031843954B0833186070474C
:1053400002460020924B0833186820F0784042EA69
:10535000010318438E4B0833186070470146002044
:105360008B4A0832106820F0030008431060704731
:1053700087480830006800F00C00704701460020A4
:10538000834A0832106820F0F0000843106070472C
:10539000014600207E4A0832106820F4E05008439D
:1053A0001060704701460020794A0832106820F4E6
:1053B000604040EAC10010607047F0B50021002253
:1053C0000024022500260223714F08373F6807F0AA
:1053D0000C0121B1042905D0082937D105E0724F0D
:1053E000076036E0714F076033E0694F3F1D3F684B
:1053F000C7F38056664F3F1D3F6807F03F036EB10D
:105400006A4FB7FBF3F7DFF888C10CF1040CDCF846
:1054100000C0CCF3881C07FB0CF40CE0624FB7FB18
:10542000F3F7DFF86CC10CF1040CDCF800C0CCF32E
:10543000881C07FB0CF4564F3F1D3F68C7F301471C
:105440007F1C7D00B4FBF5F7076002E0564F076054
:1054500000BF00BF4E4F08373F6807F0F001090951
:10546000534F7A5C0768D7404760494F08373F6819
:1054700007F4E051890A4E4F7A5C4768D74087604D
:10548000434F08373F6807F46041490B484F7A5C47
:105490004768D740C760F0BD002100F44072B2F504
:1054A000407F0AD13A4A0832116821F4F811414A82
:1054B00002401143364A08321160354A7032126890
:1054C000C0F30B031A43324B70331A6070473549EF
:1054D000443908607047334940390860704736499D
:1054E0000860704701460020294A8C32106820F07D
:1054F0001F004A1E1043264A8C3210607047014636
:105500000020234A8C32106820F4F8504A1E40EAEA
:1055100002201F4A8C3210607047014600201C4A4E
:105520008C32106820F44010084310607047014628
:105530000020174A8C32106820F4400008431060A5
:10554000704701460020124A8C32106820F4403027
:1055500008431060704719490860704739B10C4A18
:105560003032126802430A4B30331A6006E0084AB0
:10557000303212688243064B30331A607047F9B1FB
:10558000034A343212680243014B34331A601CE080
:1055900000380240FFFFF6EA1030002400300020FF
:1055A00000004742800E47420024F40000127A00B7
:1055B000E80C0020FFFCFF0F5C014742E01147426E
:1055C0008F4A126882438E4B1A60704739B18C4AF9
:1055D000121D126802438A4B1B1D1A6006E0884A9E
:1055E000121D12688243864B1B1D1A60704739B129
:1055F000834A0C3212680243814B0C331A6006E076
:105600007F4A0C32126882437D4B0C331A6070471C
:1056100039B17B4A103212680243794B10331A6059
:1056200006E0774A103212688243754B10331A60D5
:10563000704739B1724A243A12680243704B243BD6
:105640001A6006E06E4A243A126882436C4B243B8F
:105650001A60704739B16A4A203A12680243684BAF
:10566000203B1A6006E0664A203A12688243644B87
:10567000203B1A60704739B1614A1C3A12680243F4
:105680005F4B1C3B1A6006E05D4A1C3A126882437D
:105690005B4B1C3B1A60704739B1594A143A126887
:1056A0000243574B143B1A6006E0554A143A1268FD
:1056B0008243534B143B1A60704739B1504A103A39
:1056C000126802434E4B103B1A6006E04C4A103AF7
:1056D000126882434A4B103B1A60704739B1484AFE
:1056E0001C3212680243464B1C331A6006E0444ADF
:1056F0001C3212688243424B1C331A60704739B126
:105700003F4A2032126802433D4B20331A6006E0C4
:105710003B4A203212688243394B20331A6070476B
:1057200039B1374A243212680243354B24331A60A8
:1057300006E0334A243212688243314B24331A6024
:10574000704739B12E4A2C32126802432C4B2C334D
:105750001A6006E02A4A2C3212688243284B2C3306
:105760001A60704739B1264A303212680243244B1E
:1057700030331A6006E0224A303212688243204BEE
:1057800030331A607047012808D11D493C3109683F
:1057900041F008011A4A3C32116007E018493C31D7
:1057A000096821F00801164A3C321160704739B18E
:1057B000134A273A12780243114B273B1A7006E02E
:1057C0000F4A273A127882430D4B273B1A707047D5
:1057D0000B484030006840F0807009494031086053
:1057E000704701460020064A283A12680A400AB16A
:1057F000012000E0002070470149263908707047F9
:105800003438024010B501218803FFF756FF00210C
:105810004FF48040FFF751FF10BD1C4908607047EE
:105820001B490862704730B500228B071C0F0F23FD
:1058300003FA04F2154B08338C1053F824309343C9
:10584000124C08348D1044F8253023468C1053F840
:1058500024308C07240F00FA04F423430B4C083443
:105860008D1044F8253030BD0949DC31086070479F
:10587000084908607047002004492031096801F494
:10588000807109B1012000E000207047003801401C
:10589000000027420004274210B50446FA4884421B
:1058A00008D101211020FFF708FF00211020FFF789
:1058B00004FF57E0F548844209D101214804FFF76D
:1058C000EBFE00214FF40030FFF7E6FE4AE0F0481F
:1058D000844209D101218804FFF7DEFE00214FF444
:1058E0008020FFF7D9FE3DE0EA48844209D101213A
:1058F000C804FFF7D1FE00214FF40020FFF7CCFED3
:1059000030E0E548844209D101210805FFF7C4FED3
:1059100000214FF48010FFF7BFFE23E0DF488442F0
:1059200008D101212020FFF7C8FE00212020FFF729
:10593000C4FE17E0DA48844209D101218807FFF745
:10594000ABFE00214FF08040FFF7A6FE0AE0D548ED
:10595000844207D101214005FFF79EFE002160052A
:10596000FFF79AFE10BD2DE9FF4705460E460024BD
:10597000A14600BFA046B08900B100BF2C8A24F424
:105980004054F08804432C82AC8941F20C6084437B
:10599000B08831890843718908430443AC81AC8ADB
:1059A00024F44074B0890443AC826846FFF705FDD7
:1059B000B548854202D0B948854202D1DDF80C9045
:1059C00001E0DDF80890A88900F4004040B109EB3F
:1059D000C90000EB091031684900B0FBF1F707E09E
:1059E00009EBC90000EB091031688900B0FBF1F741
:1059F0006420B7FBF0F004012009642101FB10785A
:105A0000A88900F4004040B1322000EBC800B0FB90
:105A1000F1F000F00700044308E0322000EB08102A
:105A20006421B0FBF1F000F00F0004432C81BDE8CD
:105A3000FF874FF41651016000218180C1800181F0
:105A40000C21418100218181704710B50246002060
:105A5000108A20F470600B884C8823438C88234381
:105A6000CC8823431843108210BD0021018041805F
:105A70008180C180704721B1828942F400528281C5
:105A800004E082894DF6FF731A4082817047028BD1
:105A900002F47F420283028B0A430283704721B1E2
:105AA000828942F40042828103E08289C2F30E02BD
:105AB0008281704721B1828A42F40062828204E0CE
:105AC000828A4FF2FF731A4082827047C1F3080244
:105AD0008280704701468888C0F308007047028AB8
