:020000040800F2
:10000000E8270020614D0008B50D0008B70D000875
:10001000BB0D0008BF0D0008C30D00080000000064
:10002000000000000000000000000000C70D0008F4
:10003000C90D000800000000CB0D0008CD0D000820
:100040007B4D00087B4D00087B4D00087B4D000870
:100050007B4D00087B4D00087B4D00087B4D000860
:10006000E10F0008171000084D1000087B4D000834
:100070007B4D00087B4D00087B4D00087B4D000840
:100080007B4D00084B3200087B4D00087B4D00087B
:100090007B4D00087B4D00087B4D00088310000855
:1000A0007B4D00086F1A00087B4D00087B4D00084F
:1000B0007B4D0008BD1B00087B4D00087B4D0008F0
:1000C0007B4D00087B4D00087B4D00087B4D0008F0
:1000D0007B4D0008073300087B4D0008852B000886
:1000E0007B4D00087B4D00087B4D00087B4D0008D0
:1000F000A31C00087B4D00087B4D00087B4D0008C9
:100100007B4D00087B4D0008851300087B4D0008DF
:100110007B4D00087B4D00087B4D0008B92D000881
:10012000052700087B4D00087B4D00087B4D00082B
:100130007B4D00087B4D00087B4D00087B4D00087F
:100140007B4D00087B4D00087B4D00087B4D00086F
:100150007B4D00087B4D00087B4D00087B4D00085F
:100160007B4D00087B4D00087B4D00087B4D00084F
:100170007B4D00087B4D00087B4D00087B4D00083F
:100180007B4D00087B4D000800F002F800F0B6F847
:100190000AA090E8000C82448344AAF10107DA45E2
:1001A00001D100F0ABF8AFF2090EBAE80F0013F07E
:1001B000010F18BFFB1A43F00103184738A20000D3
:1001C00058A2000010F8013B0A4413F0030408BFD2
:1001D00010F8014B1D1108BF10F8015B641E05D01B
:1001E00010F8016B641E01F8016BF9D1002D15D0D8
:1001F00010F8014B03F00C030C2BA1EB04040ABF15
:1002000010F8013BA4EB8314A4EB032405F10103D4
:1002100014F8016B5B1E01F8016BF9D5914238BFF0
:1002200010F8013BD1D3704700230024002500269D
:10023000103A28BF78C1FBD8520728BF30C148BF49
:100240000B6070476E2908F03483702908F00B8129
:1002500066290AF0618065290AF05E8067290AF044
:100260005B806129AFF3008003681B0A28BF41F05F
:100270008001692908F07E80642908F07B80752957
:1002800008F078806F2908F03586782908F0D78043
:10029000E92908F0D185E42908F0CE85F52908F090
:1002A000CB85EF2908F03286F82908F0D68003685C
:1002B000DB0928BF41F08001632908F040857329DC
:1002C00008F04585E32908F0E786F32908F0EC8675
:1002D000002070471FB50AF01AF808F049FE040024
:1002E0000020002109F032FC401C60600020002149
:1002F00009F016FCE0601FBD10B510BD08F06CFFE2
:100300001146FFF7E7FF00F009F808F093FF03B488
:10031000FFF7F2FF03BC02F0F7FE00002DED048BA7
:100320004FF4A06004F03CFD00F0F5FEA82002F0C0
:1003300069FE4FF4165002F0F5FE00F05FFF01F089
:100340001DFA292140F69F7001F08BFA292140F611
:100350009F7001F0DDFA532140F69F7001F02FFBF2
:100360004FF4FA6002F0B0FE4FF4FA7002F0ACFE07
:100370000020FE490860FE49C1F8B802FD49086046
:100380004FF4FA7002F0A0FE0120FB490860F74923
:100390000860FA49C1F8A4024FF4FA7002F094FE22
:1003A00001F076FF02F020F802F0CBFD02F0C4F875
:1003B00042F2CF0141F2863000F0B5FF0121F04852
:1003C00005F0DCFF00F092FF0121880705F0D6FF61
:1003D0001DE103F0A1F9EB480088012807D10220B4
:1003E000E84908800120E449183908600AE0E54836
:1003F0000088032806D10220E24908800020DE4957
:1004000018390860DF480088052810D10220DD492E
:100410000880DD4802884FF44871012001F068FC33
:100420004FF4FA624FF41671002001F0A4FCD54895
:100430000088072809D10220D24908806422C821F7
:10044000002001F0CBFC01F023FFCE4800881028EB
:1004500007D10220CB4908800120C7491039086024
:100460000AE0C8480088112806D10220C549088042
:100470000020C14910390860C24800880838122895
:100480005AD2DFE800F0090E13181D22272C595903
:1004900031363B40454A4F540120B7491C3908606A
:1004A0004BE00020B4491C39086046E00120B24905
:1004B0002839086041E00020AF49283908603CE055
:1004C0000120AD492439086037E00020AA492439C9
:1004D000086032E00120A849203908602DE00020A2
:1004E000A5492039086028E00120A3492C3908607B
:1004F00023E00020A0492C3908601EE001209E491D
:100500003839086019E000209B493839086014E048
:1005100001209949343908600FE0002096493439A8
:1005200008600AE0012094493039086005E00020A5
:1005300091493039086000E000BF00BF934800884F
:10054000012803D18C49143908600AE08F480088DB
:1005500018B18E480088032803D100208649143939
:1005600008608B48007803282ED18A4800888A4981
:100570000988884228D12021884804F069FD012893
:1005800016D100208249087002208549087085A094
:1005900002F090FE4FF41671864808F0B8F800207B
:1005A0007C4908807C490880642002F08DFD0BE0C6
:1005B00004207B49087000207F4908707F4908703B
:1005C0007F49087007F075F87148007809281ED136
:1005D00070480088704909888842F8D120216F4806
:1005E00004F036FD012813D100206949087002206B
:1005F0006B49087073A002F05DFE4FF416716D48F0
:1006000008F085F800206349088063490880B9E351
:100610006348007809287CD10120574910390860C7
:100620006C48007808B9012000E0002052491C39CC
:1006300008606948007808B9012000E000204E49B0
:10064000283908606548007808B9012000E00020DA
:100650004949243908606248007808B9012000E05F
:1006600000204549203908605E48007808B901201B
:1006700000E0002040492C3908605B48007808B948
:10068000012000E000203C493839086057480078D4
:1006900008B9012000E00020374934390860544887
:1006A000007808B9012000E00020334930390860A3
:1006B00050480078002857D04F4800780028FAD0DA
:1006C0004E4800780028F6D04D4800780028F2D037
:1006D0004C4800780028EED04B4800780028EAD03B
:1006E0004A4800780028E6D0494800780028E2D03F
:1006F00007214048007802F08FF90546072102F0F3
:10070000DEFB05213C48007802F086F9054605210C
:1007100000E05FE102F0D3FB03213848007802F0EB
:100720007BF90546032102F0CAFB01213448007819
:1007300002F072F90546012102F0C1FB04213148A3
:10074000007802F069F90546042102F0B8FB0621A1
:100750002D48007802F060F90546062102F0AFFB53
:1007600000212A48007855E01FE10000B002404215
:1007700000804142A4024142B8824142000041420D
:10078000000C0040FC0B0020100C0020FE0B002091
:10079000FA0B0020DC0B0020DA0B002000100240D6
:1007A000000000203A6469616C6F67626F783D38C1
:1007B000210D0A0040190020A8020020A9020020F3
:1007C000AA0200206469616C6F67626F783D38210E
:1007D0000D0A0000E70B0020E80B0020E90B0020C9
:1007E000EA0B0020EB0B0020EC0B0020ED0B0020AF
:1007F000EE0B0020E60B0020DF0B0020E00B0020BA
:10080000E10B0020E20B0020E30B0020E40B0020B2
:10081000E50B002002F000F90546002102F04FFB35
:100820000221F748007802F0F7F80546022102F0AD
:1008300046FB4FF47A7002F047FCF248007801283A
:1008400012D100BFF04890ED070AF0EE000A70EEFA
:10085000200AEE48007800EE100AB8EE400AF4EEE6
:10086000C00AF1EE10FAEDD3E9480078012812D160
:1008700000BFE54890ED040AF0EE000A70EE200A91
:10088000E448007800EE100AB8EE400AF4EEC00A20
:10089000F1EE10FAEDD3E0480078012812D100BF44
:1008A000D94890ED050AF0EE000A70EE200ADB4808
:1008B000007800EE100AB8EE400AF4EEC00AF1EE3D
:1008C00010FAEDD3D6480078012812D100BFCE48E7
:1008D00090ED060AF0EE000A70EE200AD14800788A
:1008E00000EE100AB8EE400AF4EEC00AF1EE10FA7B
:1008F000EDD3CD480078012812D100BFC24890ED59
:10090000030AF0EE000A70EE200AC848007800EEF4
:10091000100AB8EE400AF4EEC00AF1EE10FAEDD378
:10092000C3480078012812D100BFB74890ED000AF3
:10093000F0EE000A70EE200ABE48007800EE100AC1
:10094000B8EE400AF4EEC00AF1EE10FAEDD3BA4860
:100950000078012812D100BFAB4890ED010AF0EEFB
:10096000000A70EE200AB548007800EE100AB8EED2
:10097000400AF4EEC00AF1EE10FAEDD3B048007868
:10098000012812D100BFA04890ED020AF0EE000A43
:1009900070EE200A9A48007800EE100AB8EE400A7D
:1009A000F4EEC00AF1EE10FAEDD3A64802884FF437
:1009B0001671012001F09CF9A34802884FF4487198
:1009C000002001F0D8F9A14802884FF448710020B6
:1009D00001F004FA04209E4908709E48008801280E
:1009E00061D100209B4908809B48B0F90000002895
:1009F00011DA9948B0F90050002D01DB284600E0DB
:100A000068424FF4E15100FB01F24FF416710020EF
:100A100001F06EF910E09048B0F90050002D01DBB4
:100A2000284600E068424FF4E15100FB01F24FF428
:100A30001671012001F05CF94FF4C86251100020DA
:100A400001F099F98548007809F077F99FED840B5A
:100A500053EC102B09F0C0F909F042F984B20020E0
:100A60007E49087022464FF44871012001F083F955
:100A70007D480088C0EB001082007C4801887C48DB
:100A8000008801F062FAC4F5C86082B24FF4487180
:100A9000012001F070F9774A77A178A003F052FAAB
:100AA000744802F007FC6B480088022841D10020FE
:100AB000684908806848B0F90000002811DA6648E3
:100AC000B0F90050002D01DB284600E068424FF4E9
:100AD000E15100FB01F24FF41671002001F008F91A
:100AE00010E05D48B0F90050002D01DB284600E021
:100AF00068424FF4E15100FB01F24FF416710120FE
:100B000001F0F6F858490988C1EB0111890001EBA1
:100B10004102C2EBC1114FF6FF7202EAC10002F0BE
:100B2000D3FA544A54A155A003F00CFA514802F0EC
:100B3000C1FB48480088032843D10020454908806C
:100B40004548B0F90000002811DA4348B0F90050D8
:100B5000002D01DB284600E068424FF4E15100FB24
:100B600001F24FF41671002001F0C2F810E03A488B
:100B7000B0F90050002D01DB284600E068424FF438
:100B8000E15100FB01F24FF41671012001F0B0F8C1
:100B90004FF4C8623C480188002001F052F905205A
:100BA00002F092FA4FF4C86237480188012001F040
:100BB00048F9304A30A131A003F0C4F92D4802F0C1
:100BC00079FB24480088042819D100202149088095
:100BD0002148B0F90000002858DA1F48B0F9005049
:100BE000002D01DB284600E068424FF4E15100FB94
:100BF00001F24FF41671002001F07AF857E075E029
:100C0000E50B0020E70B0020DC0D0020E60B0020A8
:100C1000E80B0020E20B0020E90B0020DF0B002096
:100C2000EA0B0020E30B0020EB0B0020E00B002080
:100C3000EC0B0020E40B0020ED0B0020E10B00206A
:100C4000EE0B0020100C0020120C0020140C0020D1
:100C500000000020020C0020080C0020EF0B0020F8
:100C60006666666666A643400C0C0020060C0020F3
:100C7000040C0020FC0C0020310000006F7665722F
:100C8000666C6167000000000A0C00203E48B0F965
:100C90000050002D01DB284600E068424FF4E1518E
:100CA00000FB01F24FF41671012001F021F840F22F
:100CB000465236480188002001F0C3F840F24652FF
:100CC0004FF44871012001F089F840F246524FF488
:100CD0004871012001F04FF82D4AAFF26401AFF2E4
:100CE000640003F02FF92A4802F0E4FA294800884A
:100CF000012847D1002027490880012026490860A3
:100D00002649C1F89002244908390860091D086085
:100D100021491039086020491C390860091D086004
:100D20001E49C1F888021A4A1DA1AFF2B00003F0B3
:100D300009F9174802F0BEFA00201A49088000BFDE
:100D4000184800886428FBDB002013490C31086038
:100D500001F078FB002014490870012080F313880B
:100D600000BF00BFBFF34F8F1048006800F4E06081
:100D70000F490843001D0D490860BFF34F8F00BFA6
:100D800000BFFEE7FFF725BB080C00200A0C00207F
:100D9000FC0C00200E0C00209C824142008041424D
:100DA0003200000002000020000000200CED00E0F6
:100DB0000000FA05704700BFFEE700BFFEE700BF76
:100DC000FEE700BFFEE770477047704770470000BE
:100DD0000CB50020019000907648006840F4803007
:100DE0007449086000BF7348006800F40030009048
:100DF0000198401C0190009818B90198B0F5A04FD7
:100E0000F1D16C48006800F4003010B1012000906E
:100E100001E0002000900098012846D1654840304C
:100E2000006840F0805063494031086062480068C3
:100E300040F44040604908605E48083000685D4901
:100E4000083108600846006840F400400860084621
:100E5000006840F4A05008605848091F0860081F47
:100E6000006840F08070091F086000BF51480068AA
:100E700000F000700028F9D040F205705049086079
:100E80004C480830006820F003004A4908310860E7
:100E90000846006840F00200086000BF454808307E
:100EA000006800F00C000828F8D10CBD10B54548CA
:100EB000006840F47000434908603E48006840F014
:100EC00001003C49086000203A490831086039486F
:100ED00000683D490840374908603C48091D0860E2
:100EE000081F006820F48020091F08600020314995
:100EF0000C310860FFF76CFF4FF00060314980391A
:100F0000086010BD70B500200022022300240221D9
:100F1000284D08352D6805F00C0020B1042806D0B6
:100F2000082834D107E02A4D2A4E356033E02A4D97
:100F3000284E35602FE01F4D2D1D2D68C5F38054C0
:100F40001C4D2D1D2D6805F03F0154B1224DB5FB00
:100F5000F1F5184E361D3668C6F3881605FB06F205
:100F600009E01B4DB5FBF1F5124E361D3668C6F390
:100F7000881605FB06F20F4D2D1D2D68C5F30145A2
:100F80006D1C6B00B2FBF3F5124E356003E0104DA3
:100F9000104E356000BF00BF064D08352D68C5F303
:100FA00003150E4E705D0B4D2D68C540094E356022
:100FB00070BD000000380240007000400854400737
:100FC000003C024088ED00E0FFFFF6FE10300024F8
:100FD0000024F4000400002000127A000800002021
:100FE00010B50A2002F070F80421AA4804F030F885
:100FF00068B10021A84805F0C1F90120A74908708F
:10100000A74800684FF6FB710840A5490860042016
:1010100005F075F810BD10B50A2002F055F808214A
:101020009C4804F015F868B100219E4805F0A6F927
:1010300001209D4908709A4800684FF6F7710840F2
:1010400097490860082005F05AF810BD10B50A202D
:1010500002F03AF810218F4803F0FAFF68B100213E
:10106000924805F08BF90120914908708C4800687E
:101070004FF6EF7108408A490860102005F03FF8EC
:1010800010BD10B50A2002F01FF82021814803F09E
:10109000DFFF01283BD187480078012802D186A0D4
:1010A00002F008F983480078042830D182A002F0C9
:1010B00001F901207F4908707748008800F001009D
:1010C00030B10021744805F059F901207E490870BB
:1010D0007448008800F0010068B17C48007801285D
:1010E00002D17B49087003E000216E4805F046F903
:1010F0000120784908706D48008800F0010030B187
:1011000000216A4805F03AF901207349087020204F
:1011100004F0F5FF10BD00B585B00121102004F0EA
:10112000D3F93C20009000208DF8040003208DF8B6
:10113000050002208DF807006946564803F026FF97
:101140000121880304F01AFA0221042004F021FB93
:101150000321042004F01DFB0421084604F019FBC0
:101160000521042004F015FB3C20029000208DF89E
:101170000C0008208DF80D0001208DF80E0002A84B
:1011800004F04CFF08208DF8100001208DF81100AC
:1011900003208DF8120001208DF8130004A803F03D
:1011A00004FE09208DF8100001208DF811000220A6
:1011B0008DF8120001208DF8130004A803F0F5FD4E
:1011C0000A208DF8100001208DF811008DF8120012
:1011D0008DF8130004A803F0E8FD17208DF8100027
:1011E00000208DF8110003208DF8120001208DF8E9
:1011F000130004A803F0D9FD05B000BD1CB5012102
:10120000182004F061F940F2FF70009001208DF881
:10121000040000208DF8060003208DF80500012051
:101220008DF8070069462D4803F0B0FE01200090BC
:101230008DF8040000208DF8060003208DF80500CD
:1012400001208DF807006946124803F09FFE012037
:10125000234908602349C1F89002214908390860F0
:10126000091D08601E49103908601D491C390860B5
:10127000091D0860091D086000201B490860184905
:10128000083108600120091F086000201549C1F8D5
:10129000A8021CBD0010024000000140AA0200206C
:1012A000003C014000040040A8020020000401406E
:1012B000A9020020000000203A6469616C6F676237
:1012C0006F783D35210D0A0020000020AE0200207D
:1012D000230000202100002022000020000C0240FA
:1012E0009C82414200804142800242420EB501216F
:1012F000084604F032F9684604F0EBFF0020ADF830
:1013000008002920ADF80000C72001900020ADF8AA
:10131000020069464FF0804004F0A7FF20214806F4
:1013200005F0FCFC0EBD7FB505460C4601210820EA
:1013300004F013F90295ADF804400020ADF8060062
:10134000ADF80C0001A9D44804F08FFF0121D24868
:1013500005F054FC01221146CF4805F027FC01217D
:10136000CD4805F00BF832208DF8000003208DF8F1
:10137000010001208DF802008DF80300684603F09B
:1013800014FD7FBD10B52DED028B86B00121C24842
:1013900005F023FC01286ED10121BF4805F02EFC89
:1013A000BE48008800F0010020B1BD480088401C04
:1013B000BB490880BB480078401CBA490870BA484D
:1013C0000078042804D1B9480088401CB749088037
:1013D000B748007820B1B7480088401CB54908805C
:1013E000B5480078002846D030227821B34807F06D
:1013F00086F9B34800780028CDD1AA4800780921A1
:1014000090FBF1F201FB120009281AD2DFE800F08C
:101410000534587CA0C4E8F4F3003022142101A85C
:1014200007F06DF9A748007860B99FEDA70B53EC62
:10143000102BA7A101A806F037FF01A99F4807F0CC
:1014400052F91FE1072001F063FA0446072101F079
:1014500002FBA34880ED070A90ED070A10EE101A70
:10146000084608F0E3FE41EC180B53EC182B98A04B
:1014700006F00EFF06E10AE19A48007838B99FEDC0
:101480009A0B53EC102B9AA006F002FFFAE004200E
:1014900001F03EFA0446042101F0DDFA904880EDA7
:1014A000040A90ED040A10EE101A084608F0BEFE79
:1014B00041EC180B53EC182B8DA006F0E9FEE1E08F
:1014C0008F48007838B99FED880B53EC102B8DA016
:1014D00006F0DEFED6E0052001F01AFA04460521EA
:1014E00001F0B9FA7E4880ED050A90ED050A10EE8C
:1014F000101A084608F09AFE41EC180B53EC182B12
:1015000080A006F0C5FEBDE08248007838B99FEDA6
:10151000760B53EC102B80A006F0BAFEB2E006204A
:1015200001F0F6F90446062101F095FA6C4880EDC9
:10153000060A90ED060A10EE101A084608F076FE2C
:1015400041EC180B53EC182B73A006F0A1FE99E0A8
:101550007548007838B99FED640B53EC102B73A0DD
:1015600006F096FE8EE0032001F0D2F90446032136
:1015700001F071FA5A4880ED030A90ED030A10EE6B
:10158000101A084608F052FE41EC180B53EC182BC9
:1015900066A006F07DFE75E06848007838B99FEDDA
:1015A000520B53EC102B66A006F072FE6AE000208E
:1015B00001F0AEF90446002101F04DFA484880EDF3
:1015C000000A90ED000A10EE101A084608F02EFEF0
:1015D00041EC180B53EC182B59A006F059FE51E0C2
:1015E0005B48007848B99FED400B53EC102B59A095
:1015F00006F04EFE46E03DE018E0012001F088F9DB
:101600000446012101F027FA354880ED010A90EDEA
:10161000010A10EE101A084608F008FE41EC180BFB
:1016200053EC182B4BA006F033FE2BE04D4800780E
:1016300038B99FED2D0B53EC102B4BA006F028FE74
:1016400020E0022001F064F90446022101F003FACF
:10165000234880ED020A90ED020A10EE101A0846A7
:1016600008F0E4FD41EC180B53EC182B3EA006F0FB
:101670000FFE07E00020104908700121880704F0E0
:101680007DFE00BF00BF01213B4804F0C1FB06B056
:10169000BDEC028B10BD0000000C004000040040B7
:1016A000B2020020BB000020000000200200002049
:1016B000C30B0020C40B0020C20B0020100D002023
:1016C000DE0B0020E70B0020000000000000494076
:1016D0003A74306B3D252E3166210D0A0000000062
:1016E000DC0D0020E80B00200000000000003C4062
:1016F0003A74316B3D252E3166210D0A0000000041
:10170000E90B00203A74326B3D252E3166210D0A1B
:1017100000000000EA0B00203A74336B3D252E31A7
:1017200066210D0A00000000EB0B00203A74346BB8
:101730003D252E3166210D0A00000000EC0B002033
:101740003A74356B3D252E3166210D0A00000000EC
:10175000ED0B00203A74366B3D252E3166210D0AC3
:1017600000000000EE0B00203A74376B3D252E314F
:1017700066210D0A00000000106402401CB5012122
:101780000F2003F0A1FE01220821FB4803F089FC91
:101790004FF48070009002208DF8040003208DF833
:1017A000050000208DF8060001208DF8070069462D
:1017B000F14803F0EBFB03220621F04803F071FC33
:1017C00002220721ED4803F06CFCC02000900220AB
:1017D0008DF8040003208DF8050000208DF8060028
:1017E00001208DF807006946E44803F0CFFB4FF471
:1017F000C050009001208DF8040003208DF80500F2
:1018000000208DF8060001208DF807006946DA48AF
:1018100003F0BCFB4FF44070009001208DF80400F1
:1018200003208DF8050000208DF8060001208DF8BA
:1018300007006946D14803F0A9FB4FF440400090EF
:1018400001208DF8040003208DF8050000208DF89C
:10185000060001208DF807006946C94803F096FB91
:101860001CBD30B589B004460D460121084603F081
:1018700085FEA8B2ADF814000020ADF8160006945D
:101880008DF81E00ADF81C0005A9BE4804F0EDFC63
:101890000320B4FBF0F002906020ADF800000120BE
:1018A000ADF802000220ADF80C00C001ADF8100048
:1018B0000020ADF812006946B24804F06BFD082123
:1018C000B04804F0F4FE0121AE4804F039FD0121D6
:1018D000AC4805F07FF901221146AA4805F066F9E7
:1018E00019208DF8200000208DF8210001208DF8AE
:1018F00022008DF8230008A803F057FA0121A1481F
:1019000005F02DF900219F4804F038FD09B030BDE5
:1019100030B589B004460D460121022003F01DFEBA
:10192000A8B2ADF814000020ADF8160006948DF8AA
:101930001E00ADF81C0005A9934804F096FC032096
:10194000B4FBF0F002906020ADF800000120ADF88B
:1019500002000220ADF80C00C001ADF8100000201C
:10196000ADF812006946884804F04DFD082186480C
:1019700004F0A6FE0121844804F0E2FC0121824823
:1019800005F028F9012211467F4805F00FF91D20C6
:101990008DF8200000208DF8210001208DF8220014
:1019A0008DF8230008A803F000FA0121764805F01D
:1019B000D6F80021744804F0E1FC09B030BD30B520
:1019C00089B004460D460121022003F0D7FDA8B2DC
:1019D000ADF814000020ADF8160006948DF81E0036
:1019E000ADF81C0005A9694804F03FFC0320B4FBD6
:1019F000F0F002906020ADF800000120ADF8020088
:101A00000220ADF80C00C001ADF810000020ADF8C8
:101A1000120069465D4804F0BDFC08215B4804F0F3
:101A200046FE0121594804F08BFC0121574805F07E
:101A3000D1F801221146554805F0B8F82C208DF850
:101A4000200000208DF8210002208DF822000120C6
:101A50008DF8230008A803F0A8F901214B4805F0F0
:101A60007EF80021494804F089FC09B030BD10B56A
:101A70000121444805F0B1F818B10121414805F0B1
:101A8000BDF843480068401C41490860414800785F
:101A900005282AD2DFE800F086032A3464003D4896
:101AA00080683B490968884202D802203949087099
:101AB0003948007838B139483549096830F811009B
:101AC0003449488006E036483149096830F8110049
:101AD000304948802F49488800EBD0714910294A85
:101AE00051632C4840881146C86265E02948406827
:101AF00027490968884202D80320264908705BE01C
:101B000024480069401E22490968884202D8002002
:101B1000204908702048007858B11E4800691C49C7
:101B20000968401A401E1D4931F8100019494880C3
:101B30000AE01848006916490968401A401E184909
:101B400031F81000134948801249488800EBD071E1
:101B500049100C4A51630F4840881146C8622BE077
:101B60000C480069401E0A490968884202D80020D2
:101B70000849087020E00000000002400008024010
:101B8000000C02400000014000040040000401403D
:101B9000BC000020A00D002099020020C8000020F9
:101BA000680100200020474908604749087000216B
:101BB000464804F0E3FB00BF00BF10BD10B5012193
:101BC000434805F00AF818B10121414805F016F81C
:101BD00040480068401C3F4908603F4800780128A1
:101BE0005ED13E480078012804D0022829D003287D
:101BF00055D130E03A48007800EB4000394901EB1C
:101C0000C0003449096830F811008010304938317B
:101C100008603348007800EB4000324901EBC00017
:101C20002C49096830F8110029492C3108602B48EB
:101C3000806828490968884202D80220274908702C
:101C40002DE02648406823490968884202D80320CD
:101C50002249087023E021480069401E1D49096897
:101C6000884203D800201D49087017E01C480078FE
:101C700000EB40001B4901EBC00118480069154A00
:101C80001268801A401E31F8100011492C3108608A
:101C90000846006880080E493831086000BF00BF60
:101CA00010BD10B50121104804F097FF18B10121B3
:101CB0000D4804F0A3FF0D480068401C0B49086064
:101CC00010BD0000BC000020AF0200200000014059
:101CD00000040040C0000020AE020020B40D00202F
:101CE000980200200802002000040140C4000020E7
:101CF00070B505460E461446FE4805600020FE49B4
:101D0000C1F8B0020120FD490870002C32D0C82C67
:101D10000BD94F20FA498860A4F151004860012096
:101D20000870F8480088488005E00420F4490870ED
:101D3000F44840894880F24845700461014648886B
:101D400000EBD0714910F04A5163ED4840881146CC
:101D5000C86200BFED4800780128FBD00121EA48A5
:101D600004F00CFB0120EA49087000BFE848007845
:101D70000028FBD170BD70B506460C461546E548F7
:101D800006600020E449C1F8A4020120E34908707C
:101D9000E34890FBF4F0E349086008460068400817
:101DA000E0490C31086000BFD84800780128FBD01A
:101DB0000121DC482C3804F0E1FA0020DA490860FF
:101DC00000BFD9480068A842FBD30020D64908606C
:101DD0000021D4482C3804F0D1FA70BD70B5064605
:101DE0000C461546D14806600020D149C1F8B8021A
:101DF0000120D0490870CA4890FBF4F0CE49086031
:101E0000084600684008CC490831086000BFBF4858
:101E100000780128FBD00121C7482C3804F0AEFA25
:101E20000020C649086000BFC4480068A842FBD330
:101E30000020C24908600021BF482C3804F09EFAF7
:101E400070BD2DE9F04105460C46164602270120DB
:101E5000B2490870B7490870B9490870072C11D207
:101E6000DFE804F0100406080A0C0E0032240BE030
:101E70003C2409E0462407E0502405E05A2403E00E
:101E8000642401E0502400BF00BFA2480560A848B8
:101E9000C0F8BC5200209F49091D0860A349091FD2
:101EA0000860A1490860A54908609D4890FBF4F0CE
:101EB0009C4908600846006840089A490C3108604F
:101EC00000BF924800780128FBD0012195482C38AA
:101ED00004F054FA924890FBF4F0974908600846E1
:101EE0000068400894490831086000BF87480078BE
:101EF0000128FBD0012190482C3804F03FFA1DE066
:101F0000701E89490968884209D200208649086004
:101F1000002184482C3804F031FA781EC7B2701EB4
:101F200086490968884209D2002084490860002156
:101F300081482C3804F022FA781EC7B2002FDFD176
:101F400000207F490870BDE8F0812DE9F047054683
:101F50000C4616460027B846B94601206F4908705E
:101F6000072D29D2DFE805F028040A10161C2200EC
:101F70004FF47A7500207349087023E040F2DC5575
:101F80000120704908701DE04FF4FA6502206D4988
:101F9000087017E040F6B83503206A49087011E070
:101FA0004FF47A650420674908700BE041F29415FC
:101FB00005206449087005E040F6B8350320614902
:101FC000087000BF00BF072C15D2DFE804F014042E
:101FD00006080B0E1100C82410E0FA240EE04FF49E
:101FE00096740BE04FF4AF7408E04FF4C87405E04A
:101FF0004FF4E17402E04FF4967400BF00BF01207B
:102000004449086050490870504804610B204F490A
:102010008860A4F10D00486000203F49C1F8A40287
:1020200070004B49086000204A490880A0E0002168
:102030003C482C3804F0A2F900BF4748007801283A
:10204000FBD0464800780128F7D0012031490860CC
:102050000020354908603B48007800EB40004049CB
:1020600031F8300080102F490C3108603548007875
:1020700000EB40003A4931F830002A49086001205D
:1020800032490870012127482C3804F077F900BF45
:102090002E4800780028FBD1002122482C3804F07B
:1020A0006DF900201B4908601F4908602548007829
:1020B00000EB40002A4931F83000801019490C31FA
:1020C00008602048007800EB4000254931F83000D6
:1020D0001449086001201D490870012111482C385D
:1020E00004F04CF900BF194800780028FBD100210A
:1020F0000C4837E0AC024042000040429902002008
:10210000A00D0020C80000200000014000000020B9
:10211000AF020020A0024142000041429A0200208A
:1021200080841E002C040040C0000020BC8241427C
:10213000008041429B0200202C040140C40000208A
:10214000B102002098020020AE020020B40D002051
:10215000B4020020B2020020E40C00202300002082
:10216000080200202C3804F009F90020D549086045
:10217000D5480088D54909688842FFF458AF002047
:10218000D3490870BDE8F0872DE9F04104460F46B9
:1021900015460026CF48006840F00400CD4908608D
:1021A000CD4804600020CD49C1F8B002CC49087088
:1021B000CC4908704F20CC498860A5F15100486097
:1021C00001200870C94800884880084644700561AD
:1021D000488800EBD0714910C54A5163C248408815
:1021E0001146C8620121104604F0C8F8BDE8F0812C
:1021F0002DE9F04104460D4617460026B548006813
:1022000040F00800B3490860BA4804600020BA49A9
:10221000C1F8A402B9490870B9490870B94890FBDF
:10222000F5F0B9490860084600688008B6490C31E5
:1022300008600121B4482C3804F0A0F8BDE8F08112
:102240002DE9F04104460D4617460026A1480068D6
:1022500040F010009F490860AC4804600020AC4981
:10226000C1F8B802AB490870AB490870A54890FBAB
:10227000F5F0AA490860084600688008A7490831B7
:1022800008600121A5482C3804F078F8BDE8F081F9
:1022900010B50821A24802F0DBFE012821D110214F
:1022A0009F4802F0D5FE01281BD14FF47A724FF4FB
:1022B00016710020FFF75FFD4FF4167211460020E3
:1022C000FFF78CFD4FF4FA524FF448710120FFF7ED
:1022D000B7FF4FF4FA524FF448710120FFF788FF1F
:1022E00071E008218E4802F0B3FE98B910218C48A5
:1022F00002F0AEFE70B94FF4FA524FF4487101206B
:10230000FFF79EFF4FF4FA524FF448710120FFF798
:102310006FFF58E00821824802F09AFE60BB10214E
:102320007F4802F095FE012826D14FF4FA524FF46F
:102330004871FFF75DFF00BF714800780028FBD0AF
:102340004FF47A724FF416710020FFF714FD4FF42A
:10235000167211460020FFF741FD4FF4FA524FF478
:1023600048710120FFF76CFF4FF4FA524FF44871A7
:102370000120FFF73DFF26E00821694802F068FED2
:10238000012820D11021664802F062FED8B94FF42E
:102390007A724FF416710020FFF7EDFC4FF4C8720B
:1023A0004FF416710020FFF719FD4FF4FA524FF465
:1023B00048710120FFF744FF4FF4FA524FF448717F
:1023C0000120FFF715FF01205649087010BD10B518
:1023D0000120554908604FF47A7000F075FE002026
:1023E0005249C1F8800210BD10B500BF44480078C2
:1023F0000028FBD0484800780028F7D0042148483E
:1024000002F026FE012805D14FF4C8524FF4167190
:10241000FFF76EFC48F6A0424FF416710020FFF75C
:10242000B3FE00BF2F4800780028FBD000204049B1
:10243000086001202B490870FFF7C9FF02203D49C1
:10244000087010BD10B5002410E001203649086066
:102450004FF4C87000F038FE00203449C1F8800203
:102460004FF4C87000F030FE601CC4B2042CECDBEA
:1024700010BD10B501202C490860642000F024FE36
:1024800000202A49C1F88002642000F01DFE0120CE
:1024900025490860642000F017FE00202349C1F898
:1024A0008002642000F010FE01201F4908606420B3
:1024B00000F00AFE00201D49C1F88002642000F0EF
:1024C00003FE10BDC0000020B2020020B4020020B4
:1024D000AE020020003C0140AC02404200004042FD
:1024E00099020020AA020020A00D0020680100200F
:1024F00000000140A0024142000041429A02002037
:10250000A802002080841E002C040040BC824142AE
:10251000008041429B020020A90200202C040140BF
:1025200000100240AC020020800242420000424201
:10253000BC0000200000002000B59DB00121F8483B
:1025400002F0C2FF0121080203F018F8FF200290F8
:1025500003208DF80C0000208DF80F0002A9F1482F
:1025600002F014FD00200490EF480590EF4806901B
:10257000002007904FF440700890002009904FF41D
:1025800080600A9040000B9080000C9040110D90EC
:1025900040020E9000200F9001201090002011901A
:1025A000129004A9E24803F0F9FB38208DF80400EA
:1025B00003208DF8050002208DF8060001208DF81B
:1025C000070001A802F0F1FB01221021D84803F016
:1025D000ACFC4FF000600490D6480590D6480690B9
:1025E0004020079078200890002009904FF48060E8
:1025F0000A9000200B900C900D904FF480300E90BC
:1026000000200F900120109000201190129004A93A
:10261000C748A83003F0C2FB002013904FF480306D
:102620001490002015904FF4A060169013A804F0A9
:102630003BFE0020179001208DF8600000208DF8EF
:1026400061004FF0805019904FF0C0601A90002048
:102650001B9008208DF8700017A9B3484C3804F07F
:10266000F4FD0121B0484C3804F015FF01231A464F
:102670000021AD484C3804F06EFE012302221946B9
:10268000A9484C3804F067FE012303220221A64822
:102690004C3804F060FE012304220321A2484C3888
:1026A00004F059FE0123052204219F484C3804F010
:1026B00052FE0123062205219B484C3804F04BFEB4
:1026C00001230722062198484C3804F044FE0123D8
:1026D0000822072194484C3804F03DFE012192481D
:1026E0004C3804F0E3FE0121914803F091FB0121F5
:1026F0008D484C3804F0EFFD8B484C3804F087FED1
:102700001DB000BD10B58D49894803F02BFC38B1D0
:1027100000214FF0804003F031FE0120884908700D
:102720008649834803F048FC10BD00B58DB00121F7
:10273000084602F0C9FE0121080202F01FFF0F2027
:102740000B9003208DF8300000208DF833000BA98A
:10275000744802F01BFC0121080202F064FF002112
:102760004FF4807002F05FFF002007904FF4A060EC
:102770000A90002009904FF48030089007A804F0D8
:1027800093FD0020019001208DF8080000208DF8B5
:1027900009004FF0C06003900020059008208DF8DC
:1027A000180001A960484C3804F04FFD01215E4833
:1027B0004C3804F090FD0DB000BD10B50446052363
:1027C0000122214658484C3804F0C5FD56484C3883
:1027D00004F01DFE00BF022153484C3804F038FFBE
:1027E0000028F8D050484C3804F04DFE10BD2DE9BB
:1027F000F04107460C460025002608E03846FFF762
:10280000DCFF0544052000F05FFC701CC6B2A64248
:10281000F4DBB5FBF4F080B2BDE8F08170472DE940
:10282000F041002500216FE000221F2355E0D0B2C7
:1028300024E03E4F07EB001737F811C0DFF8EC80BB
:10284000471C08EB071737F81170BC4514DD4746E5
:1028500007EB001737F81160C446471C0CEB07174D
:1028600037F811700CEB001C2CF81170C446471C93
:102870000CEB071727F81160471CF8B29842D8DB19
:102880005F1EBBB2D8B224E0284F07EB001737F821
:1028900011C0471EDFF8948008EB071737F8117056
:1028A000BC4514DA474607EB001737F81160471E9E
:1028B000C4460CEB071737F811700CEB001C2CF812
:1028C0001170471EC4460CEB071727F81160471E0E
:1028D000F8B29042D8DC571CBAB29A42A7DB08245F
:1028E00007E0124F07EB041737F811703D44671CDF
:1028F000FCB2182CF5DBC5F30F17DFF848C02CF835
:10290000117000254F1CB9B208298DDBBDE8F0819C
:102910002DE9F0410246002600245F256AE0000010
:1029200001004000000002404C2001401C12002029
:102930001064024004100140100D0020208000109F
:10294000C20B00202C180020E1B224E0894800EBE3
:10295000011030F812C0DFF81C82481C08EB001090
:1029600030F81200844514DD404600EB011030F8C9
:102970001270C446481C0CEB001030F812000CEB2F
:10298000011C2CF81200C446481C0CEB001020F867
:102990001270481CC1B2A942D8DB681E85B2E9B2E8
:1029A00024E0744800EB011030F812C0481EDFF834
:1029B000C48108EB001030F81200844514DA404658
:1029C00000EB011030F81270481EC4460CEB0010EA
:1029D00030F812000CEB011C2CF81200481EC44603
:1029E0000CEB001020F81270481EC1B2A142D8DCD6
:1029F000601C84B2AC42A7DB202307E05D4800EBFB
:102A0000031030F812000644581CC3B2402BF5DB0B
:102A1000C6F34F10BDE8F08130B503460024A3F1A2
:102A20001D00C2B2002A03DA40F6C414204630BDAD
:102A3000472A08DD472201EBC1004F4D05EB00108E
:102A4000B0F88E00F3E701EBC1004B4D05EB001031
:102A500030F81200EBE7F0B50246002447252420A9
:102A600001EBC106454F07EB0616B6F88E6096429D
:102A700002DD9FED430AF0BD01EBC1063F4F07EBBE
:102A800006163688964202DAB3EE0C0AF3E7002304
:102A90006BE0661906EBD677C7F34F0001EBC10672
:102AA000364F07EB061636F81060964206D100F155
:102AB0001D0600EE106AB8EEC00ADCE701EBC106A5
:102AC0002E4F07EB061636F81060964234DA01EB0B
:102AD000C10607EB0617461E37F8166096422BDD37
:102AE00001EBC106254F07EB0617461E37F81660A7
:102AF00001EBC107DFF884C00CEB071737F8107043
:102B0000F61B00EE106AB8EEC01A01EBC10667466C
:102B100007EB061636F81060961B00EE106AB8EE4A
:102B2000C00AC0EE010A00F11D0600EE106AB8EE00
:102B3000C00A30EE600A9EE701EBC1060F4F07EBBB
:102B4000061636F81060964202DA461EB5B20AE062
:102B500001EBC106094F07EB061636F810609642E6
:102B600001DD461CB4B25E1CB3B2072B91DB00BF83
:102B700081E700001C1200203A070020BA02002062
:102B80000000D24210B540F22551964803F01AF8E1
:102B9000F8B1944802F054FFC4B29348008800F49E
:102BA0000040B0B990480088802813DA00218F488F
:102BB00003F0A4FB8C48008818B901218B4803F06E
:102BC000DDFB894801880088401C874A10808848BE
:102BD000445405E08448008840F40040824908805D
:102BE00010BD704710B588B004460121042002F0E2
:102BF0006BFC0121880402F0B0FC7A4802F002FE6E
:102C000007220B217B4802F04CFA07220A2179485F
:102C100002F047FA4FF44060059002208DF818004A
:102C20008DF8190000208DF81A0001208DF81B0086
:102C300005A9704802F0AAF901940020ADF8080037
:102C4000ADF80A00ADF80C00ADF810000C20ADF89E
:102C50000E0001A9634802F03CFE0121614802F028
:102C6000C0FE012240F225515E4802F070FF27208D
:102C70008DF81C0002208DF81D008DF81E0001202B
:102C80008DF81F0007A802F090F842F2CF0140F241
:102C9000E730FFF7A6FF0020534908800021534882
:102CA00003F06CFB08B010BD0FB438B505A8009058
:102CB0005148009A049905F0D9FA002000904E4836
:102CC00005F0F2FC85B200240DE000BF402145482C
:102CD00002F062FF0028F9D04748015D414802F048
:102CE000ABFE601C84B2AC42EFDB38BC5DF814FB79
:102CF00010B504463C48008800F4004070B1002044
:102D000039490988C1F30E01394A505411463BA094
:102D100005F0BEFA14B100203349088010BD70B52B
:102D2000044600253048008800F4004058B10020D7
:102D30002D490988C1F30E012D4A505421461046F1
:102D400005F07CFC0546284670BD2DE9F04104469F
:102D50000E4615460027002023490880FF2C0AD87C
:102D600000BF2048008800F040000028F9D01D492D
:102D7000091D0C8003E0214620A0FFF795FFC6B196
:102D8000BDB10FE00A2000F09FF91748008800F459
:102D9000004038B13046FFF7C2FF00B106E0002026
:102DA00011490880681E80B20500EBD100BF05B94B
:102DB00001273846BDE8F08110B501210B4803F02A
:102DC0000CFF68B10848008840F4004006490880BC
:102DD0000121064803F012FF0021044803F0CEFA57
:102DE00010BD000000480040C60B00200014004049
:102DF000C018002000080240401800202573000081
:102E000000B587B00121022002F05EFB012108031A
:102E100002F0B4FB3820059002208DF81800002045
:102E20008DF81A0003208DF8190001208DF81B0081
:102E300005A9704802F0AAF8052203216D4802F0A6
:102E400030F9052204216B4802F02BF905221146C6
:102E5000684802F026F90121080302F0E4FB002192
:102E60004FF4805002F0DFFB4FF44040ADF800001B
:102E70004FF48270ADF802004FF40060ADF804002A
:102E80000220ADF806000120ADF808004002ADF8C0
:102E90000A003820ADF80C000020ADF80E00072025
:102EA000ADF810006946544803F0D0FF01215248A4
:102EB00004F0C6F801205149086007B000BD2DE9B3
:102EC000F04104460D461027002604EB053086B27B
:102ED00001204A490860022000F0AEF8002048496D
:102EE000C1F89C021DE0012044491039086006F435
:102EF000004020B1012041490839086003E000206A
:102F00003E4908390860022000F096F800203B494D
:102F1000103908604FF6FF7000EA4606022000F004
:102F20008BF83800A7F10107DDD1012033491039B2
:102F300008603349C1F89C02142000F07DF8BDE818
:102F4000F0811CB50121022002F0BEFAA8200090F9
:102F500001208DF8040000208DF8060003208DF874
:102F6000050001208DF807006946224802F00EF89E
:102F70008021204802F086F820211E4802F082F8C5
:102F800008211C4802F080F8092140F6FF70FFF785
:102F900096FF0C2140F6FF70FFF791FF1CBD70B546
:102FA00004460D460020154908602146124804F0E9
:102FB000C8F800BF0221104804F00CF90028F9D02D
:102FC00001200E49086070BD10B500200B49086053
:102FD0004AF2FF01084804F0B4F800BF0221064895
:102FE00004F0F8F80028F9D001200449086010BD69
:102FF0007047000000040240003001409C824042C3
:103000000080404210B504466FF0040001F01AFF42
:10301000E11704EB5171C1F3C701394A1170104631
:10302000007800EB4001C1EBC0104FF6FF7101EAE0
:10303000C0003449088010BD0146314A12784A4325
:103040004FF0E0235A6100229A611A46126942F059
:1030500001021A6100BF4FF0E022106900F0010286
:103060001AB100F48032002AF5D04FF0E022126944
:1030700022F001024FF0E0231A6100229A617047AA
:103080000146204A12884A434FF0E0235A61002249
:103090009A611A46126942F001021A6100BF4FF0AC
:1030A000E022106900F001021AB100F48032002A17
:1030B000F5D04FF0E022126922F001024FF0E02338
:1030C0001A6100229A61704770B504464FF4077088
:1030D00094FBF0F0C6B24FF4077094FBF0F100FBE4
:1030E000114085B205E04FF40770FFF7C9FF701E6D
:1030F000C6B2002EF7D115B12846FFF7C1FF70BD4B
:10310000C80B0020CA0B0020014600BF704700BF5B
:10311000FE4A128802F04002002AF9D0C2B2FB4BEC
:103120009A80704710B588B004460121084602F025
:10313000CBF90121102002F021FA07220921F448DD
:1031400001F0AFFF07220A21F14801F0AAFF4FF476
:10315000C060069002208DF81C008DF81D00002034
:103160008DF81E0001208DF81F0006A9E84801F027
:103170000DFF02940020ADF80C00ADF80E00ADF884
:103180001000ADF814000C20ADF8120002A9DF48C1
:1031900002F09FFB0121DD4802F023FC4021DB48C7
:1031A00002F007FD012240F22551D84802F0CFFC81
:1031B00025208DF8040002208DF8050001208DF8EF
:1031C00006008DF8070001A801F0EFFD01210420A1
:1031D00002F07AF90121C80402F0BFF908220A219D
:1031E000CC4801F05EFF08220B21CA4801F059FFCC
:1031F0004FF44060069002208DF81C008DF81D00F1
:1032000000208DF81E0001208DF81F0006A9C1487E
:1032100001F0BCFE02940020ADF80C00ADF80E00E9
:10322000ADF81000ADF814000820ADF8120002A9A6
:10323000B94802F04EFB0121B74802F0D2FB402111
:10324000B54802F0B6FC08B010BD704730B5034673
:1032500017E013F8015B82EA052200240DE002F476
:10326000004028B141F2210080EA420082B203E02E
:103270004FF6FF7000EA4202641C082CEFDB92B2AA
:10328000491E0029E5DC104630BD10B5044600BFDC
:1032900040219E4802F080FC0028F9D021469B483E
:1032A00002F0CAFB00BF4021984802F075FC0028DC
:1032B000F9D010BD10B5044601209849087003E00C
:1032C0002078FFF7E2FF641C20780028F8D19349AA
:1032D000087010BD10B5044621468F4802F0ACFBC3
:1032E00000BF40218C4802F057FC0028F9D010BDE7
:1032F00010B5044603E02078FFF7ECFF641C20784B
:103300000028F8D110BD2DE9FE430024002540F22D
:1033100025517E4802F056FC002877D07B4802F009
:103320008FFB7F497F4A1288885408467D49098867
:10333000405C3A2806D101207B4908707948008812
:103340007A4908807848007800287DD07548008840
:1033500010B940F2572703E072480088401E87B238
:103360006F4870490988405C0A286DD16C48C05D7F
:103370000D28FAD16D480088C01CB0F5167F05DB1A
:103380006A480088A0F2552084B203E067480088AC
:10339000C01C84B265480088401DB0F5167F05DB6F
:1033A00062480088A0F2532085B203E05F4800889D
:1033B000401D85B25A48005D732838D15848405D99
:1033C000332834D1002612E05948805D68B159A0F5
:1033D000FFF78EFF32465AA1684604F065FF684643
:1033E000FFF786FF53A0FFF783FF701CC6B24C485F
:1033F00005F05AF9B042E7DC53480078022806D1BC
:103400000320524908705049087010E04FE14E48BF
:10341000007860B94EA0FFF74DFF4FF41671404899
:1034200005F075F900204E4908803E4908803C4867
:10343000005D732823D13A48405D34281FD14FF4F2
:103440007A70FFF741FE00E025E14FF0000808E048
:10345000334911F80800FFF718FF08F101001FFABF
:1034600080F8B8F5167FF3DB4FF416712C4805F0A1
:103470004EF900203A4908802A49088000BF2848B0
:10348000005D73281DD12648405D392819D12E488A
:103490000078022805D109202C4908702A490870B3
:1034A0000FE02948007860B929A0FFF703FF4FF427
:1034B00016711B4805F02BF900202949088019498D
:1034C00008801748005D732856D11548405D35289F
:1034D00052D105201D4908704FF41671104805F0AF
:1034E00016F900201E4908800E490880012080F34B
:1034F000138800BF00BFBFF34F8F1A48006800F465
:10350000E06019490843001D16492FE000100140F2
:103510000000024000080240004C0040DE0B00208A
:1035200040190020DA0B0020D40B0020D60B00201D
:103530000C1C00202121216572726F720D0A00009F
:103540004E4F3A25640D0A0000000020FA0B0020BF
:103550003A6469616C6F67626F783D37210D0A00CC
:10356000DC0B00200CED00E00000FA050860BFF362
:103570004F8F00BF00BFFEE7F048005D732831D1D8
:10358000EE48405D31282DD10120ED490870ED480D
:10359000008800F0010030B10021EA4802F0EEFEA0
:1035A0000120E9490870E948008800F0010068B18D
:1035B000E7480078012802D1E649087003E00021BD
:1035C000E24802F0DBFE0120E3490870E34800888E
:1035D00000F0010030B10021E04802F0CFFE0120F0
:1035E000DF490870D548005D732851D1D348405D4C
:1035F00030284DD12021DB4801F02AFD012803D1DC
:10360000D9A0FFF757FE42E0DAA0FFF753FE0420EF
:10361000CB490870CC480078012803D0D8480078FE
:10362000012808D10121C74802F0A8FE0020C649A0
:103630000870D3490870C8480078012803D0D148E1
:103640000078012812D1C2480078012805D1002055
:10365000C0490870CC49087003E00121BB4802F062
:103660008DFE0020BC490870C6490870BC4800782F
:10367000012803D0C5480078012808D10121B748A6
:1036800002F07CFE0020B6490870C049087000BFF7
:103690000020BF490870BF480088401CBD49088011
:1036A00008460088B0F5167F01DB00200880BDE8E1
:1036B000FE8330B5014600230022002423E07AB9BE
:1036C0000878302802DB0878392802DD08782D28B0
:1036D00006D1012208782D280BD10124491C08E0CD
:1036E000012A06D10878302802DB0878392800DD65
:1036F0000CE0012A06D10878303803EB830500EB93
:10370000450083B2491C08780028D8D100BF0CB10D
:10371000584230BD1846FCE72DE9F04F89B019E357
:103720009D4801880088401C9B4A10808348405C6B
:103730009A49087010460088B0F5167F02DB002019
:10374000114608809648007800BB96480078E8B19A
:10375000924800789449954A1288885408469349BB
:103760000988405C0A280CD190480088401E8E4988
:10377000085C0D2805D1012089490870002089497D
:1037800008708A480088401C88490880854800786D
:1037900048B9824800783A2805D10120814908704B
:1037A0000020824908807E4800780028B7D04FF07A
:1037B0000009CA4600250020794908703A208DF892
:1037C0000400794804F070FFA0F1020842467649EF
:1037D00001A804F021FF744804F066FF4FF0FF0BCE
:1037E000714804F061FF00F0FF0A6F4F3C4608E0AB
:1037F000641C681CC5B2042D03DB6DA0FFF75AFDE5
:1038000002E020783D28F3D100BF00202070661C24
:1038100000E0641C20780A28FBD1002004F8010C89
:103820003946644804F01CFF3146634804F018FF31
:1038300010215D4804F06BFF5F48FFF73AFF5F49D6
:1038400008805C48807841383A2870D2DFE800F080
:10385000EEEDECEBEAE9E8E7E6E5E4E3E2E1E0DF00
:10386000DEDDDCDBDAD9D8D7D6D56F6F6F6FD46FDA
:1038700031363B40454A6A70EFF4F91DD0CFCECDCA
:10388000CCCB6FCA22C927C82C754C4800884C493C
:1038900008805DE2494800884A49088058E2474864
:1038A00000884949088053E2444800884749088015
:1038B0004EE2424800884649088049E23F48008875
:1038C0004349488044E23D480088414988803FE2BE
:1038D0003A4800883E49C8803AE2384800883C4966
:1038E000088135E23348407831280AD032280DD09B
:1038F000332810D0682813D13048008834494881D3
:103900000EE02E4800883349088009E02B480088E3
:103910003149088004E0294800883049088000BF08
:1039200000BF15E2254800882949888110E20EE28F
:10393000224800882649C8810AE2C7E140190020D0
:103940000000002000000140E50C002000040040C1
:10395000AE020020E40C0020E60C00200004014030
:10396000E70C0020001002403A646F6F723D312175
:103970000D0A00003A646F6F723D30210D0A00009D
:103980002000002021000020230000202200002031
:10399000D40B0020DA0B0020DC0B0020D90B002018
:1039A000D30B0020D80B0020FC1B0020F80B0020BC
:1039B00045727200160C00201B0C0020200C002009
:1039C000FC0B0020FE0B0020000C00200E0C002041
:1039D000981B0020120C0020140C0020100C00205A
:1039E000E2E063E0DBE0A5E09FE073E06DE067E02C
:1039F00061E026E020E01AE06EE161E15AE153E186
:103A00004CE145E13EE137E130E129E122E11BE112
:103A100015E10FE109E103E1FDE0F7E0F1E0EBE0A2
:103A2000E5E0DFE0D9E0D3E0CDE0C7E0C1E0FE486B
:103A30000088FE4908828BE1FB480088FB494882E8
:103A400086E1FB484078303808282DD2DFE800F0C6
:103A500004090E13181D2227F3480078F549087051
:103A600022E0F1480078F44908701DE0EE48007843
:103A7000F249087018E0EC480078F149087013E04A
:103A8000E9480078EF4908700EE0E7480078EE4911
:103A9000087009E0E4480078EC49087004E0E24866
:103AA0000078EB49087000BF00BF51E1DE48008894
:103AB000DE4988824CE1DC480088DC49C88247E165
:103AC000D9480088D949088342E1D7480088D749B6
:103AD00048833DE1D64840783038062823D2DFE8D5
:103AE00000F003080D12181DCF480088D94908803E
:103AF00019E0CD480088D849088014E0CA480088F9
:103B0000D64908800FE0C848008800B2D449088030
:103B100009E0C5480088D349088004E0C24800880D
:103B2000D149088000BF00BF12E1BF480088BF49EB
:103B300088830DE1BE484078303808282DD2DFE870
:103B400000F004090E13181D2227B7480078C74952
:103B5000087022E0B4480078C54908701DE0B248FA
:103B60000078C449087018E0AF480078C24908706E
:103B700013E0AD480078C14908700EE0AA4800780B
:103B8000BF49087009E0A8480078BE49087004E001
:103B9000A5480078BC49087000BF00BFD8E0A24823
:103BA0000088A249C883D3E09F4800889F490884C1
:103BB000CEE09D4800889D494884C9E09A48008825
:103BC0009A498884C4E0984800889849C884BFE02E
:103BD0009548008895490885BAE09348008893493C
:103BE0004885B5E09048008890498885B0E08E48C7
:103BF00000888E49C885ABE08B4800888B490886D1
:103C0000A6E08948008889494886A1E0864800885E
:103C1000864988869CE0844800888449C88697E065
:103C2000814800888149088792E07F4800887F4961
:103C300048878DE07C4800887C49888788E07A48FE
:103C400000887A49C88783E0774800887749A1F8D7
:103C500040007DE0744800887449A1F8420077E094
:103C6000714800887149A1F8440071E06E480088ED
:103C70006E49A1F846006BE06B4800886B49A1F8DB
:103C8000480065E0684800886849A1F84A005FE09C
:103C9000654800886549A1F84C0059E062480088F1
:103CA0006249A1F84E0053E05F4800885F49A1F8DF
:103CB00050004DE05C4800885C49A1F8520047E0A4
:103CC000594800885949A1F8540041E056480088F5
:103CD0005649A1F856003BE055484078303809284D
:103CE00033D2DFE800F0050A0F14191E23282D0037
:103CF0004D4800786549087027E04B4800786449D2
:103D0000087022E048480078624908701DE0464883
:103D100000786149087018E0434800785F490870EE
:103D200013E0414800785E4908700EE03E48007894
:103D30005C49087009E03C4800785B49087004E081
:103D4000394800785949087000BF00BF00E000BF43
:103D500000BF00BF564800885649098888427FF452
:103D6000DFAC09B0BDE8F08F70B505460E46002403
:103D70000CE000BF4021504801F00EFF0028F9D0B0
:103D8000295D4D4801F058FE601CC4B2B442F0DB1E
:103D900000BF4021484801F0FFFE0028F9D070BD67
:103DA0002DE9F34F83B00F4600250026AB46A84609
:103DB00000200290019041480078002832D0002075
:103DC0003E49087000BF3E4804F06EFC00F0FF0B57
:103DD00000BF04E03A48805D0544701CC6B2ABF1F8
:103DE0000400B042F6DCFF2095FBF0F100FB11551A
:103DF000E843451CEDB22A4632A102A804F054FA69
:103E00002F4830440088ADF8040001A902A804F04E
:103E1000A1FC002873D1DFF8A8903D21484604F0AA
:103E2000F1FB53E08CE00000200C0020981B0020E8
:103E3000160C0020E60B0020DF0B0020E00B00201A
:103E4000E10B0020E20B0020E30B0020E40B00203C
:103E5000E50B0020020C0020040C0020060C0020C2
:103E6000080C00200A0C00200C0C0020E70B00209E
:103E7000E80B0020E90B0020EA0B0020EB0B0020F0
:103E8000EC0B0020ED0B0020EE0B0020EF0B0020D0
:103E9000F00B0020F10B0020F20B0020F30B0020B0
:103EA000F40B0020F50B0020F60B0020F70B002090
:103EB000DC0B0020DA0B002000100140D30B0020A7
:103EC000FC1B0020253032780000000020B10A21C0
:103ED000484604F097FB18B9022005B0BDE8F08F02
:103EE000FE4C04E0641C08F1010000F0FF0820789B
:103EF0003D28F7D1B8F1140F02DB0220EDE719E0FD
:103F00000020207004F1010A00E0641C20780A28D7
:103F1000FBD1002004F8030C4946039804F0A0FBF1
:103F20005146384604F09CFB1E21EC4804F0EFFBA0
:103F30000020D2E71E21E94804F0E9FB0220CCE78B
:103F40000120CAE72DE9F04105460F461446002638
:103F50003A223146761C62540020A055294620465C
:103F600004F0C1FBDEA1204604F0BDFB394620462B
:103F700004F0B9FBAFF61C21204604F0B4FBBDE809
:103F8000F081F8B50020009000240025D548028873
:103F9000D5A1684604F088F9D44A6946D4A0FFF751
:103FA000D1FFD248FFF786F9CE484288CEA16846B5
:103FB00004F07AF9CD4A6946CEA0FFF7C3FFCB489B
:103FC000FFF778F9C74880883C2190FBF1F630462E
:103FD00005F09DFD84B2C34880883C2190FBF1F23E
:103FE00001FB120085B22246BFA1684604F05CF9CD
:103FF000BE4A6946C0A0FFF7A5FFBC48FFF75AF9C3
:104000002A46B9A1684604F04FF9B84A6946BBA0F0
:10401000FFF798FFB548FFF74DF9B248C0883C213B
:1040200090FBF1F6304605F072FD84B2AD48C088D1
:104030003C2190FBF1F201FB120085B22246AAA1BD
:10404000684604F031F9A94A6946ADA0FFF77AFF46
:10405000A648FFF72FF92A46A3A1684604F024F9E1
:10406000A24A6946A7A0FFF76DFFA048FFF722F913
:10407000F8BDF8B500200090002400259948028979
:1040800099A1684604F010F9984A69469EA0FFF786
:1040900059FF9648FFF70EF99248428992A1684667
:1040A00004F002F9914A694698A0FFF74BFF8F4848
:1040B000FFF700F98B4880893C2190FBF1F63046F0
:1040C00005F025FD84B2874880893C2190FBF1F200
:1040D00001FB120085B2224683A1684604F0E4F891
:1040E000824A69468AA0FFF72DFF8048FFF7E2F871
:1040F0002A467DA1684604F0D7F87C4A694685A027
:10410000FFF720FF7948FFF7D5F87648C0893C21B2
:1041100090FBF1F6304605F0FAFC84B27148C08994
:104120003C2190FBF1F201FB120085B222466EA108
:10413000684604F0B9F86D4A694677A0FFF702FFB8
:104140006A48FFF7B7F82A4667A1684604F0ACF85A
:10415000664A694672A0FFF7F5FE6448FFF7AAF8C1
:104160006048008A3C2190FBF1F6304605F0CFFC18
:1041700084B25C48008A3C2190FBF1F201FB120002
:1041800085B2224658A1684604F08EF8574A69461F
:1041900065A0FFF7D7FE5548FFF78CF82A4652A1D5
:1041A000684604F081F8514A694660A0FFF7CAFEEC
:1041B0004E48FFF77FF84B48408A3C2190FBF1F6D0
:1041C000304605F0A4FC84B24648408A3C2190FB6E
:1041D000F1F201FB120085B2224643A1684604F0C9
:1041E00063F8424A694652A0FFF7ACFE3F48FFF72A
:1041F00061F82A463CA1684604F056F83B4A6946F5
:104200004DA0FFF79FFE3948FFF754F83548828AE2
:1042100035A1684604F048F8344A694648A0FFF7DB
:1042200091FE3248FFF746F8F8BDF8B5002000903F
:10423000002400252B48C28A2BA1684604F034F8DC
:104240002A4A69463FA0FFF77DFE2848FFF732F86B
:104250002448028B24A1684604F026F8234A6946C4
:1042600039A0FFF76FFE2148FFF724F81D48408B67
:104270003C2190FBF1F6304605F049FC84B2194828
:10428000408B3C2190FBF1F201FB120085B22246EB
:1042900015A1684604F008F8144A69462BA0FFF7F8
:1042A00051FE1248FFF706F82A460FA1684603F0B0
:1042B000FBFF0E4A694626A0FFF744FE0B48FEF7B7
:1042C000F9FF0848808B3C2190FBF1F6304605F061
:1042D0001EFC84B20348808B3C213BE0FC1B002089
:1042E0003D000000981B002025640000641E002093
:1042F000666C6100616C62006C7A6D006C7A7300B0
:104300006C646D006C6473006668650061686600CB
:10431000687A6D00687A73006864316D000000008F
:10432000686431730000000068786D00687873007D
:104330006864326D000000006864327300000000A1
:10434000766A7600666A6D00616A6E006A7A6D0050
:104350006A7A730090FBF1F201FB120085B22246EB
:10436000AFF27C01684603F09FFFFE4A6946FEA05B
:10437000FFF7E8FDFB48FEF79DFF2A46AFF29801E4
:10438000684603F091FFF74A6946F9A0FFF7DAFDA6
:10439000F448FEF78FFFF848C08B3C2190FBF1F604
:1043A000304605F0B4FB84B2F348C08B3C2190FB4F
:1043B000F1F201FB120085B22246AFF2D401684649
:1043C00003F072FFE74A6946ECA0FFF7BBFDE54842
:1043D000FEF770FF2A46AFF2F001684603F064FF73
:1043E000E04A6946E6A0FFF7ADFDDE48FEF762FF52
:1043F000E148008C3C2190FBF1F6304605F087FB4C
:1044000084B2DD48008C3C2190FBF1F201FB1200EC
:1044100085B22246AFF23011684603F045FFD14A1B
:104420006946D8A0FFF78EFDCE48FEF743FF2A4627
:10443000AFF24C11684603F037FFCA4A6946D3A071
:10444000FFF780FDC748FEF735FFF8BDF8B500203F
:10445000009000240025C848428CAFF274116846D1
:1044600003F022FFBF4A6946CAA0FFF76BFDBD48B3
:10447000FEF720FFC048828CAFF29411684603F02B
:1044800013FFB84A6946C4A0FFF75CFDB548FEF7C4
:1044900011FFB948C08C3C2190FBF1F6304605F085
:1044A00036FB84B2B448C08C3C2190FBF1F201FB96
:1044B000120085B22246AFF2D011684603F0F4FE36
:1044C000A84A6946B5A0FFF73DFDA648FEF7F2FEF3
:1044D0002A46AFF2EC11684603F0E6FEA14A6946AF
:1044E000B0A0FFF72FFD9F48FEF7E4FEA248008D25
:1044F0003C2190FBF1F6304605F009FB84B29E4862
:10450000008D3C2190FBF1F201FB120085B22246A6
:10451000AFF22C21684603F0C7FE924A6946A3A079
:10452000FFF710FD8F48FEF7C5FE2A46AFF248217F
:10453000684603F0B9FE8B4A69469EA0FFF702FD6C
:104540008848FEF7B7FE8C48408D3C2190FBF1F681
:10455000304605F0DCFA84B28748408D3C2190FB60
:10456000F1F201FB120085B22246AFF284216846C7
:1045700003F09AFE7B4A694690A0FFF7E3FC794876
:10458000FEF798FE2A46AFF2A021684603F08CFEA3
:10459000744A69468BA0FFF7D5FC7248FEF78AFE85
:1045A0007548808D3C2190FBF1F6304605F0AFFA5E
:1045B00084B27148808D3C2190FBF1F201FB120026
:1045C00085B22246AFF2E021684603F06DFE654AEF
:1045D00069467EA0FFF7B6FC6248FEF76BFE2A46EE
:1045E000AFF2FC21684603F05FFE5E4A694679A09F
:1045F000FFF7A8FC5B48FEF75DFEF8BDF8B50020AC
:104600000090002400255C48C28DAFF2243168463A
:1046100003F04AFE534A694670A0FFF793FC5148E5
:10462000FEF748FE5448028EAFF24431684603F06C
:104630003BFE4C4A69466AA0FFF784FC4948FEF7F6
:1046400039FE4D48408E3C2190FBF1F6304605F096
:104650005EFA84B24848408E3C2190FBF1F201FBA7
:10466000120085B22246AFF28031684603F01CFE8C
:104670003C4A69465BA0FFF765FC3A48FEF71AFE24
:104680002A46AFF29C31684603F00EFE354A694671
:1046900056A0FFF757FC3348FEF70CFE3648808ED5
:1046A0003C2190FBF1F6304605F031FA84B23248F5
:1046B000808E3C2190FBF1F201FB120085B2224674
:1046C000AFF2DC31684603F0EFFD264A694649A0A7
:1046D000FFF738FC2348FEF7EDFD2A46AFF2F8312C
:1046E000684603F0E1FD1F4A694644A0FFF72AFC33
:1046F0001C48FEF7DFFD2048C08E3C2190FBF1F600
:10470000304605F004FA84B21B48C08E3C2190FB71
:10471000F1F201FB120085B22246AFF23441684645
:1047200003F0C2FD0F4A694636A0FFF70BFC0D48A7
:10473000FEF7C0FD2A46AFF25041684603F0B4FDD3
:10474000084A694631A0FFF7FDFB0648FEF7B2FDB7
:104750000948008F3C2190FBF1F6304605F0D7F96F
:1047600084B257E0641E00206A64316D00000000CE
:104770006A64317300000000981B00206A786D00A5
:104780006A7873006A64326D000000006A643273F4
:1047900000000000663141006131420077317A6DDE
:1047A0000000000077317A73000000007731643137
:1047B0006D00000077316431730000007731786D4F
:1047C0000000000077317873000000007731643218
:1047D0006D000000773164327300000066324700DC
:1047E0006132480077327A6D0000000077327A73C8
:1047F00000000000773264316D00000077326431D0
:10480000730000007732786D000000007732787313
:1048100000000000FE48008F3C2190FBF1F201FBFC
:10482000120085B22246AFF24051684603F03CFDCB
:10483000F84A6946F8A0FFF785FBF648FEF73AFD0F
:104840002A46AFF25C51684603F02EFDF14A6946F4
:10485000F3A0FFF777FBEF48FEF72CFDF8BDF8B5A6
:104860000020009000240025E948428FAFF28851D3
:10487000684603F019FDE74A6946EBA0FFF762FBC3
:10488000E448FEF717FDE248828FAFF2A451684674
:1048900003F00AFDDF4A6946E4A0FFF753FBDD4859
:1048A000FEF708FDDA48C08F3C2190FBF1F6304658
:1048B00005F02DF984B2D648C08F3C2190FBF1F26F
:1048C00001FB120085B22246AFF2E451684603F0C4
:1048D000EBFCD04A6946D6A0FFF734FBCD48FEF783
:1048E000E9FC2A46AFF20061684603F0DDFCC94AE4
:1048F0006946D1A0FFF726FBC648FEF7DBFCC4489B
:10490000B0F840003C2190FBF1F6304605F0FFF88E
:1049100084B2BF48B0F840003C2190FBF1F201FBAB
:10492000120085B22246AFF24061684603F0BCFC3B
:10493000B84A6946C2A0FFF705FBB648FEF7BAFCC5
:104940002A46AFF25C61684603F0AEFCB14A6946A4
:10495000BDA0FFF7F7FAAF48FEF7ACFCAC48B0F8E3
:1049600042003C2190FBF1F6304605F0D0F884B2CD
:10497000A748B0F842003C2190FBF1F201FB120085
:1049800085B22246AFF2A061684603F08DFCA14AD1
:104990006946AFA0FFF7D6FA9E48FEF78BFC2A4681
:1049A000AFF2BC61684603F07FFC9A4A6946AAA050
:1049B000FFF7C8FA9748FEF77DFC9548B0F8440029
:1049C0003C2190FBF1F6304605F0A1F884B2904806
:1049D000B0F844003C2190FBF1F201FB120085B2DB
:1049E0002246AFF2FC61684603F05EFC894A6946E4
:1049F0009BA0FFF7A7FA8748FEF75CFC2A46AFF2B8
:104A00001871684603F050FC824A694696A0FFF789
:104A100099FA8048FEF74EFCF8BDF8B500200090EA
:104A2000002400257A48B0F84620AFF24471684669
:104A300003F03AFC774A69468DA0FFF783FA754880
:104A4000FEF738FC7248B0F84820AFF2647168464F
:104A500003F02AFC6F4A694686A0FFF773FA6D4897
:104A6000FEF728FC6A48B0F84A003C2190FBF1F6BA
:104A7000304605F04CF884B26548B0F84A003C2155
:104A800090FBF1F201FB120085B22246AFF2A87151
:104A9000684603F009FC5F4A694677A0FFF752FABF
:104AA0005C48FEF707FC2A46AFF2C471684603F083
:104AB000FBFB584A694671A0FFF744FA5548FEF7D8
:104AC000F9FB5348B0F84C003C2190FBF1F630461E
:104AD00005F01DF884B24E48B0F84C003C2190FB24
:104AE000F1F201FB120085B22246AFF604016846DE
:104AF00003F0DAFB474A694661A0FFF723FA45480D
:104B0000FEF7D8FB2A46AFF62001684603F0CCFB3F
:104B1000404A69465CA0FFF715FA3E48FEF7CAFB1B
:104B20003B48B0F84E003C2190FBF1F6304604F0D3
:104B3000EEFF84B23648B0F84E003C2190FBF1F213
:104B400001FB120085B22246AFF66401684603F00D
:104B5000ABFB304A69464EA0FFF7F4F92D48FEF74B
:104B6000A9FB2A46AFF68001684603F09DFB294A5F
:104B7000694648A0FFF7E6F92648FEF79BFB244864
:104B8000B0F850003C2190FBF1F6304604F0BFFF36
:104B900084B21F48B0F850003C2190FBF1F201FBB9
:104BA000120085B22246AFF6C001684603F07CFBD6
:104BB000184A694638A0FFF7C5F91648FEF77AFB90
:104BC0002A46AFF6DC01684603F06EFB114A6946DF
:104BD00033A0FFF7B7F90F48FEF76CFBF8BDF8B547
:104BE00000200090002400250948B0F85220AFF6BC
:104BF0000811684603F058FB064A69462AA0FFF7E9
:104C0000A1F90448FEF756FB0148B0F854204DE0E6
:104C1000981B0020641E0020773264326D00000073
:104C2000773264327300000066334D0061334E000A
:104C300077337A6D0000000077337A73000000004C
:104C4000773364316D000000773364317300000006
:104C50007733786D00000000773378730000000030
:104C6000773364326D0000007733643273000000E4
:104C70006674530061745400747A6D00747A730022
:104C80007464316D00000000746431730000000032
:104C900074786D00747873007464326D00000000E5
:104CA000746432730000000066735900AFF6C811D7
:104CB000684603F0F9FA254A694625A0FFF742F94C
:104CC0002248FEF7F7FA2348B0F856003C2190FB43
:104CD000F1F6304604F01BFF84B21E48B0F85600CF
:104CE0003C2190FBF1F201FB120085B22246AFF6A7
:104CF0000821684603F0D8FA144A694616A0FFF75F
:104D000021F91248FEF7D6FA2A46AFF62421684662
:104D100003F0CAFA0D4A694610A0FFF713F90B48D1
:104D2000FEF7C8FAF8BD10B5FFF72BF9FFF7A1F9A8
:104D3000FFF77BFAFFF78AFBFFF760FCFFF78FFDB9
:104D4000FFF76BFEFFF74BFF10BD0000641E002055
:104D500061735A00981B0020737A6D00737A730098
:104D60000948804709480047FEE7FEE7FEE7FEE7FF
:104D7000FEE7FEE7FEE7FEE7FEE7FEE7044805493B
:104D8000054A064B70470000AD0E00088901000877
:104D9000E8210020E8270020E8230020E823002065
:104DA00032490143324A1160704770B50021002337
:104DB0000F22C4781CB32E4C246804F4E064C4F5BC
:104DC000E064C4F30721C1F10404E3B20A4144786A
:104DD0009C40E1B28478144021430C07210E254CFD
:104DE00005786155047804F01F050124AC4005786E
:104DF0006D11AD0005F1E025C5F8004109E004782A
:104E000004F01F050124AC401B4D0678761145F8CF
:104E1000264070BD194A0A400243154B1B1F1A60F9
:104E2000704739B1124A121D12680243104B1B1D04
:104E30001A6006E00E4A121D126882430C4B1B1DBD
:104E40001A607047042808D14FF0E021096941F049
:104E500004014FF0E022116107E04FF0E021096901
:104E600021F004014FF0E022116170470000FA05C3
:104E70000CED00E000E400E080E100E080FFFF1FB7
:104E800010B504469848844208D10121084600F034
:104E900086FB0021012000F082FB76E093488442EB
:104EA00008D10121022000F07AFB0021022000F04D
:104EB00076FB6AE08E48844208D10121042000F08C
:104EC0006EFB0021042000F06AFB5EE0894884420A
:104ED00008D10121082000F062FB0021082000F029
:104EE0005EFB52E08448844208D10121102000F08A
:104EF00056FB0021102000F052FB46E07F48844220
:104F000008D10121202000F04AFB0021202000F0E0
:104F100046FB3AE07A48844208D10121402000F063
:104F20003EFB0021402000F03AFB2EE07548844211
:104F300008D10121802000F032FB0021802000F008
:104F40002EFB22E07048844208D10121801500F038
:104F500026FB0021A01500F022FB16E06B488442DE
:104F600008D10121401500F01AFB0021601500F066
:104F700016FB0AE06648844207D10121001500F0C3
:104F80000EFB0021201500F00AFB10BDF0B50A460B
:104F900000210023002400BF3DE0012505FA01F3B4
:104FA000156805EA03049C4234D105684F000326C6
:104FB000BE40B543056015794E00B54006683543DF
:104FC00005601579012D02D01579022D16D185685D
:104FD0004F000326BE40B543856055794E00B5406D
:104FE000866835438560456801268E40B543456037
:104FF000456896798E40B6B235434560C5684F0026
:105000000326BE40B543C560D5794E00B540C6689D
:105010003543C560491C1029BFD3F0BD4FF6FF7161
:1050200001600021017141718171C171704708B542
:105030004FF480320092009A0A430092009AC261B3
:10504000C161009AC261C2690092C269009208BD42
:105050000246002013690B400BB1012000E0002044
:1050600070470146086980B27047024600205369C4
:105070000B400BB1012000E0002070470146486959
:1050800080B2704701837047418370470AB1018342
:1050900000E0418370474161704742694A40426184
:1050A0007047F0B5002300244D07ED0E02FA05F31A
:1050B000CE1000F1200555F826504E07F70E0F26AA
:1050C000BE40B543CF1000F1200646F82750CE1061
:1050D00000F1200555F8265045EA0304CE1000F1F2
:1050E000200545F82640F0BD0000024000040240C3
:1050F00000080240000C0240001002400014024070
:1051000000180240001C024000200240002402401F
:1051100000280240F948006840F00100F7490860A3
:105120000020F64908310860F4480068F449084056
:10513000F2490860F348091D0860F348EF498431DB
:105140000860F0481038091D0860EC48006820F439
:105150008020EA4908600020E8490C310860E749EE
:105160008C31086070470021E44A921C117011468E
:105170000870704710B501460022002300204A1134
:10518000012A02D1DD4C236808E0022A03D1DB4C5E
:105190007034236802E0D94C7434236801F01F0294
:1051A000012494401C400CB1012000E0002010BDFF
:1051B00038B5002000900024002500BF3120FFF703
:1051C000D9FF05460098401C00900098B0F5A04F0C
:1051D00001D0002DF2D03120FFF7CCFF08B101241F
:1051E00000E00024204638BD01460020C34A106874
:1051F00020F0F80040EAC10010607047C349086021
:1052000070470021BD4A703211701170012802D020
:1052100004280AD104E00121B84A7032117005E077
:105220000521B64A7032117000E000BF00BF704720
:10523000B7490860704770B5049C41EA82150126A1
:10524000C6EB530645EA0645054345EA0465AB4E01
:10525000361D356070BDAD4908667047820142EA6F
:105260000172A64B84331A607047A849886670475C
:1052700010B5830143EA016343EA02739F4C88340B
:10528000236010BDA14908677047A049C8647047F2
:1052900002460020994B0833186820F0EC6042EA7F
:1052A00001031843954B08331860704702460020ED
:1052B000924B0833186820F0784042EA0103184303
:1052C0008E4B083318607047014600208B4A083225
:1052D000106820F0030008431060704787480830CA
:1052E000006800F00C00704701460020834A083235
:1052F000106820F0F000084310607047014600205D
:105300007E4A0832106820F4E0500843106070476D
:1053100001460020794A0832106820F4604040EAD3
:10532000C10010607047F0B5002100220024022562
:1053300000260223714F08373F6807F00C0121B1A6
:10534000042905D0082937D105E0724F076036E0FF
:10535000714F076033E0694F3F1D3F68C7F38056C8
:10536000664F3F1D3F6807F03F036EB16A4FB7FBC2
:10537000F3F7DFF888C10CF1040CDCF800C0CCF3C3
:10538000881C07FB0CF40CE0624FB7FBF3F7DFF867
:105390006CC10CF1040CDCF800C0CCF3881C07FBDA
:1053A0000CF4564F3F1D3F68C7F301477F1C7D003B
:1053B000B4FBF5F7076002E0564F076000BF00BF7F
:1053C0004E4F08373F6807F0F0010909534F7A5CE8
:1053D0000768D7404760494F08373F6807F4E051F6
:1053E000890A4E4F7A5C4768D7408760434F083739
:1053F0003F6807F46041490B484F7A5C4768D740E3
:10540000C760F0BD002100F44072B2F5407F0AD1C0
:105410003A4A0832116821F4F811414A0240114316
:10542000364A08321160354A70321268C0F30B03F5
:105430001A43324B70331A6070473549443908605B
:1054400070473349403908607047364908607047F3
:1054500001460020294A8C32106820F01F004A1EA5
:105460001043264A8C321060704701460020234AC0
:105470008C32106820F4F8504A1E40EA02201F4A7D
:105480008C3210607047014600201C4A8C32106834
:1054900020F4401008431060704701460020174A6E
:1054A0008C32106820F440000843106070470146B9
:1054B0000020124A8C32106820F4403008431060FB
:1054C000704719490860704739B10C4A3032126888
:1054D00002430A4B30331A6006E0084A3032126841
:1054E0008243064B30331A607047F9B1034A3432B5
:1054F00012680243014B34331A601CE0003802404A
:10550000FFFFF6EA10300024003000200000474280
:10551000800E47420024F40000127A00E80C0020BC
:10552000FFFCFF0F5C014742E01147428F4A1268BF
:1055300082438E4B1A60704739B18C4A121D126833
:1055400002438A4B1B1D1A6006E0884A121D12682E
:105550008243864B1B1D1A60704739B1834A0C3257
:1055600012680243814B0C331A6006E07F4A0C320A
:10557000126882437D4B0C331A60704739B17B4A05
:10558000103212680243794B10331A6006E0774AF2
:10559000103212688243754B10331A60704739B16C
:1055A000724A243A12680243704B243B1A6006E0A8
:1055B0006E4A243A126882436C4B243B1A6070474F
:1055C00039B16A4A203A12680243684B203B1A609C
:1055D00006E0664A203A12688243644B203B1A6018
:1055E000704739B1614A1C3A126802435F4B1C3B59
:1055F0001A6006E05D4A1C3A126882435B4B1C3B12
:105600001A60704739B1594A143A12680243574B2D
:10561000143B1A6006E0554A143A12688243534B11
:10562000143B1A60704739B1504A103A126802436D
:105630004E4B103B1A6006E04C4A103A1268824307
:105640004A4B103B1A60704739B1484A1C32126805
:105650000243464B1C331A6006E0444A1C3212686F
:105660008243424B1C331A60704739B13F4A2032A3
:10567000126802433D4B20331A6006E03B4A203259
:1056800012688243394B20331A60704739B1374A68
:10569000243212680243354B24331A6006E0334A41
:1056A000243212688243314B24331A60704739B177
:1056B0002E4A2C32126802432C4B2C331A6006E01F
:1056C0002A4A2C3212688243284B2C331A607047C6
:1056D00039B1264A303212680243244B30331A6003
:1056E00006E0224A303212688243204B30331A607F
:1056F0007047012808D11D493C31096841F0080173
:105700001A4A3C32116007E018493C31096821F01F
:105710000801164A3C321160704739B1134A273AE2
:1057200012780243114B273B1A7006E00F4A273AC2
:10573000127882430D4B273B1A7070470B4840305C
:10574000006840F0807009494031086070470146A8
:105750000020064A283A12680A400AB1012000E0F7
:1057600000207047014926390870704734380240DC
:1057700010B501218803FFF756FF00214FF4804048
:10578000FFF751FF10BD1C49086070471B490862B4
:10579000704730B500228B071C0F0F2303FA04F269
:1057A000154B08338C1053F824309343124C0834B3
:1057B0008D1044F8253023468C1053F824308C0784
:1057C000240F00FA04F423430B4C08348D1044F8E2
:1057D000253030BD0949DC31086070470849086050
:1057E0007047002004492031096801F4807109B133
:1057F000012000E0002070470038014000002742EF
:105800000004274210B50446FA48844208D1012119
:105810001020FFF708FF00211020FFF704FF57E0DA
:10582000F548844209D101214804FFF7EBFE00212D
:105830004FF40030FFF7E6FE4AE0F048844209D119
:1058400001218804FFF7DEFE00214FF48020FFF7DE
:10585000D9FE3DE0EA48844209D10121C804FFF79E
:10586000D1FE00214FF40020FFF7CCFE30E0E548E8
:10587000844209D101210805FFF7C4FE00214FF43D
:105880008010FFF7BFFE23E0DF48844208D10121EA
:105890002020FFF7C8FE00212020FFF7C4FE17E0FC
:1058A000DA48844209D101218807FFF7ABFE0021C5
:1058B0004FF08040FFF7A6FE0AE0D548844207D1AA
:1058C00001214005FFF79EFE00216005FFF79AFECB
:1058D00010BD2DE9FF4705460E460024A14600BF36
:1058E000A046B08900B100BF2C8A24F44054F0884F
:1058F00004432C82AC8941F20C608443B088318926
:105900000843718908430443AC81AC8A24F4407491
:10591000B0890443AC826846FFF705FDB54885426F
:1059200002D0B948854202D1DDF80C9001E0DDF8E3
:105930000890A88900F4004040B109EBC90000EBD1
:10594000091031684900B0FBF1F707E009EBC90025
:1059500000EB091031688900B0FBF1F76420B7FB58
:10596000F0F004012009642101FB1078A88900F4FB
:10597000004040B1322000EBC800B0FBF1F000F075
:105980000700044308E0322000EB08106421B0FB5C
:10599000F1F000F00F0004432C81BDE8FF874FF4C5
:1059A0001651016000218180C18001810C2141815B
:1059B00000218181704710B502460020108A20F432
:1059C00070600B884C8823438C882343CC88234306
:1059D0001843108210BD0021018041808180C18068
:1059E000704721B1828942F40052828104E08289A9
:1059F0004DF6FF731A4082817047028B02F47F429A
:105A00000283028B0A430283704721B1828942F4E8
:105A10000042828103E08289C2F30E0282817047D4
:105A200021B1828A42F40062828204E0828A4FF2CB
:105A3000FF731A4082827047C1F308028280704768
:105A400001468888C0F308007047028A4FF6F07359
:105A50001A400282028A0A430282704721B1828977
:105A600042F00202828104E082894FF6FD731A40FF
:105A70008281704782894FF2FF731A408281828946
:105A80000A4382817047028A4FF6DF731A4002820E
:105A9000028A0A430282704721B1028A42F480429C
:105AA000028204E0028A4BF6FF731A4002827047BA
:105AB000818941F001018181704721B1828A42F0E0
:105AC0000802828204E0828A4FF6F7731A408282CB
:105AD0007047028BD2B20283028B42EA0122028318
